:020000040800F2
:1000000000000120394A0008FD2A0008FF2A0008E4
:10001000012B0008032B0008052B0008000000003E
:10002000000000000000000000000000072B000896
:10003000092B0008000000000B2B00080D2B000806
:10004000894A0008894A0008894A0008894A000844
:10005000894A0008894A0008894A0008894A000834
:10006000152B00081F2B0008292B0008894A0008BF
:10007000894A0008352B0008894A0008894A000887
:10008000894A0008894A0008894A0008894A000804
:10009000894A0008894A0008894A0008452B000857
:1000A000894A00085D2B0008894A0008894A00082F
:1000B000894A0008894A0008894A0008894A0008D4
:1000C000894A0008894A0008894A00086D2B0008FF
:1000D000894A0008894A0008894A0008894A0008B4
:1000E0007D2B0008894A0008894A0008894A0008CF
:1000F000894A0008894A0008894A0008894A000894
:10010000894A00080000000000000000894A000839
:10011000894A0008894A0008894A0008894A000873
:10012000894A0008894A0008894A0008894A000863
:10013000894A0008894A0008000000000000000009
:10014000894A0008894A0008894A0008000000001E
:10015000000000000000000000000000000000009F
:10016000894A0008894A0008894A0008894A000823
:10017000894A0008894A0008894A0008894A000813
:10018000894A0008894A00080000000000000000B9
:04019000894A000890
:1001A0000348044B834202D0034B03B11847704706
:1001B000D8000020D80000200000000005480649B3
:1001C000091A891001EBD171491002D0034B03B118
:1001D00018477047D8000020D80000200000000019
:1001E00010B5064C237843B9FFF7DAFF044B13B17F
:1001F0000448AFF300800123237010BDD800002015
:10020000000000008C4A000808B5044B1BB10449EB
:100210000448AFF30080BDE80840CFE700000000CD
:10022000DC0000208C4A000870B50D4E0D4D761B89
:10023000B61006D00024013455F8043B9847A64276
:10024000F9D1094E094D761B04F020FCB61006D0FA
:100250000024013455F8043B9847A642F9D170BDFB
:10026000A04D0008A04D0008A44D0008A04D0008B6
:10027000F0B4860746D0541E002A3CD0CAB20346CA
:1002800002E014F1FF3436D303F8012B9D07F8D1B7
:10029000032C29D9CDB245EA05250F2C45EA0545A1
:1002A00033D9A4F11006360903F1200707EB06172E
:1002B00003F1100242E9045542E902551032BA42F4
:1002C000F8D1721C14F00C0F03EB021204F00F06AD
:1002D00013D0331F23F003030433134442F8045BA9
:1002E0009342FBD106F003042CB1C9B21C4403F8BD
:1002F000011B9C42FBD1F0BC704734461346002CD6
:10030000F3D1F8E714460346C2E71A462646E0E76B
:1003100038B5124B1C68A26B05461AB10023C2E91E
:10032000045338BD182000F0B3F80246A06378B13A
:10033000012000210A4B1360C2E904010B23094884
:10034000094993810023C2E90101C2E9045338BD80
:10035000064B0748422100F055F800BF000000207E
:100360000E33CDAB34126DE6ECDE0500D84C000840
:10037000F04C000838B51A4B1C68A26B92B1146996
:1003800018495369184801FB04F100FB0313A4FB4F
:100390000045611C1D4445F1000323F00040C2E903
:1003A000041338BD182000F073F80246A06388B12A
:1003B00001200021C2E904010A480C4C0C4B0D49F4
:1003C0000D4D146053600B24034695609481C2E97F
:1003D000041338BD094B0A484E2100F013F800BF42
:1003E000000000202DF451582D7F954C0E33CDABDD
:1003F00034126DE62E7F954CECDE0500D84C0008DB
:10040000F04C000800B50A4C2668054685B01C462D
:10041000F06852B1074B0091CDE9013206492B46F5
:10042000224600F021F800F083FD044B1A46F2E763
:1004300000000020244D0008344D0008304D000815
:1004400008B513460022FFF7DDFF00BF0CB400B56E
:1004500083B004AB53F8042B019300F027F903B0E9
:100460005DF804EB02B070470EB410B583B005AB75
:10047000064C53F8042B01930146206800F016F94E
:1004800003B0BDE8104003B0704700BF000000207B
:10049000024B0146186800F061B800BF0000002060
:1004A000024B0146186800F003B800BF00000020AE
:1004B00000293CD038B551F8043C0C1F002BB8BFC4
:1004C000E418054601F0BEFA234B1A682AB1A2428D
:1004D0000DD921686018824223D0626028461C60D2
:1004E000BDE8384001F0B0BAA34203D81A465368B9
:1004F000002BF9D111685018A04219D024D82168D6
:100500006018834206D0636054602846BDE83840D6
:1005100001F09ABAD3E9000301446360216054609A
:10052000F3E7D2E90002014462602160D6E7704738
:1005300020680144501883421160E6D1D3E90003DA
:10054000014453601160E0E70C232B602846BDE8AE
:10055000384001F079BA00BFF4000020F8B5CD1C96
:1005600025F0030508350C2D38BF0C25002D064657
:1005700033DBA94231D82A4F01F064FA3A6852B10C
:1005800013685B1B04D43FE023685B1B29D522461C
:100590005468002CF8D1796800293BD029463046B0
:1005A00000F0D4FB431C28D0C41C24F00304A04258
:1005B00005D0211A304600F0C9FB01301DD025605E
:1005C000304601F041FA04F10B0020F00700231D32
:1005D000C21A01D01B1AA350F8BD0C2232600020B1
:1005E000F8BD0B2B05D8A242636811D05360E7E732
:1005F000144623601C442560E2E70C233046336038
:1006000001F022FA0020F8BD0B2BF1D853681446F4
:100610003B60D5E7304600F099FB7860BEE700BF4D
:10062000F40000209368013B002B936011DA10B4B2
:100630009469A34209DB0A2907D01368581C10608B
:10064000197008465DF8044B70475DF8044B00F0E4
:100650008FBB1368581C106019700846704700BFA4
:100660009BB1F8B513440F4606465D1E541E01E0CB
:10067000AC4208D03A4614F8011F3046FFF7D2FFCB
:10068000431CF5D1F8BD0020F8BD0020704700BF25
:10069000936810B5144613B95360184610BD00F0A6
:1006A0002FFE0023C4E9013310BD00BF2DE9F04F38
:1006B0009FB08B4690461C46039018B18369002B6F
:1006C00000F0B780A24B9B4500F0B980A14B9B4541
:1006D00000F0C780A04B9B4504BF039BD3F80CB030
:1006E000BBF80C30180740F1B280DBF81030002B5B
:1006F00000F0AD8030238DF8323098F8003005944A
:10070000002120220B918DF83120944E0127002BDF
:1007100000F08780252B00F01581454603E0252B4E
:1007200000F0A38025466B786C1C002BF7D1B4EB4E
:10073000080A76D04246534659460398FFF790FF81
:1007400001306ED00B9B6A7853440B93002A68D01B
:1007500000234FF0FF3201340693CDE908338DF8C2
:100760005B301C93079205E0069A07FA03F31343E4
:100770002C4606932546052215F8011B304601F04C
:100780000FF8AA46831B0028EED1069BD90644BF6A
:1007900020228DF85B2021781A0744BF2B228DF888
:1007A0005B202A2966D1059A116804320029059236
:1007B000C0F29D8009916178A51C2E2973D0684CE8
:1007C0000322204600F0ECFF002800F08680001B8A
:1007D000069B402404FA00F00343069305F1010848
:1007E000297860488DF83010062200F0D9FF0028E3
:1007F00000F083805C4B002B72D005AB00935A460F
:100800005A4B039806A9AFF300808146B9F1FF3F28
:1008100007D00B9B4B440B9398F80030002B7FF4D0
:1008200079AFBBF80C305B0618D40B981FB0BDE84D
:10083000F08F00F045FD464B9B457FF447AF039B8F
:10084000D3F804B0BBF80C3018073FF54EAF59464B
:10085000039800F0EDFA00283FF44CAF4FF0FF3062
:10086000E4E7039BD3F808B03AE7B4EB080A3FF497
:100870006FAF5FE7A1F13002092A88BFA2469CD87A
:10088000099B01E02C460135297803EB830302EB39
:100890004303A1F13002092AAA46F3D92E2904F113
:1008A000020509938BD19AF801102A292FD1059BB3
:1008B0009AF802101A6807920433002A05930AF185
:1008C00003050AF1020338DB254C032220469A4631
:1008D00000F066FF00287FF47AAFA84655467FE710
:1008E000059B073323F007030833059391E749423B
:1008F00043F00203099106935DE705AB00935A4666
:100900001A4B039806A900F0D5F881467EE7A1F1BD
:1009100030020023092A079301D915E0554669786A
:1009200003EB830302EB4303A1F13002092A05F133
:10093000010AF3D90235079341E74FF0FF329A4697
:1009400007923CE7444603E7AA46013537E700BF74
:10095000E84A0008C84A0008A84A0008644D000890
:100960006C4D0008704D0008000000006106000892
:1009700010B4044C13460A46014620685DF8044B47
:10098000FFF794BE000000202DE9F0470C46914689
:100990000A698968DDF820808A42B8BF0A46C9F82A
:1009A000002094F8431006461F4611B10132C9F8E1
:1009B0000020236899065CD5D9F800200232C9F8D6
:1009C0000020236813F0060F19461DD1E1688A1A2A
:1009D000002AD8BF194617DD04F1190A002505E0E1
:1009E000E368D9F800209B1AAB420CDD0123524684
:1009F00039463046C047013005F10105F0D14FF0CE
:100A0000FF30BDE8F087216894F84330003318BF09
:100A100001238A060AD5E1185A1C302081F84300C8
:100A2000224494F8451082F84310023304F1430243
:100A300039463046C0470130E1D02368A2682169B9
:100A400003F00603042B1DD08A4226DD4FF0000977
:100A5000521A91441A34002501E04D451DDA012354
:100A6000224639463046C047013005F10105F4D130
:100A7000C5E713F0060F13D094F84330003318BFC6
:100A80000123D3E7D9F80000E3688A42A3EB00030F
:100A900023EAE379DCDC002BDCDC0020BDE8F08716
:100AA000E168D9F800208A1A002AD8BF194693DCD9
:100AB000AAE700BF2DE9F0430C46097E85B06E29F8
:100AC000064617460C98984604F1430E6DD039D966
:100AD000732900F0F68044D9752900F00481782943
:100AE00040F0118178232268DFF858C284F845303D
:100AF0000168150651F8043B016040F1A180D1075F
:100B000044BF42F020022260002B00F093801022AC
:100B1000002184F843106068A0600028C0F2C880FB
:100B2000216821F004012160002B40F0A3800028FF
:100B300040F0C0807546082A00F0AC80AEEB05039B
:100B4000236141E0632900F0E5801AD8002938D0FC
:100B5000582940F0D88084F845102268DFF8E8C1B1
:100B6000C6E76F2900F0BF80702940F0CC80226872
:100B7000DFF8D0C142F020027823226084F84530AB
:100B8000B6E7642902D0692940F0BD802268036875
:100B9000110603F1040557D5196805600B460029B5
:100BA00059DBDFF8A4C10A22B5E70368226861694E
:100BB0001D1D056015061B6802D4500600F1BD809E
:100BC0001960002375462361CDF800803B4603AAD7
:100BD00021463046FFF7D8FE013020D02A4623694F
:100BE00039463046C047013019D022680398E3687F
:100BF000920719D51A1A002A16DD04F119090025E1
:100C000004E0E36803981A1AAA420DDD01234A465C
:100C100039463046C047013005F10105F1D14FF0AA
:100C2000FF3005B0BDE8F0839842B8BF184605B064
:100C3000BDE8F083226822F020022260102267E7DC
:100C4000500648BF9BB25AE75106A5D5B3F900300C
:100C500005601946A3E76168A1602D200029C3F152
:100C6000000384F8430002DB22F004022260DFF874
:100C7000D8C00A22754600E00B46B3FBF2F102FB36
:100C8000113093421CF8000005F8010DF4D2082A37
:100C90007FF454AF2368DB077FF550AF62682369A8
:100CA0009A423FF74BAF302305F8013C013D45E741
:100CB000002BDFD19CF8003084F8423004F142056B
:100CC00039E703686268191D01601D680021284624
:100CD00000F066FD002832D0401B606020610023D8
:100CE00084F8433070E72268036812F0800F03F144
:100CF00004051AD01B6805606F290CBF08220A2260
:100D0000DFF844C004E7012384F84210236104F1B2
:100D10004205E4E703681A68191D0123016004F124
:100D2000420584F842202361D9E712F0400F0DBF3D
:100D30001B6805601B880560DEE7198041E7606875
:100D4000CCE700BF8C4D0008784D000838B5074C43
:100D5000002305460846236001F05EF8431C00D0DE
:100D600038BD2368002BFBD02B6038BD1019002044
:100D7000F8B50D461446064608B1836943B3254BC2
:100D80009C422AD0244B9C4229D0244B9C4208BF31
:100D9000F468A389A269A2601A0722D5236903B364
:100DA00022686169D31AEDB299422F4629DD0133D9
:100DB000A168501C0139A1602060157062699A42D7
:100DC00016D0A389DB0701D50A2D11D03846F8BD0E
:100DD00000F076FA0F4B9C42D4D17468D9E7B4681E
:100DE000D7E72146304600F023F838B92369D7E722
:100DF0002146304600F03AF90028E7D04FF0FF379F
:100E0000E4E72146304600F031F90028F6D12268A7
:100E10000123CDE7E84A0008C84A0008A84A0008AC
:100E2000024B0A4601461868FFF7A2BF00000020E7
:100E30003B4B70B51D6806460C460DB1AB69DBB186
:100E4000384B9C421ED0384B9C424AD0374B9C4278
:100E500008BFEC68B4F90C2093B2190718D52069C3
:100E600008B313F001022CD0636900225B42A36136
:100E7000A26060B3002070BD284600F021FA294B23
:100E80009C42E0D16C68B4F90C2093B21907E6D407
:100E9000DD063CD5580726D4206942F00803A3811B
:100EA0009BB20028DDD103F42072B2F5007FD8D0C8
:100EB0003046214600F026FCA389206913F0010288
:100EC000D2D1990758BF6269A2600028D2D1B4F983
:100ED0000C301A06CFD543F04003A3814FF0FF300A
:100EE00070BDAC68B6E7616B51B104F1440399423F
:100EF00004D03046FFF7DCFAB4F90C20002363631A
:100F000000232069636022F024022060C5E742F0DC
:100F10004002092333604FF0FF30A28170BD00BF53
:100F200000000020E84A0008C84A0008A84A000853
:100F300008B5062000F036FE012000F083FF00BF58
:100F40008B891A072DE9F0410C46804641D44A6846
:100F5000002A59DDE66A002E53D00022D8F800504E
:100F6000216AC8F8002013F4805251D10123404671
:100F7000B047431C5FD0A389E66A216A5F0705D5A5
:100F80006268636B801A0BB1236CC01A024600239F
:100F90004046B047461C45D1D8F80030B4F90C2083
:100FA000002B55D01D2B01D0162B5AD123690022BE
:100FB000C4E90032616BC8F8005011B304F1440376
:100FC000994202D04046FFF773FA00206063BDE803
:100FD000F0810E69AEB10D680E6099070CBF6369B0
:100FE0000023AD1BA3600AE02B463246A76A216AA4
:100FF0004046B8470028A5EB000506440ADD002D51
:10100000F2DC0020BDE8F0810A6C002AA2DCF8E7DF
:10101000606DB3E7A38943F04003A3814FF0FF3035
:10102000BDE8F0812269A389226000226260DA04AF
:10103000C0D56065BEE7D8F80030002B9BD01D2BD3
:101040000CD0162B0AD0A38943F04003A381D9E723
:101050002169C4E90013D304ACD5EAE7C8F800500D
:10106000CFE742F04002A281CCE700BF0B6923B377
:1010700010B5044682B008B18369BBB1104B9942E8
:1010800012D0104B994216D00F4B994208BFE1681D
:10109000B1F90C302BB1204602B0BDE81040FFF78B
:1010A0004FBF002002B010BD6168F1E7019100F070
:1010B00007F90199E2E7A168EAE70020704700BF5D
:1010C000E84A0008C84A0008A84A000820B1054BB1
:1010D00001461868FFF7CABF034B0449186800F0BF
:1010E000B9BA00BF00000020A44A00086D10000833
:1010F00000207047014900F0ADBA00BF6D10000834
:101100000020704770B54A1E682505FB02F50E46A3
:1011100005F17401FFF722FA044640B100210C30BA
:10112000666005F168022160A060FFF7A1F8204623
:1011300070BD00BF1E4B70B51D68AB69064643B35A
:101140004835D5E90134013B05D51EE0013B5A1C69
:1011500004F1680419D0B4F90C20002AF6D1002556
:10116000144B6566C4E90055A560C4E90455A56142
:101170002946E360082204F15C00FFF779F8C4E92E
:101180000D55C4E91255204670BD2C682CB125467A
:10119000D7E7284600F010F8D2E704213046FFF7E1
:1011A000B1FF044628600028F1D10C233360EAE740
:1011B000A44A00080100FFFF2DE9F84F334B3449E2
:1011C0001A68816290424FF00003C0E91233036550
:1011D00004BF012383610546FFF7ACFF6860284622
:1011E000FFF7A8FFA8602846FFF7A4FF6E68E86035
:1011F00000240423F3607466C6E90044B460C6E9C1
:101200000444B461214606F15C000822FFF730F87F
:10121000DFF888B0AF68DFF888A0DFF88890DFF8E3
:1012200088801C4BC6F83080C6E9086BC6E90AA95D
:101230002146FB6008227C66C7E90044BC60C7E920
:101240000444BC6107F15C00FFF712F8EE68124B32
:10125000C7F83080C7E9087BC7E90AA92146F360CF
:101260007466C6E90044B460C6E90444B46106F19A
:101270005C000822FEF7FCFF0123C6E9086BC6E903
:101280000AA9C6F83080AB61BDE8F88FA44A00080F
:10129000F51000080900010012000200151C0008EA
:1012A0003D1C00087D1C00089D1C0008024B0349E2
:1012B000186800F0CFB900BFA44A00086D100008FC
:1012C000836903B978E77047704700BF704700BF74
:1012D000704700BF704700BF024B0349186800F019
:1012E00093B900BF00000020F1100008024B034931
:1012F000186800F089B900BF000000200111000843
:101300009368002B00F002812DE9F04FB1F90C3009
:101310009BB20C46190783B08246904635D52269A8
:101320009AB313F00202D8F800603DD00027D4F839
:1013300028B0D4F820C0DFF8CC923D464D452B466E
:101340003A4628BF4B4661465046D5B1D84700289B
:1013500040F3D280D8F808301B1A07442D1AC8F879
:101360000830002B00F0B780D4F820C0D4F828B0A3
:101370004D452B463A4628BF4B4661465046002D08
:10138000E4D1D6E900750836D8E721465046FFF784
:101390004FFD002840F03081B4F90C30D8F80060DF
:1013A0009BB213F00202C1D113F0010940F0B080EA
:1013B000A76820684D46002D54D09A0540F1BC80A6
:1013C000AF42BB4600F2E78013F4906F2FD0D4E910
:1013D000041707EB4707A0EB010B07EBD777681C57
:1013E0007F105844B8423A4684BF07463A465B05E8
:1013F00040F1E98011465046FFF7B0F8002800F0B0
:10140000F5805A462169019000F01AFAA289019BE1
:1014100022F4906242F08002A281A7EB0B0203EB60
:101420000B00676123612060A2602F46AB465A46DD
:10143000494600F09FFAA2682368D21B5B442F46FE
:10144000A26023600025D8F80830DB1BB944C8F837
:101450000830002B3FD0B4F90C30A76820689BB24D
:10146000002DAAD1D6E900950836A4E70BF10803B0
:1014700053E902679B460833002FF9D03A460A2108
:10148000304600F08DF9002853D00130A0EB06095A
:101490004B46D4E904122068BB4228BF3B46884231
:1014A00003D9A5681544AB4219DC9A427DDC13468A
:1014B000A56A216A32465046A847051E1CDDB9EBD5
:1014C00005096BD00120D8F808305B1B2E447F1B28
:1014D000C8F8083013BB002003B0BDE8F08F3146D8
:1014E0002A4600F047FA23682B44236021465046E1
:1014F000FFF7BCFD0028E2D0B4F90C3043F0400304
:101500004FF0FF30A38103B0BDE8F08F002070479B
:1015100033469146104617464E469B46002FA5D0AF
:101520000028B5D13A460A21304600F039F90028A2
:10153000ABD17B1C9946ACE72369834215D3616923
:10154000A94212D82E4BA76A9D4294BF2B466FF03A
:1015500000434A4693FBF1F3504601FB03F3216A33
:10156000B847071EC8DDED1B6DE7AF4228BF2F4609
:101570003A46494600F0FEF9A3682268DB1B3A446C
:10158000A3602260002BEED121465046FFF76EFD8E
:101590000028E8D0B0E72F46AB4648E72146504642
:1015A000FFF764FD00288ED0A6E71A463146019366
:1015B00000F0E0F9019BA1682268C91A1A44A160F1
:1015C00022601D467BE7504600F040FA03460028A3
:1015D0007FF423AF21695046FEF76AFFB4F90C305F
:1015E0000C2223F08003CAF8002087E70C23CAF8F6
:1015F0000030B4F90C3081E74FF0FF306CE700BFEA
:10160000FEFFFF7F00FCFF7F2DE9F04110F148074E
:101610001BD088460026D7E90154013D0FD4A38989
:10162000012B05F1FF3506D9B4F90E300133204600
:1016300001D0C04706436B1C04F16804EFD13F683A
:10164000002FE8D13046BDE8F0813E463046BDE887
:10165000F08100BF2DE9F84310F148071FD08846FC
:1016600006464FF00009D7E90154013D11D4A38982
:10167000012B05F1FF3508D9B4F90E3001332146AD
:10168000304602D0C04749EA00096B1C04F16804E7
:10169000EDD13F68002FE6D14846BDE8F883B94652
:1016A0004846BDE8F88300BF70B50C46B1F90E108E
:1016B000002996B016461D4613DB6A4600F01AFB59
:1016C00000280EDB019A02F47042A2F50052B2FA31
:1016D00082F252094FF4806300202A60336016B012
:1016E00070BDA38900221B062A6004D54023002078
:1016F000336016B070BD4FF480630020336016B0C5
:1017000070BD00BF8A8992070B4606D501F14702DA
:1017100001211A60C3E90421704770B582B001ABA2
:101720006A460C460646FFF7BFFF0099054630465D
:10173000FEF714FFB4F90C3070B11649B162019A8A
:101740000099206043F08003A381C4E904018AB9B1
:101750002B43A38102B070BD9A05FBD423F0030391
:1017600004F1470243F002030121A3812260C4E98E
:101770000421EFE73046B4F90E1000F0CFFA10B9AB
:10178000B4F90C30E4E7A38923F0030343F0010329
:101790001BB2DDE7F51000080000000000000000AB
:1017A00001F0FF01102A2BDB10F0070F08D010F812
:1017B000013B013A8B422DD010F0070F42B3F6D116
:1017C000F0B441EA012141EA014122F007047FF02F
:1017D00000070023F0E80256083C85EA010586EA86
:1017E000010685FA47F5A3FA87F586FA47F6A5FAC2
:1017F00087F68EB9EED1F0BC01F0FF0102F00702CE
:1018000032B110F8013B013A83EA010313B1F8D178
:101810000020704701387047002D06BF3546033859
:10182000073815F0010F07D1013015F4807F02BF92
:10183000013015F4C03F0130F0BC0138704700BFE3
:10184000844641EA000313F003036DD1403A41D3CB
:1018500051F8043B40F8043B51F8043B40F8043B8A
:1018600051F8043B40F8043B51F8043B40F8043B7A
:1018700051F8043B40F8043B51F8043B40F8043B6A
:1018800051F8043B40F8043B51F8043B40F8043B5A
:1018900051F8043B40F8043B51F8043B40F8043B4A
:1018A00051F8043B40F8043B51F8043B40F8043B3A
:1018B00051F8043B40F8043B51F8043B40F8043B2A
:1018C00051F8043B40F8043B51F8043B40F8043B1A
:1018D000403ABDD2303211D351F8043B40F8043BBA
:1018E00051F8043B40F8043B51F8043B40F8043BFA
:1018F00051F8043B40F8043B103AEDD20C3205D3CA
:1019000051F8043B40F8043B043AF9D2043208D0C1
:10191000D2071CBF11F8013B00F8013B01D30B8833
:1019200003806046704700BF082A13D38B078DD011
:1019300010F003038AD0C3F10403D21ADB071CBFE3
:1019400011F8013B00F8013B80D331F8023B20F84D
:10195000023B7BE7043AD9D3013A11F8013B00F886
:10196000013BF9D20B7803704B7843708B7883700E
:10197000604670478842F0B40DD98B1883420AD96B
:10198000841832B1224613F8014D02F8014D9942F4
:10199000F9D1F0BC70470F2A0ED80346541E002A16
:1019A000F7D001340C44013B11F8012B03F8012F4F
:1019B000A142F9D1F0BC704740EA01039B073BD13B
:1019C000A2F110073F0901F1200606EB071601F10D
:1019D000100300F1100453F8105C44F8105C53F845
:1019E0000C5C44F80C5C53F8085C44F8085C53F851
:1019F000045C44F8045C1033B34204F11004EAD1EF
:101A00007B1C1B0112F00C0F194402F00F0503445C
:101A100015D0043DAD0803EB850C1C1F0E4656F88F
:101A2000047B44F8047F6445F9D10135AD002B44B3
:101A3000294402F00302B1E7541E0346B1E72A46E7
:101A4000ACE700BF704700BF704700BF09B3F8B5EF
:101A50001446CAB106460D4600F088F9A04202D3EA
:101A60002F463846F8BD21463046FEF777FD07463B
:101A70000028F6D022462946FFF7E2FE30462946E6
:101A8000FEF716FD3846F8BD2746FEF711FD38462D
:101A9000F8BD1146FEF762BD10B580210446FEF781
:101AA0005DFD606440B1031F00227C3043F8042FC9
:101AB0008342FBD1002010BD4FF0FF3010BD00BFAE
:101AC000436C0BB100207047E6E700BF1F2970B5DB
:101AD000054608D8436C16460C464BB153F8240013
:101AE00043F8246070BD162202604FF0FF3070BDD5
:101AF000FFF7D2FF08B96B6CF0E74FF0FF3070BD15
:101B00001F2938B521D8426C05460C466AB152F8F7
:101B1000213053B1012B16D0591C10D0002520467E
:101B200042F824509847284638BD284600F070F8FF
:101B3000224601462846BDE8384000F055B8162335
:101B40000360012038BD002038BD162303604FF02C
:101B5000FF3038BD1F2921D838B5436C05460C46E7
:101B600083B153F8242003EB84034AB1511C10D0F5
:101B7000012A0CD0002520461D609047284638BD1C
:101B8000012038BDFFF788FF28B96B6CE9E7032017
:101B900038BD022038BD4FF0FF3038BD4FF0FF3068
:101BA000704700BF024B01461868FFF7A9BF00BF8E
:101BB00000000020024B0A4601461868FFF786BF66
:101BC00000000020034B1868436C0BB100207047E5
:101BD00062E700BF00000020024B01461868FFF7D3
:101BE000B9BF00BF0000002038B50B46074C0546C2
:101BF000114618460023236000F0F6F8431C00D07D
:101C000038BD2368002BFBD02B6038BD1019002095
:101C100000F0DAB810B50C46B1F90E1000F0AEF8CD
:101C2000002803DB636D0344636510BDA38923F4BF
:101C30008053A38110BD00BF002070472DE9F04103
:101C40001646B1F90C201F46D3050C460546B1F9DE
:101C50000E1009D422F48052A2813B463246284617
:101C6000BDE8F04100F01EB80022022300F068F841
:101C7000B4F90C20B4F90E10ECE700BF10B50C4617
:101C8000B1F90E1000F05CF8A389421C0EBF23F4DA
:101C9000805343F480536065A38110BDB1F90E10E9
:101CA00000F016B870B50D46084C114606461A46A7
:101CB00028460023236000F0BDF8431C00D070BD0F
:101CC0002368002BFBD0336070BD00BF10190020CB
:101CD00038B5074C002305460846236000F064F839
:101CE000431C00D038BD2368002BFBD02B6038BDCF
:101CF0001019002038B50B46074C0546114618460A
:101D00000023236000F058F8431C00D038BD23683E
:101D1000002BFBD02B6038BD1019002038B5074CC4
:101D2000002305460846236000F056F8431C00D007
:101D300038BD2368002BFBD02B6038BD1019002064
:101D400070B50D46084C114606461A462846002333
:101D5000236000F051F8431C00D070BD2368002BB5
:101D6000FBD0336070BD00BF1019002051F8043C57
:101D7000181F002BBCBF0B58C018704770B50D461C
:101D8000084C114606461A4628460023236000F0F8
:101D90003BF8431C00D070BD2368002BFBD03360A0
:101DA00070BD00BF10190020024B58221A604FF07E
:101DB000FF30704710190020024B58221A604FF074
:101DC000FF30704710190020024B58221A604FF064
:101DD000FF30704710190020024B58221A60002073
:101DE000704700BF10190020024B58221A604FF0B4
:101DF000FF30704710190020024B58221A604FF034
:101E0000FF30704710190020024B58221A604FF023
:101E1000FF30704710190020044A05491368002B51
:101E200008BF0B461844106018467047FC0000209D
:101E300018190020024B58221A604FF0FF307047EB
:101E400010190020FEE700BF10B44C1E01E0013461
:101E500024B24B1CA34206DB431E421C9A42F6DB13
:101E600001331BB2F9E703205DF8044B704770B4EF
:101E70005E681C7801FB0404355D2D0135555E68F4
:101E80001C7801FB0404355D2D0935555C681B7811
:101E900001FB03011201D2B2635C1A44625470BCAC
:101EA000704710B45468137803FB0101605C0009AB
:101EB0005DF8044B704710B45468137803FB0101BC
:101EC000635C1B0113F0FF0F0CBF012000205DF8C5
:101ED000044B704710B45468137803FB0101605C35
:101EE0000001C0B2302814BF002001205DF8044B6F
:101EF0007047000070B582B005460E461446FFF7E5
:101F0000DAFF00287DD0224631462846FFF7C9FF78
:101F10000A2800F28680DFE800F05E06111C2732F6
:101F20003D4853846900A36801934D4B00931023EF
:101F30001A463101280100F06EFA72E0A36801939D
:101F4000484B009310231A463101280100F063FA30
:101F500067E0A3680193444B009310231A463101B4
:101F6000280100F058FA5CE0A36801933F4B00930E
:101F700010231A463101280100F04DFA51E0A36800
:101F800001933B4B009310231A463101280100F0C6
:101F900042FA46E0A3680193364B009310231A4699
:101FA0003101280100F037FA3BE0A3680193324B7E
:101FB000009310231A463101280100F02CFA30E07A
:101FC000A36801932D4B009310231A463101280179
:101FD00000F021FA25E0A3680193294B0093102318
:101FE0001A463101280100F016FA1AE0A36801939D
:101FF000244B009310231A463101280100F00BFAFC
:102000000FE0224631462846FFF764FF70B1A3680F
:1020100001931D4B009310231A463101280100F053
:10202000FAF9237BAB420CD002B070BDA3680193D8
:10203000164B009310231A463101280100F0EBF9EA
:10204000EFE7637BB342EFD1A3680193104B00939A
:1020500010231A463101280100F017FAE4E700BF07
:10206000C84B0008684C0008484C0008884B000822
:10207000484B0008284C0008084C0008284B000872
:10208000884C0008084B0008684B0008A84B000863
:10209000E84B000870B5054602785308037343788F
:1020A0005908417303FB02F2124B83FB02131344E2
:1020B0009B10C381002229786B7803FB01F39342C4
:1020C00004DD6B68012199540A44F4E7002601E01D
:1020D0000136F6B26B78B3420BD900242B78A342B9
:1020E000F6D92A4631462046FFF704FF0134E4B210
:1020F000F4E770BD9324499238B50B461446157B1E
:10210000517B50B1024600281CDB2A44D2B2227314
:102110002078824201D3002222734BB1002B17DBBF
:102120000B44DBB263736278934201D30023637381
:1021300022462846FFF7DEFE2246617B207BFFF722
:10214000D9FE38BD002DE0D12278013A2273E4E7B0
:102150000029E5D16378013B6373E9E708B50246DE
:102160004FF0FF310020FFF7C7FF08BD08B502465A
:1021700001210020FFF7C0FF08BD08B5024600217D
:102180004FF0FF30FFF7B8FF08BD08B50246002149
:102190000120FFF7B1FF08BD70B50446067B457B03
:1021A000024629463046FFF786FE88B92246294670
:1021B0003046FFF78FFE60B16268237803FB056548
:1021C000535D023B53552246617B207BFFF792FE15
:1021D00070BD6268237803FB0565535D0233535578
:1021E000F1E770B505460E461446FFF764FE00B1F0
:1021F00070BD6168237803FB0653CA5C013ACA5478
:10220000224631462846FFF775FEF1E72DE9F04FEB
:1022100083B0074688461546FFF75CFE60BB2A463A
:1022200041463846FFF747FE30BB2A46414638460E
:10223000FFF737FE0A281DD02B8A01332B822A464E
:1022400041463846FFF7CDFF2A8A29786B7803FB91
:1022500001F3E9895B1A9A4211D02A464146384671
:10226000FFF71FFE044668B91FFA88FB0BF1FF3623
:10227000B6B232E00223AB7403B0BDE8F08F0123A5
:10228000AB74F9E72A4641463846FFF7DDFD844244
:10229000F2D1E9E7A24512D104E02A464946019865
:1022A000FFF7B4FF0134A4B27B1CA34213DB2B78ED
:1022B000A342F7D96B78B342F4D9B345EAD0E3B27D
:1022C0005FFA86F92A46494601931846FFF7E9FD69
:1022D0000A28E2D1E6E70136B6B208F10103B342BB
:1022E000CADB1FFA87FA0AF1FF34A4B2DCE72DE952
:1022F000F04F85B00646038A03933BB13246717BAB
:10230000307BFFF783FF05B0BDE8F08F0C20FDF7B1
:10231000FFFFF389039A9342F0D3FEF72BF833784B
:10232000013390FBF3F203FB120301935FFA83FB8B
:10233000FEF720F87378013390FBF3F203FB1203EE
:102340000293DDB2324629465846FFF7AAFD0A2815
:10235000DFD0337B5B4502D1737BAB42D9D0039B8B
:1023600001339BB2039333460A2229465846FFF7AE
:102370007EFD013D2AE0994213D1013424B29DF83B
:1023800004305A1C2146A2421EDB002DF5DB002C36
:10239000F3DB32788A42F0DD7278BA42EDDD5745E0
:1023A000E9D05FFA84F85FFA85F93246494640463B
:1023B000FFF777FD0A28E0D0421C3346D2B24946E7
:1023C0004046FFF754FDD8E701352DB29DF808A02F
:1023D0000AF101032F46AB429BDB0BF1FF34CEE742
:1023E00030B49C88844214D9DD888D4211D91D688F
:1023F000E408C30804FB01316B5652425A4052B202
:1024000000F00700012404FA00F0024052B25A40E2
:102410006A5430BC70472DE9F84FDDF828A08518C4
:102420000B9CA488A5422EDACC180B9DED88AC42FB
:1024300029DA9B4616468846074612F0070918BF58
:102440004FF0010909EBD209002501E00135ADB2D9
:102450005D4518D20024B442F8D2E30809FB0533E5
:102460001AF80320E34303F007031A4105EB0801C0
:10247000E0190B9B02F0010289B280B2FFF7B0FFB6
:102480000134A4B2E7E7BDE8F88F2DE9F84FDDF895
:10249000288085180B9CA488A54230DACC180B9DA7
:1024A000ED88AC422BDA9B4616468A46814612F0EE
:1024B000070718BF012707EBD20700251BE005EB34
:1024C0000A0104EB09000B9B89B280B2FFF788FF79
:1024D0000134A4B2B4420CD2E30807FB053318F868
:1024E0000320E34303F007031A4112F00102EFD186
:1024F000E5E70135ADB25D4501D20024EAE7BDE86C
:10250000F88F00002DE9F0478CB000240794089460
:1025100009940A940B946A4B5A6942F400125A6166
:102520005A6902F400120092009A5A6942F4002299
:102530005A615A6902F400220192019A5A6942F4DE
:1025400080025A615A6902F480020292029A5A6920
:1025500042F400325A615A6902F400320392039A3B
:102560005A6942F480225A615A6902F48022049224
:10257000049A5A6942F480125A615A6902F480122C
:102580000592059A5A6942F400025A615B6903F4A4
:1025900000030693069B224602214FF0904001F073
:1025A00083FADFF82CA1224644F28101504601F063
:1025B0007BFA444F22464021384601F075FA142335
:1025C00007934FF4881608960125099507A93E48F8
:1025D00001F08EF94FF4005307930896099407A968
:1025E0003A4801F085F94FF00209CDF81C900895A2
:1025F00009944FF00308CDF8288007A94FF09040C8
:1026000001F076F944F281030793089509940A943E
:1026100007A9504601F06CF94FF440730793CDF8C9
:1026200020900994CDF8288007230B93DFF8A4802D
:1026300007A9404601F05CF94023079308950994E7
:102640000A9407A9384601F053F9802307930894A8
:10265000099407A9384601F04BF9E8230793089637
:10266000099507A9404601F043F922462146082072
:1026700001F066FB082001F097FB22462146092065
:1026800001F05EFB092001F08FFB224621460A2063
:1026900001F056FB0A2001F087FB22462146172055
:1026A00001F04EFB172001F07FFB22462146282037
:1026B00001F046FB282001F077FB0CB0BDE8F08765
:1026C00000100240001800480010004800080048B0
:1026D00000040048000C004800B583B00A4B5A695A
:1026E00042F001025A615B6903F001030193019B0F
:1026F000002211460D2001F023FB0D2001F054FBB8
:1027000003B05DF804FB00BF00100240034B1A68E1
:1027100000235362536A8342FCD37047CC170020D6
:102720000023052B18D80D4A02EB0312D2888242EF
:1027300002D00133DBB2F4E770B5084E1C01351945
:1027400000236B7101232B7100F00EFB305195F9C2
:10275000080001F037FB70BD704700BF6400002027
:1027600008B50268314B9A4200D008BD0022022110
:102770004FF0904001F098F92D4B1A8840F2391330
:102780009A4221D00420FFF7C1FF012202214FF01D
:10279000904001F089F90720FFF7B8FF244B1B8810
:1027A000283B03EB4301C3EBC101224A11449BB216
:1027B000F92B2CD91E4B1B8840F23912934231D091
:1027C00001331B4A1380D0E71C20FFF79FFF012233
:1027D00002214FF0904001F067F90420FFF796FFC7
:1027E000002202214FF0904001F05EF91C20FFF71B
:1027F0008DFF012202214FF0904001F055F9032096
:10280000FFF784FF0C4B1B6800225A62BAE71722BD
:102810000A4801F089FC0028CCD08021084801F04A
:1028200048F9C7E7024B00221A809EE7002C0140BE
:10283000CA17002054010020181800206418002036
:102840000004004808B572B64FF4FA7000F092FA2E
:10285000064C0121204601F02CF94FF4FA7000F0EB
:1028600089FA0121204601F024F9EDE7000400482F
:1028700008B51148114B03604FF4827343604FF465
:10288000004383604FF4E063C3600023036143614E
:102890004FF4007282611822C26180220262436298
:1028A00083620722C2620363436301F0C8FB00B97D
:1028B00008BDFFF7C7FF00BF6418002000300140CB
:1028C00000B589B000230493059306930793019301
:1028D000029303931448154A026040F6FF024260D7
:1028E00083600122C26003614361836101F08AFF5A
:1028F00098B94FF48053049304A90B4801F0BEFF2C
:1029000068B9002301930293039301A9064802F0DA
:1029100035F830B909B05DF804FBFFF793FFFFF716
:1029200091FFFFF78FFF00BF18180020002C014017
:1029300000B589B000230493059306930793019390
:10294000029303931348144A026047224260836053
:102950004FF6FF72C2600361836101F053FF90B9CB
:102960004FF48053049304A90A4801F087FF60B92B
:1029700000230193039301A9064801F0FFFF30B93A
:1029800009B05DF804FBFFF75DFFFFF75BFFFFF7A2
:1029900059FF00BFCC1700200004004000B5A7B0CD
:1029A000202200211EA8FDF763FC00211791189139
:1029B00019911A911B91582201A8FDF759FC012386
:1029C0001C934FF4A0221D921F93022322934FF4D5
:1029D000803323934FF4E01324931CA800F0DEF916
:1029E000C8B90F23179302211891002319934FF4AC
:1029F00080621A921B9317A800F028FD68B9094B52
:102A0000019300230E93109301A800F0F3FD30B959
:102A100027B05DF804FBFFF715FFFFF713FFFFF783
:102A200011FF00BF00102000F0B587B000F07EF964
:102A3000FFF7B4FFFFF766FDFFF74EFEFFF718FF45
:102A4000FFF73EFFFFF774FF254801F019FD254809
:102A500001F058FD0023CDF80630CDF80E30CDF84A
:102A60001230ADF8163009238DF804308DF805309A
:102A70001D4B02931D4B039301A8FFF70BFB002492
:102A800007E097F9080001F08FF900233B7101344A
:102A9000E4B2052CF3D82501154E77193B79002BAC
:102AA000F5D07B7923B9FB6801A8984701237B7196
:102AB00000F05AF97359C01A9628E8D9FA880D4BD4
:102AC0005A6197F90830002BDBDB03F01F015B092B
:102AD00001228A406033084941F82320D1E700BF32
:102AE000CC1700201818002000010020C40000208E
:102AF000640000200004014000E100E0FEE7FEE782
:102B0000FEE7FEE7FEE770477047704708B500F044
:102B10001FF908BD08B5042000F0D4FF08BD08B5B2
:102B2000082000F0CFFF08BD08B5102000F0CAFF54
:102B300008BD000008B5024801F095F808BD00BFC7
:102B4000C818002008B5202000F0BCFF402000F08D
:102B5000B9FF802000F0B6FF08BD000008B50248AC
:102B600001F01AFD08BD00BF1818002008B5024882
:102B700001F0C0FB08BD00BF6418002008B54FF489
:102B8000005000F09FFF08BD82B00A4B9A6942F0E6
:102B900001029A619A6902F001020092009ADA69D0
:102BA00042F08052DA61DB6903F080530193019BAC
:102BB00002B07047001002402DE9F04188B00023B8
:102BC000039304930593069307930268294B9A4253
:102BD00002D008B0BDE8F081044603F560439A696D
:102BE00042F480529A619A6902F480520192019AE9
:102BF0005A6942F400325A615B6903F4003302936C
:102C0000029B20230393022504954FF00308CDF87F
:102C100018800527079703A94FF0904000F068FE41
:102C20008026039604950595CDF81880079703A98B
:102C30004FF0904000F05CFE0F48104B03601023F3
:102C4000436000238360C660036143618361C361A5
:102C500000F082FF58B9084B63655C6200221146A0
:102C6000232001F06DF8232001F09EF8B1E7FFF773
:102C7000E9FDF0E700300140C818002030000240B4
:102C800000B583B00368134A934205D0124A9342B9
:102C900015D003B05DF804FB104B9A6942F4006252
:102CA0009A619B6903F400630093009B0022114624
:102CB000192001F045F8192001F076F8E9E7074BF3
:102CC000DA6942F00202DA61DB6903F00203019380
:102CD000019BDEE7002C0140000400400010024090
:102CE00010B504460E4B18784FF47A73B3FBF0F32B
:102CF0000C4A1068B0FBF3F001F076F868B90F2CBD
:102D000001D901200AE0002221464FF0FF3001F0F6
:102D100017F8054B1C60002000E0012010BD00BF2B
:102D2000CC000020D4000020D000002008B5074AC5
:102D3000136843F010031360032000F0EFFF00203E
:102D4000FFF7CEFFFFF720FF002008BD0020024064
:102D5000034A1168034B1B780B441360704700BF94
:102D60000C190020CC000020014B1868704700BFF0
:102D70000C19002038B50446FFF7F6FF0546B4F1FC
:102D8000FF3F02D0044B1B781C44FFF7EDFF401BB4
:102D9000A042FAD338BD00BFCC000020002800F0CC
:102DA000038370B582B00446036813F0010F3DD071
:102DB000C74B5B6803F00C03042B20D0C44B5B684B
:102DC00003F00C03082B13D06368B3F5803F6AD07F
:102DD000002B40F08D8003F1804303F504331A6823
:102DE00022F480321A601A6822F480221A605FE0AE
:102DF000B74B5B6803F4C033B3F5803FE4D14FF4C5
:102E0000003393FAA3F3B24B19684FF4003393FAEB
:102E1000A3F3B3FA83F303F01F03012202FA03F3CF
:102E20000B4203D06368002B00F0C082236813F0CC
:102E3000020F00F0C080A64B5B6813F00C0F00F08F
:102E40009780A34B5B6803F00C03082B00F088808D
:102E5000E368002B00F0ED80012292FAA2F3B3FAAE
:102E600083F303F1845303F584139B001A60FFF787
:102E70007BFF0546022393FAA3F3954B19680223BF
:102E800093FAA3F3B3FA83F303F01F03012202FAC8
:102E900003F30B4240F0BE80FFF766FF401B0228A1
:102EA000E8D903208BE28A4A136843F48033136025
:102EB0006368002B36D0FFF757FF05464FF4003309
:102EC00093FAA3F3824B19684FF4003393FAA3F3F8
:102ED000B3FA83F303F01F03012202FA03F319424A
:102EE000A4D1FFF741FF401B6428E7D9032066E225
:102EF000B3F5A02F09D0764B1A6822F480321A60FD
:102F00001A6822F480221A60D2E703F18043A3F505
:102F10003C331A6842F480221A601A6842F4803204
:102F20001A60C5E7FFF720FF05464FF4003393FA18
:102F3000A3F3674B19684FF4003393FAA3F3B3FA82
:102F400083F303F01F03012202FA03F319423FF453
:102F50006DAFFFF709FF401B6428E6D903202EE27E
:102F60005B4B5B6803F4C033B3F5004F7FF470AF85
:102F7000022393FAA3F3564B1968022393FAA3F39F
:102F8000B3FA83F303F01F03012202FA03F3194299
:102F900003D0E368934240F00B824D48036823F06E
:102FA000F8032169F82292FAA2F2B2FA82F201FA47
:102FB00002F213430360236813F0080F00F08C80C3
:102FC0006369002B5CD0012191FAA1F2B2FA82F27E
:102FD000404B13449B001960FFF7C6FE05460223D1
:102FE00093FAA3F293FAA3F293FAA3F2384A516A3E
:102FF00093FAA3F3B3FA83F303F01F03012202FA57
:1030000003F30B4268D1FFF7AFFE401B0228E6D95D
:103010000320D4E12E48036823F0F8032169F82245
:1030200092FAA2F2B2FA82F201FA02F213430360B8
:10303000C1E7012393FAA3F3B3FA83F303F18453B3
:1030400003F584139B0000221A60FFF78DFE0546EE
:10305000022393FAA3F31E4B1968022393FAA3F3F6
:10306000B3FA83F303F01F03012202FA03F31942B8
:10307000A1D0FFF779FE401B0228E9D903209EE189
:10308000012292FAA2F2B2FA82F2124B13449B008E
:1030900000221A60FFF768FE0546022393FAA3F2A6
:1030A00093FAA3F293FAA3F2094A516A93FAA3F3AB
:1030B000B3FA83F303F01F03012202FA03F30B4276
:1030C0000AD0FFF751FE401B0228E6D9032076E123
:1030D0000010024020819010236813F0040F00F0CC
:1030E000A980BB4BDB6913F0805F0BD1B84BDA6969
:1030F00042F08052DA61DB6903F080530193019B57
:10310000012500E00025B34B1B6813F4807F10D02D
:10311000A368012B21D063BB03F1804303F5043383
:103120001A6A22F001021A621A6A22F004021A6272
:1031300018E0A84A136843F480731360FFF714FE85
:103140000646A44B1B6813F4807FE1D1FFF70CFE09
:10315000801B6428F5D9032031E19D4A136A43F0AE
:1031600001031362A368002B3CD0FFF7FDFD064668
:103170002EE0052B09D0964B1A6A22F001021A6242
:103180001A6A22F004021A62ECE7914B1A6A42F0C2
:1031900004021A621A6A42F001021A62E2E702238A
:1031A00093FAA3F38A4B596A022393FAA3F3B3FA6F
:1031B00083F303F01F03012202FA03F3194238D10B
:1031C000FFF7D2FD801B41F28833984200F2F28073
:1031D000022393FAA3F293FAA3F3002BDFD07C4BE4
:1031E000196AE1E7FFF7C0FD064618E0022393FAEB
:1031F000A3F3774B596A022393FAA3F3B3FA83F349
:1032000003F01F03012202FA03F3194211D0FFF762
:10321000ABFD801B41F28833984200F2CD8002233F
:1032200093FAA3F293FAA3F3002BDFD0684B196A49
:10323000E1E7B5BBA369002B00F0C080644A526887
:1032400002F00C02082A00F09980022B2FD04FF0D8
:10325000807393FAA3F3B3FA83F303F1845303F572
:1032600084139B0000221A60FFF77EFD04464FF096
:10327000007393FAA3F3564B19684FF0007393FA57
:10328000A3F3B3FA83F303F01F03012202FA03F35B
:10329000194271D0FFF768FD001B0228E7D903200F
:1032A0008DE04B4AD36923F08053D361C2E74FF0DE
:1032B000807393FAA3F3B3FA83F303F1845303F512
:1032C00084139B0000221A60FFF74EFD05464FF065
:1032D000007393FAA3F33E4B19684FF0007393FA0F
:1032E000A3F3B3FA83F303F01F03012202FA03F3FB
:1032F000194206D0FFF738FD401B0228E7D903200A
:103300005DE0334AD36A23F00F03616A0B43D36253
:10331000536823F47613216AE06901430B43536039
:103320004FF0807393FAA3F3B3FA83F303F184535A
:1033300003F584139B0001221A60FFF715FD044674
:103340004FF0007393FAA3F3214B19684FF0007309
:1033500093FAA3F3B3FA83F303F01F03012202FAF3
:1033600003F3194206D1FFF7FFFC001B0228E7D93F
:10337000032024E0002022E0002020E0012B20D0C8
:10338000134A5368D06A03F4C031E26991421AD1FA
:1033900003F47013226A934217D100F00F00636A9E
:1033A000984219D100200AE001207047012006E070
:1033B000012004E0032002E0032000E0002002B02E
:1033C00070BD0120FBE70120F9E70120F7E700BF0E
:1033D00000100240007000400120F0E7174B5B68CE
:1033E00003F00C02082A01D01548704703F470114D
:1033F0004FF4701292FAA2F2B2FA82F221FA02F2B9
:103400001049885C0D4AD26A02F00F020F2191FA2E
:10341000A1F1B1FA81F1CA400B498A5C13F4803FF3
:1034200005D0074BB3FBF2F300FB03F07047044BEE
:10343000B3FBF2F300FB03F0704700BF0010024043
:1034400000127A00A84C0008B84C0008002800F0D0
:10345000BE8070B50446624B1B6803F007038B42C5
:103460000BD25F4A136823F007030B431360136802
:1034700003F007038B4240F0AC80236813F0020F87
:1034800006D0584A536823F0F003A0680343536002
:103490000D46236813F0010F5AD06368012B2DD01D
:1034A000022B40D0022292FAA2F24E4A1068022267
:1034B00092FAA2F2B2FA82F202F01F02012101FA9C
:1034C00002F2104200F0878046494A6822F0030267
:1034D00013434B60FFF748FC0646424B5B6803F022
:1034E0000C036268B3EB820F32D0FFF73DFC801B08
:1034F00041F288339842F0D9032067E04FF400325C
:1035000092FAA2F2374A10684FF4003292FAA2F20D
:10351000B2FA82F202F01F02012101FA02F2024223
:10352000D2D1012052E04FF0007292FAA2F22D4A5D
:1035300010684FF0007292FAA2F2B2FA82F202F030
:103540001F02012101FA02F21042BDD101203DE02B
:10355000234B1B6803F00703AB420AD9204A1368C8
:1035600023F007032B431360136803F00703AB42F8
:1035700033D1236813F0040F06D01A4A536823F49A
:10358000E063E1680B435360236813F0080F07D032
:10359000144A536823F46053216943EAC10353601A
:1035A000FFF71CFF0F4B5B6803F0F003F02292FA69
:1035B000A2F2B2FA82F2D3400B4AD35CD8400B4B52
:1035C00018600B4B1868FFF78BFB002070BD0120C3
:1035D00070470120FAE70120F8E70120F6E700BF75
:1035E0000020024000100240C84C0008D400002017
:1035F000D0000020F0B583B00446036813F4803F88
:1036000048D0A14BDB6913F0805F40F022819E4BD4
:10361000DA6942F08052DA61DB6903F0805301938A
:10362000019B0125994B1B6813F4807F00F01381E7
:10363000954B1B6A13F4407322D0626802F4407207
:103640009A421DD09048016A21F440764FF48033AD
:1036500093FAA3F2B2FA82F28D4F3A4492004FF0FD
:10366000010CC2F800C093FAA3F3B3FA83F33B440E
:103670009B0000221A60066211F0010F40F00081E9
:10368000814A136A23F4407361680B431362002D6F
:1036900040F02381236813F0010F06D07A4A136BA0
:1036A00023F00303A1680B431363236813F0020F95
:1036B00006D0754A136B23F44033E1680B43136360
:1036C000236813F0040F06D06F4A136B23F44023D2
:1036D00021690B431363236813F0200F06D06A4A55
:1036E000136B23F01003E1690B431363236813F496
:1036F000003F06D0644A536823F48003616D0B4396
:103700005360236813F0400F06D05F4A136B23F019
:103710002003216A0B431363236813F4802F06D020
:10372000594A136B23F04003616A0B431363236808
:1037300013F0080F06D0544A136B23F44013616949
:103740000B431363236813F0100F06D04E4A136B1C
:1037500023F44003A1690B431363236813F4007F30
:1037600006D0494A536823F40003216B0B4353608E
:10377000236813F0800F06D0434AD36A23F4F8730A
:10378000A16A0B43D362236813F4807F06D03E4ABC
:10379000D36A23F47853E16A0B43D362236813F4AA
:1037A000805F06D0384A136B23F48073616B0B4340
:1037B0001363236813F4005F06D0334A136B23F4BA
:1037C0000073216C0B431363236813F4801F06D02E
:1037D0002D4A136B23F08073A16B0B431363236893
:1037E00013F4001F06D0284A136B23F00073E16B1B
:1037F0000B431363236813F4800F06D0224A136B24
:1038000023F48063616C0B431363236813F4000F8C
:1038100006D01D4A136B23F40063A16C0B431363A2
:10382000236813F0807F06D0174A136B23F40053EC
:10383000E16C0B431363236813F0007F54D0124AEA
:10384000136B23F40043216D0B431363002003B07B
:10385000F0BD0025E6E60D4A136843F4807313605B
:10386000FFF782FA0646094B1B6813F4807F7FF44A
:10387000DFAEFFF779FA801B6428F4D90320E6E76E
:10388000FFF772FA06461BE000100240007000408D
:1038900000819010154B196A022393FAA3F3B3FA2F
:1038A00083F303F01F03012202FA03F30B427FF4B8
:1038B000E7AEFFF759FA801B41F28833984211D8DE
:1038C000022393FAA3F293FAA3F3002BE2D102238B
:1038D00093FAA3F3054B596ADEE7D36923F08053CB
:1038E000D361D7E60320B2E70020B0E70010024022
:1038F000F0B482B000235BE086685F000325BD4022
:1039000026EA0506CD68BD4035438560466826EA4F
:1039100004064D68C5F300149C403443446055E0F0
:10392000DD08083550F8257003F00704A6000F24C1
:10393000B44027EA04070C69B4403C4340F82540F2
:1039400058E0062400E00024B4403C430235524EC7
:1039500046F82540514CA568D44304EA05064F6853
:1039600017F4801F01D042EA05064C4DAE60ED68A9
:1039700004EA05064F6817F4001F01D042EA050665
:10398000464DEE606D6804EA05064F6817F4003F87
:1039900001D042EA0506414D6E602D682C404E680C
:1039A00016F4803F01D042EA05043C4A146001331A
:1039B0000A6832FA03F46BD001249C402240F6D00E
:1039C0004D6805F00305013D012D95D94C6804F0C3
:1039D0000304032C09D0C5685E000324B44025EA23
:1039E00004058C68B4402C43C4604C6804F00304A4
:1039F000022C95D005685E000324B44025EA040536
:103A00004C6804F00304B4402C4304604C6814F484
:103A1000403FCCD0224CA56945F00105A561A469C1
:103A200004F001040194019C9D08AE1C1A4C54F84A
:103A3000267003F00304A6000F24B44027EA04070D
:103A4000B0F1904F3FF47FAF164CA04216D004F572
:103A50008064A04214D004F58064A04212D004F522
:103A60008064A04210D004F58064A0420ED004F51A
:103A70008064A0423FF465AF072465E7012463E753
:103A8000022461E703245FE704245DE705245BE784
:103A900002B0F0BC704700BF0000014000040140CC
:103AA00000100240000400480AB181617047816241
:103AB0007047436901EA030221EA030141EA024136
:103AC0008161704708B5054B5B69034200D108BDB1
:103AD000024B5861FEF724FEF9E700BF00040140E5
:103AE00070B4066CC56B0124B4406C6004686360FC
:103AF0004368102B05D0036899600368DA6070BCD6
:103B0000704703689A600368D960F8E702680C4B55
:103B10009A420AD80B4B13440B4AA2FB03231B09FE
:103B20009B000364094BC3637047094B1344064A67
:103B3000A2FB03231B099B000364064BC36370476E
:103B400007040240F8FFFDBFCDCCCCCC0000024002
:103B5000F8FBFDBF0004024020B310B50446022369
:103B600080F8213001680A6822F47F5222F0300286
:103B7000436880680343E068034320690343606946
:103B80000343A0690343E069034313430B602046EA
:103B9000FFF7BCFF0020A063012384F8213084F8E4
:103BA000200010BD0120704738B590F82040012C4E
:103BB00032D0012480F8204090F82140012C04D01C
:103BC000002380F82030022038BD0446022084F80B
:103BD00021000020A0632568286820F001002860EB
:103BE0002046FFF77DFFE36A5BB12268136843F06C
:103BF0000E0313602268136843F001031360002072
:103C0000E2E72268136843F00A031360226813682E
:103C100023F004031360EDE70220D5E708B590F820
:103C20002130022B03D004238363012008BD0268E6
:103C3000136823F00E0313600268136823F0010376
:103C40001360036CC16B012202FA03F34B6080F82E
:103C50002120002380F82030436B13B198470020C7
:103C6000E4E70020E2E738B5C36B1A68046825680A
:103C7000016C04238B40134213D015F0040F10D0B5
:103C8000236813F0200F03D1236823F0040323607B
:103C9000016CC26B04238B405360C36A03B1984725
:103CA00038BD02238B4013421AD015F0020F17D0F3
:103CB000236813F0200F06D1236823F00A03236042
:103CC000012380F82130016CC26B02238B405360CA
:103CD000002380F82030836A002BE1D09847DFE78B
:103CE000082303FA01F11142DAD015F0080FD7D0FA
:103CF000236823F00E032360026CC16B012303FAD7
:103D000002F24A60836380F82130002380F820307B
:103D1000036B002BC4D09847C2E70000074AD36862
:103D200023F4E0631B041B0C000200F4E060184362
:103D300040F0BF6040F40030D060704700ED00E01C
:103D400030B4174BDB68C3F30223C3F10704042C20
:103D500028BF04241D1D062D01D9033B00E00023CC
:103D60004FF0FF3505FA04F421EA0401994005FA01
:103D700003F322EA03031943002809DB0901C9B24E
:103D800000F1604000F5614080F8001330BC7047DE
:103D900000F00F000901C9B2024B1954F6E700BF49
:103DA00000ED00E014ED00E0002807DB00F01F024A
:103DB000400901239340024A42F82030704700BF77
:103DC00000E100E000280CDB00F01F0240090123A5
:103DD00093402030034A42F82030BFF34F8FBFF3A7
:103DE0006F8F704700E100E00138B0F1807F0AD2A8
:103DF000064B5860064AF02182F823100020986094
:103E000007221A6070470120704700BF10E000E0F1
:103E100000ED00E02DE9F04383B004460F4616465E
:103E20001D46FEF7A1FF0A9B181A00EB0508FEF7D6
:103E30009BFF81462A4B1B68C3F3CB3308FB03F37C
:103E4000019323689B6837EA03030CBF0123002317
:103E5000B34240D0B5F1FF3FF3D0FEF785FFA0EBB2
:103E6000090040450AD2B8F1000F07D0019A02B10B
:103E70004246019B013B01939046E2E7226853686A
:103E800023F0E00353606368B3F5827F0BD0A36A2D
:103E9000B3F5005F14D0012384F85D30002384F86B
:103EA0005C30032018E0A368B3F5004F02D0B3F5EF
:103EB000806FECD12268136823F040031360E6E7BB
:103EC0002268136823F4005313602268136843F4D4
:103ED00000531360DFE7002003B0BDE8F08300BFAC
:103EE000D40000202DE9F04782B006460C46154666
:103EF0001F4600238DF80330FEF736FF0A9B181A81
:103F000000EB0708FEF730FF8246D6F80090314BF1
:103F10001B6803EB8303C3EBC3031B0D08FB03F315
:103F2000019302E0B7F1FF3F11D133689B68234052
:103F3000AB424AD0B4F5C06FF4D1002DF2D199F85C
:103F40000C30DBB28DF803309DF80330EAE7FEF762
:103F50000BFFA0EB0A0040450AD2B8F1000F07D0D2
:103F6000019A02B14246019B013B01939046DCE776
:103F70003268536823F0E00353607368B3F5827FBF
:103F80000BD0B36AB3F5005F14D0012386F85D301F
:103F9000002386F85C30032018E0B368B3F5004FC7
:103FA00002D0B3F5806FECD13268136823F0400380
:103FB0001360E6E73268136823F400531360326835
:103FC000136843F400531360DFE7002002B0BDE83C
:103FD000F08700BFD400002070B582B004460D46C3
:103FE000164600920B4600224FF4C051FFF77AFFAD
:103FF000B8B900962B46002280212046FFF70AFF21
:10400000B8B900962B4600224FF4C0612046FFF756
:1040100069FF034650B1236E43F020032366032358
:1040200004E0236E43F0200323660323184602B006
:1040300070BD236E43F0200323660323F6E70028B8
:104040006FD010B50446436A33B94368B3F5827F35
:1040500005D00023C36102E0002303614361002314
:10406000A36294F85D30002B52D0022384F85D30B7
:104070002268136823F040031360E368B3F5E06F30
:104080004CD90022B3F5706F04D0B3F5E06F01D0C6
:104090000023A362636803F48273A16801F40441FE
:1040A0000B43216901F002010B43616901F0010139
:1040B0000B43A16901F400710B43E16901F0380180
:1040C0000B43216A01F080010B43A16A01F4005106
:1040D00020680B430360638B03F00403616A01F003
:1040E00010010B43616B01F008010B43E16801F41F
:1040F00070610B43216813434B602268D36923F43A
:104100000063D36100202066012384F85D3010BD78
:1041100084F85C302046FEF74FFDA6E74FF480524E
:10412000B0E701207047000038B590F85C30012BF3
:1041300000F086800446012380F85C3090F85D50E2
:10414000EDB29D4276D1002975D0002A73D00323A9
:1041500080F85D300023036681638287C287036431
:104160000365C364A0F84430A0F846308368B3F513
:10417000004F38D0636D334ADA62636D324A9A6217
:10418000636D324A1A63636D00225A632268536872
:1041900023F480435360E368B3F5E06F04D8636DA4
:1041A0005B69B3F5806F29D02268E38F0C32A16B75
:1041B000606DFFF7F9FC0146002836D123681A68C4
:1041C00012F0400F03D11A6842F040021A602268D0
:1041D000536843F0200353602268536843F002039E
:1041E00053600D4627E00268136823F04003136014
:1041F0000268136843F480431360BBE7E38F13F056
:10420000010F08D12268536823F480435360E38F81
:104210005B08E387C8E72268536843F48043536030
:10422000E38F5B080133E387BEE7236E43F010039F
:10423000236600E00225002384F85C30284638BD60
:104240000225FBE75542000883420008614200084E
:104250007047704708B5406AFFF7FBFF08BD70471D
:1042600008B5406A0268536823F003035360036E85
:1042700043F010030366012380F85D30FFF7EFFF82
:1042800008BD30B583B00546446AFEF76DFD2B6866
:104290001B6813F0200F23D12268536823F02003FA
:1042A00053602268536823F002035360024664217E
:1042B0002046FFF791FE18B1236E43F020032366DA
:1042C000A36833B901932368DA6801929B6801936C
:1042D000019B0023E387012384F85D30236E23B91B
:1042E0002046FFF7B5FF03B030BD2046FFF7B7FF0C
:1042F000F9E7000030B585B004460268506893685D
:10430000C3F3801129B913F0010F02D010F0400F50
:1043100067D113F0020F02D010F0800F65D1C3F304
:1043200040151DB911B913F4807F61D010F0200F32
:104330005ED079B194F85D10C9B203295AD0216ECC
:1043400041F00401216600210091D168009191683B
:104350000091009965B1216E41F0010121660021B3
:10436000029191680291116821F040011160029A56
:1043700013F4807F09D0236E43F0080323660023E3
:10438000039323689B680393039B236E002B2FD01A
:104390002268536823F0E0035360012384F85D3002
:1043A00010F0030F2ED02268536823F003035360EC
:1043B000A36D4BB1154A5A63A06DFFF72FFC18B1DE
:1043C000236E43F040032366636D8BB10F4A5A633B
:1043D000606DFFF723FC58B1236E43F04003236662
:1043E00006E0E36C2046984702E0236D204698479C
:1043F00005B030BD00230193D36801939368019306
:10440000019BF5E72046FFF72AFFF1E7114400087A
:1044100008B5406A0023A0F84630C387FFF71FFFA6
:1044200008BD10B4036A046A24F0010404628469BC
:1044300024F0F00444EA021223F00A030B438261E1
:1044400003625DF8044B704710B4036A23F0100355
:1044500003628469036A24F4704444EA023223F05C
:10446000A00343EA0113826103625DF8044B7047C5
:10447000836823F07003194341F00701816070479E
:1044800090F83D30DBB2012B31D1022380F83D3072
:1044900003681A4A93421CD0B3F1804F19D0A2F599
:1044A0009432934215D002F58062934211D002F506
:1044B000963293420DD002F54062934209D002F544
:1044C0008052934205D01A6842F001021A6000201F
:1044D000704799680A4A0A40062A0AD0B2F5803F16
:1044E00009D01A6842F001021A60002070470120CA
:1044F0007047002070470020704700BF002C01402B
:104500000700010090F83D30DBB2012B36D10223C9
:1045100080F83D300268D36843F00103D36003683C
:10452000194A93421CD0B3F1804F19D0A2F59432AE
:10453000934215D002F58062934211D002F5963273
:1045400093420DD002F54062934209D002F58052A9
:10455000934205D01A6842F001021A6000207047A9
:1045600099680A4A0A40062A0AD0B2F5803F09D063
:104570001A6842F001021A6000207047012070475B
:104580000020704700207047002C01400700010008
:10459000704770477047704710B5044603681A6942
:1045A00012F0020F11D0DA6812F0020F0DD06FF086
:1045B00002021A610123037703689B6913F0030F5A
:1045C00079D0FFF7E6FF0023237723681A6912F0FA
:1045D000040F12D0DA6812F0040F0ED06FF004024C
:1045E0001A610223237723689B6913F4407F68D004
:1045F0002046FFF7CEFF0023237723681A6912F0C5
:10460000080F12D0DA6812F0080F0ED06FF008020F
:104610001A61042323772368DB6913F0030F57D053
:104620002046FFF7B6FF0023237723681A6912F0AC
:10463000100F12D0DA6812F0100F0ED06FF01002C7
:104640001A61082323772368DB6913F4407F46D07F
:104650002046FFF79EFF0023237723681A6912F094
:10466000010F03D0DA6812F0010F3FD123681A69F5
:1046700012F0800F03D0DA6812F0800F3DD123686A
:104680001A6912F4807F03D0DA6812F0800F3BD1F0
:1046900023681A6912F0400F03D0DA6812F0400F55
:1046A00039D123681A6912F0200F03D0DA6812F0AA
:1046B000200F37D110BDFFF76BFF2046FFF76AFFD1
:1046C00081E72046FFF764FF2046FFF763FF92E78C
:1046D0002046FFF75DFF2046FFF75CFFA3E720467B
:1046E000FFF756FF2046FFF755FFB4E76FF00102D2
:1046F0001A612046FEF734F8B8E76FF080021A61BD
:10470000204600F08CF9BAE76FF480721A612046F7
:1047100000F086F9BCE76FF040021A612046FFF70F
:104720003AFFBEE76FF020021A61204600F076F9EA
:10473000C0E700000368324A904212D0B0F1804FC7
:104740000FD0A2F5943290420BD002F580629042D5
:1047500007D002F59632904203D002F5E052904223
:1047600003D123F070034A681343254A90421ED0B8
:10477000B0F1804F1BD0A2F59432904217D002F5D1
:104780008062904213D002F5963290420FD002F52B
:10479000406290420BD002F58062904207D002F551
:1047A0008062904203D002F50062904203D123F46C
:1047B0004073CA68134323F080034A6913430360BC
:1047C0008B68C3620B6883620D4B984213D003F56C
:1047D000006398420FD003F5406398420BD003F575
:1047E0008063984207D003F58063984203D003F5B5
:1047F0000063984201D10B69036301234361704751
:10480000002C014060B310B5044690F83D3013B35E
:10481000022384F83D30214651F8040BFFF78AFF4C
:10482000012384F8483084F83E3084F83F3084F81F
:10483000403084F8413084F8423084F8433084F8C2
:10484000443084F8453084F8463084F8473084F8A2
:104850003D30002010BD80F83C30FEF711FAD7E75C
:104860000120704710B4846824F47F4442EA032393
:104870000B43234383605DF8044B704790F83C3052
:10488000012B77D010B50446012380F83C30022379
:1048900080F83D3002689068374B034093600B68A6
:1048A000402B54D011D9702B39D023D8502B43D062
:1048B000602B1DD1CA6849682068FFF7C5FD6021DB
:1048C0002068FFF7D5FD00200BE0102B4AD005D95A
:1048D000202B47D0302B45D0012002E0002B41D0C7
:1048E0000120012384F83D30002384F83C3010BDC2
:1048F0000120F6E7B3F5805F3AD0B3F5005F0CD145
:10490000CB684A6889682068FFF7ACFF2268936823
:1049100043F4804393600020E3E70120E1E7CB68A4
:104920004A6889682068FFF79DFF2268936843F012
:10493000770393600020D4E7CA6849682068FFF7CE
:1049400070FD50212068FFF793FD0020C9E7CA6879
:1049500049682068FFF765FD40212068FFF788FD62
:104960000020BEE719462068FFF782FD0020B8E767
:104970000020B6E7022070478800FEFF90F83C3028
:10498000012B46D030B4012380F83C30022380F85C
:104990003D300268536895681F4CA24207D004F569
:1049A0000064A24203D004F5E054A24203D123F4F0
:1049B00070034C68234323F070030C682343536057
:1049C0000368154A934216D0B3F1804F13D0A2F575
:1049D000943293420FD002F5806293420BD002F5DD
:1049E0009632934207D002F54062934203D002F51B
:1049F0008052934204D125F080058A6815439D605A
:104A0000012380F83D30002380F83C30184630BC4C
:104A100070470220704700BF002C0140704770476C
:104A200070470000034AD2F8883043F47003C2F89C
:104A30008830704700ED00E0DFF834D0FFF7F2FF78
:104A40000C480D490D4A002302E0D458C4500433E9
:104A5000C4188C42F9D30A4A0A4C002301E01360BF
:104A60000432A242FBD3FBF7DFFBFDF7DDFFFEE7DD
:104A70000000012000000020D8000020A84D000800
:104A8000D800002014190020FEE70000F8B500BF90
:104A9000F8BC08BC9E467047F8B500BFF8BC08BC1F
:044AA0009E46704777
:104AA40004000020000000000000000000000000DE
:104AB40000000000000000000000000000000000F2
:104AC40000000000000000000000000000000000E2
:104AD40000000000000000000000000000000000D2
:104AE40000000000000000000000000000000000C2
:104AF40000000000000000000000000000000000B2
:104B04000000000000000000018019981BD80FF07D
:104B14000FF03FFC3FFC0FF00FF01BD819980180F9
:104B240000000000000003C007E004200420066029
:104B340007E003C003C006600C300C300FF007E040
:104B440000000000000007F007F006000600060061
:104B540007C003E00070003000300C700FE007C0A5
:104B64000000000000000180038007800F801F8088
:104B74000F80078003800180018001800FF00FF017
:104B8400000000000000006000E001E00360066037
:104B94000E600FF00FF000600060006000600060C5
:104BA40000000000FFFFFFFFC927D24BE493C92791
:104BB400D24BE493C927D24BE493C927D24BE49355
:104BC400FFFFFFFF00000000038007800F800D80BF
:104BD4000980018001800180018001800FF00FF0C5
:104BE40000000000FFFFF08FF12FF24F849389251E
:104BF4009249A493C9259249A491C921F24FF48FF3
:104C0400F90FFFFF00000FF80FF800380070006084
:104C140000C000C0018001800300030006000600FC
:104C240000000000000007C00FE01C60180018001E
:104C34001FC01FE01C60183018300C600FC00780C4
:104C440000000000000003C007E00E700C700CE0D0
:104C540001C001C0007000300C300C700FE003C0C4
:104C640000000000000003E007F00E700C300C3070
:104C74000070006000E001C003800F000FF00FF02F
:104C84000000000000000000000000000000000020
:104C94000000000000000000000000000000000010
:104CA4000000000002030405060708090A0B0C0DA6
:104CB4000E0F10100102030405060708090A0B0C65
:104CC4000D0E0F100000000000000000010203049C
:104CD400060708095245454E54206D616C6C6F639C
:104CE4002073756363656564656400002E2E2F2E42
:104CF4002E2F2E2E2F2E2E2F2E2E2F2E2E2F2E2ECB
:104D04002F2E2E2F6E65776C69622F6C6962632F6C
:104D14007374646C69622F72616E642E63000000A8
:104D24002C2066756E6374696F6E3A200000000073
:104D3400617373657274696F6E2022257322206615
:104D440061696C65643A2066696C6520222573226A
:104D54002C206C696E65202564257325730A000078
:104D6400232D302B20000000686C4C0065666745DD
:104D74004647000030313233343536373839414212
:104D84004344454600000000303132333435363771
:0C4D94003839616263646566000000004D
:044DA00009020008FC
:044DA400E101000821
:104DA8000400002000000000E84A0008C84A000883
:104DB800A84A0008000000000000000000000000F1
:104DC80000000000000000000000000000000000DB
:104DD80000000000000000000000000000000000CB
:104DE80000000000000000000000000000000000BB
:104DF80000000000000000000000000000000000AB
:104E08000000000000000000000080001700000003
:104E18006D2100080000000000004000170000009D
:104E28005D210008000000000000200017000000BD
:104E38007B210008000000000000080009000000B5
:104E48008B21000800000000000010000A0000008C
:104E5800992100080000000000000400080000007C
:104E6800EF22000854010020B800FA0001000000F9
:084E78001000000000127A0096
:0400000508004A396C
:00000001FF
