:020000040800F2
:10000000000001208D260008D5070008D70700084A
:10001000D9070008DB070008DD0700080000000022
:10002000000000000000000000000000DF070008E2
:10003000E107000800000000E3070008E5070008EA
:10004000DD260008DD260008DD260008DD26000884
:10005000DD260008DD260008DD260008DD26000874
:10006000DD260008DD260008DD260008DD26000864
:10007000DD260008ED070008DD260008DD26000863
:10008000DD260008DD260008DD260008DD26000844
:10009000DD260008DD260008DD260008DD26000834
:1000A000DD260008FD070008DD260008DD26000823
:1000B000DD260008DD260008DD260008DD26000814
:1000C000DD260008DD260008DD2600080D080008F2
:1000D000DD260008DD260008DD260008DD260008F4
:1000E000DD260008DD260008DD260008DD260008E4
:1000F000DD260008DD260008DD260008DD260008D4
:10010000DD2600080000000000000000DD260008D9
:10011000DD260008DD260008DD260008DD260008B3
:10012000DD260008DD260008DD260008DD260008A3
:10013000DD260008DD2600080000000000000000A9
:10014000DD260008DD260008DD260008000000008E
:10015000000000000000000000000000000000009F
:10016000DD260008DD260008DD260008DD26000863
:10017000DD260008DD260008DD260008DD26000853
:10018000DD260008DD260008000000000000000059
:04019000DD26000860
:100194000348044B834202D0034B03B11847704712
:1001A4008016002080160020000000000548064943
:1001B400091A891001EBD171491002D0034B03B124
:1001C40018477047801600208016002000000000A9
:1001D40010B5064C237843B9FFF7DAFF044B13B18B
:1001E4000448AFF300800123237010BD8016002063
:1001F40000000000E026000808B5044B1BB10449C8
:100204000448AFF30080BDE80840CFE700000000D9
:1002140084160020E026000870B50D4E0D4D761BA7
:10022400B61006D00024013455F8043B9847A64282
:10023400F9D1094E094D761B02F050FAB61006D0DA
:100244000024013455F8043B9847A642F9D170BD07
:1002540028270008282700082C270008282700083A
:10026400F0B4860746D0541E002A3CD0CAB20346D6
:1002740002E014F1FF3436D303F8012B9D07F8D1C3
:10028400032C29D9CDB245EA05250F2C45EA0545AD
:1002940033D9A4F11006360903F1200707EB06173A
:1002A40003F1100242E9045542E902551032BA4200
:1002B400F8D1721C14F00C0F03EB021204F00F06B9
:1002C40013D0331F23F003030433134442F8045BB5
:1002D4009342FBD106F003042CB1C9B21C4403F8C9
:1002E400011B9C42FBD1F0BC704734461346002CE2
:1002F400F3D1F8E714460346C2E71A462646E0E778
:100304002DE9F0438DB000240794089409940A94CD
:100314000B94474B5A6942F400225A615A6902F419
:1003240000220192019A5A6942F480025A615A6980
:1003340002F480020292029A5A6942F400325A612B
:100344005A6902F400320392039A5A6942F48022F1
:100354005A615A6902F480220492049A5A6942F456
:1003640080125A615A6902F480120592059A5A69F8
:1003740042F400025A615B6903F400030693069B8E
:10038400224602214FF0904001F0D6F9DFF8B090F8
:10039400224644F28101484601F0CEF9254D224619
:1003A4004021284601F0C8F94FF4005307934FF455
:1003B40088130893099407A91F4801F0E1F84FF046
:1003C4000208CDF81C8001260896099403270A9791
:1003D40007A94FF0904001F0D3F844F2810307934A
:1003E400089609940A9407A9484601F0C9F84FF4FD
:1003F40040730793CDF8208009940A9707230B9341
:1004040007A90E4801F0BCF8402307930896099405
:100414000A9407A9284601F0B3F8802307930894A7
:10042400099407A9284601F0ABF80DB0BDE8F083A4
:10043400001002400018004800080048000C004862
:100444000004004800B583B00A4B5A6942F0010227
:100454005A615B6903F001030193019B0022114679
:100464000D2001F0A7FA0D2001F0D8FA03B05DF8D1
:1004740004FB00BF00100240034B1A6800235362C0
:10048400536A8342FCD37047A016002008B5026863
:100494002F4B9A4200D008BD002202214FF0904019
:1004A40001F04AF92B4B1A8840F239139A4221D0B1
:1004B4000420FFF7E1FF012202214FF0904001F0F8
:1004C4003BF90720FFF7D8FF224B1B88283B03EB9F
:1004D4004301C3EBC101204A11449BB2F92B2CD92F
:1004E4001C4B1B8840F2391293422DD00133194A18
:1004F4001380D0E71C20FFF7BFFF012202214FF039
:10050400904001F019F90420FFF7B6FF0022022100
:100514004FF0904001F010F91C20FFF7ADFF0122CD
:1005240002214FF0904001F007F90320FFF7A4FFE8
:100534000A4B1B6800225A62BAE71722084801F0E6
:100544001BFC0028CCD0FEE7024B00221A80A2E755
:10055400002C01409C16002000000020EC16002016
:10056400381700200020F92821D870B40BE000EBE4
:100574004003C0EBC30313330D4A0021D1540130AF
:1005840080B2F92811D80022092AF0D800EB4003E0
:10059400C0EBC3039C1806490D5D13339B1ACE5C54
:1005A4000E55CD54013292B2EEE770BC70477047DD
:1005B4000000002008B572B64FF4FA7000F022FA79
:1005C400064C0121204601F0BCF84FF4FA7000F00B
:1005D40019FA0121204601F0B4F8EDE700040048BF
:1005E40008B51148114B03604FF4827343604FF414
:1005F400004383604FF4E063C360002303614361FD
:100604004FF4007282611822C26180220262436246
:1006140083620722C2620363436301F038FB00B9BB
:1006240008BDFFF7C7FF00BF3817002000300140A6
:1006340000B589B0002304930593069307930193AF
:10064400029303931448154A026040F6FF02426085
:1006540083600122C26003614361836101F0FAFE99
:1006640098B94FF48053049304A90B4801F02EFF6A
:1006740068B9002301930293039301A9064801F08A
:10068400A5FF30B909B05DF804FBFFF793FFFFF74E
:1006940091FFFFF78FFF00BFEC160020002C0140F4
:1006A40000B589B00023049305930693079301933F
:1006B400029303931348144A026047224260836002
:1006C4004FF6FF72C2600361836101F0C3FE90B90B
:1006D4004FF48053049304A90A4801F0F7FE60B96B
:1006E40000230193039301A9064801F06FFF30B979
:1006F40009B05DF804FBFFF75DFFFFF75BFFFFF751
:1007040059FF00BFA01600200004004000B5A7B0A8
:10071400202200211EA8FFF7A3FD002117911891A4
:1007240019911A911B91582201A8FFF799FD0123F1
:100734001C934FF4A0221D921F93022322934FF483
:10074400803323934FF4E01324931CA800F06EF934
:10075400C8B90F23179302211891002319934FF45A
:1007640080621A921B9317A800F0B8FC68B9094B71
:10077400019300230E93109301A800F083FD30B978
:1007840027B05DF804FBFFF715FFFFF713FFFFF732
:1007940011FF00BF0010200008B500F00FF9FFF7AB
:1007A400B5FFFFF7ADFDFFF74DFEFFF719FFFFF7AC
:1007B4003FFFFFF775FF044801F08AFC034801F08E
:1007C400C9FCFFF7CFFEFEE7A0160020EC160020C0
:1007D400FEE7FEE7FEE7FEE7FEE770477047704777
:1007E40008B500F0FDF808BD08B5024801F075F839
:1007F40008BD00BF9C17002008B5024801F0F4FCB6
:1008040008BD00BFEC16002008B5024801F09AFBB1
:1008140008BD00BF3817002082B00A4B9A6942F025
:1008240001029A619A6902F001020092009ADA695F
:1008340042F08052DA61DB6903F080530193019B3B
:1008440002B07047001002402DE9F04188B0002347
:10085400039304930593069307930268294B9A42E2
:1008640002D008B0BDE8F081044603F560439A69FC
:1008740042F480529A619A6902F480520192019A78
:100884005A6942F400325A615B6903F400330293FB
:10089400029B20230393022504954FF00308CDF80F
:1008A40018800527079703A94FF0904000F068FED1
:1008B4008026039604950595CDF81880079703A91B
:1008C4004FF0904000F05CFE0F48104B0360102383
:1008D400436000238360C660036143618361C36135
:1008E40000F074FF58B9084B63655C62002211463E
:1008F400232001F05FF8232001F090F8B1E7FFF71F
:1009040059FEF0E7003001409C17002030000240FF
:1009140000B583B00368134A934205D0124A934248
:1009240015D003B05DF804FB104B9A6942F40062E1
:100934009A619B6903F400630093009B00221146B3
:10094400192001F037F8192001F068F8E9E7074B9E
:10095400DA6942F00202DA61DB6903F0020301930F
:10096400019BDEE7002C014000040040001002401F
:1009740010B504460E4B18784FF47A73B3FBF0F3BA
:100984000C4A1068B0FBF3F001F056F868B90F2C6C
:1009940001D901200AE0002221464FF0FF3001F086
:1009A40009F8054B1C60002000E0012010BD00BFC9
:1009B400761600207C1600207816002008B5074A19
:1009C400136843F010031360032000F0E1FF0020DC
:1009D400FFF7CEFFFFF720FF002008BD00200240F4
:1009E400034A1168034B1B780B441360704700BF24
:1009F400E017002076160020014B1868704700BFEE
:100A0400E017002038B50446FFF7F6FF0546B4F1B9
:100A1400FF3F02D0044B1B781C44FFF7EDFF401B43
:100A2400A042FAD338BD00BF76160020002800F09B
:100A3400038370B582B00446036813F0010F3DD000
:100A4400C74B5B6803F00C03042B20D0C44B5B68DA
:100A540003F00C03082B13D06368B3F5803F6AD00E
:100A6400002B40F08D8003F1804303F504331A68B2
:100A740022F480321A601A6822F480221A605FE03D
:100A8400B74B5B6803F4C033B3F5803FE4D14FF454
:100A9400003393FAA3F3B24B19684FF4003393FA7B
:100AA400A3F3B3FA83F303F01F03012202FA03F35F
:100AB4000B4203D06368002B00F0C082236813F05C
:100AC400020F00F0C080A64B5B6813F00C0F00F01F
:100AD4009780A34B5B6803F00C03082B00F088801D
:100AE400E368002B00F0ED80012292FAA2F3B3FA3E
:100AF40083F303F1845303F584139B001A60FFF717
:100B04007BFF0546022393FAA3F3954B196802234E
:100B140093FAA3F3B3FA83F303F01F03012202FA57
:100B240003F30B4240F0BE80FFF766FF401B022830
:100B3400E8D903208BE28A4A136843F480331360B4
:100B44006368002B36D0FFF757FF05464FF4003398
:100B540093FAA3F3824B19684FF4003393FAA3F387
:100B6400B3FA83F303F01F03012202FA03F31942D9
:100B7400A4D1FFF741FF401B6428E7D9032066E2B4
:100B8400B3F5A02F09D0764B1A6822F480321A608C
:100B94001A6822F480221A60D2E703F18043A3F595
:100BA4003C331A6842F480221A601A6842F4803294
:100BB4001A60C5E7FFF720FF05464FF4003393FAA8
:100BC400A3F3674B19684FF4003393FAA3F3B3FA12
:100BD40083F303F01F03012202FA03F319423FF4E3
:100BE4006DAFFFF709FF401B6428E6D903202EE20E
:100BF4005B4B5B6803F4C033B3F5004F7FF470AF15
:100C0400022393FAA3F3564B1968022393FAA3F32E
:100C1400B3FA83F303F01F03012202FA03F3194228
:100C240003D0E368934240F00B824D48036823F0FD
:100C3400F8032169F82292FAA2F2B2FA82F201FAD6
:100C440002F213430360236813F0080F00F08C8052
:100C54006369002B5CD0012191FAA1F2B2FA82F20D
:100C6400404B13449B001960FFF7C6FE0546022360
:100C740093FAA3F293FAA3F293FAA3F2384A516ACD
:100C840093FAA3F3B3FA83F303F01F03012202FAE6
:100C940003F30B4268D1FFF7AFFE401B0228E6D9ED
:100CA4000320D4E12E48036823F0F8032169F822D5
:100CB40092FAA2F2B2FA82F201FA02F21343036048
:100CC400C1E7012393FAA3F3B3FA83F303F1845343
:100CD40003F584139B0000221A60FFF78DFE05467E
:100CE400022393FAA3F31E4B1968022393FAA3F386
:100CF400B3FA83F303F01F03012202FA03F3194248
:100D0400A1D0FFF779FE401B0228E9D903209EE118
:100D1400012292FAA2F2B2FA82F2124B13449B001D
:100D240000221A60FFF768FE0546022393FAA3F235
:100D340093FAA3F293FAA3F2094A516A93FAA3F33A
:100D4400B3FA83F303F01F03012202FA03F30B4205
:100D54000AD0FFF751FE401B0228E6D9032076E1B2
:100D64000010024020819010236813F0040F00F05B
:100D7400A980BB4BDB6913F0805F0BD1B84BDA69F8
:100D840042F08052DA61DB6903F080530193019BE6
:100D9400012500E00025B34B1B6813F4807F10D0BD
:100DA400A368012B21D063BB03F1804303F5043313
:100DB4001A6A22F001021A621A6A22F004021A6202
:100DC40018E0A84A136843F480731360FFF714FE15
:100DD4000646A44B1B6813F4807FE1D1FFF70CFE99
:100DE400801B6428F5D9032031E19D4A136A43F03E
:100DF40001031362A368002B3CD0FFF7FDFD0646F8
:100E04002EE0052B09D0964B1A6A22F001021A62D1
:100E14001A6A22F004021A62ECE7914B1A6A42F051
:100E240004021A621A6A42F001021A62E2E7022319
:100E340093FAA3F38A4B596A022393FAA3F3B3FAFE
:100E440083F303F01F03012202FA03F3194238D19A
:100E5400FFF7D2FD801B41F28833984200F2F28002
:100E6400022393FAA3F293FAA3F3002BDFD07C4B73
:100E7400196AE1E7FFF7C0FD064618E0022393FA7A
:100E8400A3F3774B596A022393FAA3F3B3FA83F3D8
:100E940003F01F03012202FA03F3194211D0FFF7F2
:100EA400ABFD801B41F28833984200F2CD800223CF
:100EB40093FAA3F293FAA3F3002BDFD0684B196AD9
:100EC400E1E7B5BBA369002B00F0C080644A526817
:100ED40002F00C02082A00F09980022B2FD04FF068
:100EE400807393FAA3F3B3FA83F303F1845303F502
:100EF40084139B0000221A60FFF77EFD04464FF026
:100F0400007393FAA3F3564B19684FF0007393FAE6
:100F1400A3F3B3FA83F303F01F03012202FA03F3EA
:100F2400194271D0FFF768FD001B0228E7D903209E
:100F34008DE04B4AD36923F08053D361C2E74FF06D
:100F4400807393FAA3F3B3FA83F303F1845303F5A1
:100F540084139B0000221A60FFF74EFD05464FF0F4
:100F6400007393FAA3F33E4B19684FF0007393FA9E
:100F7400A3F3B3FA83F303F01F03012202FA03F38A
:100F8400194206D0FFF738FD401B0228E7D9032099
:100F94005DE0334AD36A23F00F03616A0B43D362E3
:100FA400536823F47613216AE06901430B435360C9
:100FB4004FF0807393FAA3F3B3FA83F303F18453EA
:100FC40003F584139B0001221A60FFF715FD044604
:100FD4004FF0007393FAA3F3214B19684FF0007399
:100FE40093FAA3F3B3FA83F303F01F03012202FA83
:100FF40003F3194206D1FFF7FFFC001B0228E7D9CF
:10100400032024E0002022E0002020E0012B20D057
:10101400134A5368D06A03F4C031E26991421AD189
:1010240003F47013226A934217D100F00F00636A2D
:10103400984219D100200AE001207047012006E0FF
:10104400012004E0032002E0032000E0002002B0BD
:1010540070BD0120FBE70120F9E70120F7E700BF9D
:1010640000100240007000400120F0E7174B5B685D
:1010740003F00C02082A01D01548704703F47011DC
:101084004FF4701292FAA2F2B2FA82F221FA02F248
:101094001049885C0D4AD26A02F00F020F2191FABE
:1010A400A1F1B1FA81F1CA400B498A5C13F4803F83
:1010B40005D0074BB3FBF2F300FB03F07047044B7E
:1010C400B3FBF2F300FB03F0704700BF00100240D3
:1010D40000127A00F826000808270008002800F00B
:1010E400BE8070B50446624B1B6803F007038B4255
:1010F4000BD25F4A136823F007030B431360136892
:1011040003F007038B4240F0AC80236813F0020F16
:1011140006D0584A536823F0F003A0680343536091
:101124000D46236813F0010F5AD06368012B2DD0AC
:10113400022B40D0022292FAA2F24E4A10680222F6
:1011440092FAA2F2B2FA82F202F01F02012101FA2B
:1011540002F2104200F0878046494A6822F00302F6
:1011640013434B60FFF748FC0646424B5B6803F0B1
:101174000C036268B3EB820F32D0FFF73DFC801B97
:1011840041F288339842F0D9032067E04FF40032EB
:1011940092FAA2F2374A10684FF4003292FAA2F29D
:1011A400B2FA82F202F01F02012101FA02F20242B3
:1011B400D2D1012052E04FF0007292FAA2F22D4AED
:1011C40010684FF0007292FAA2F2B2FA82F202F0C0
:1011D4001F02012101FA02F21042BDD101203DE0BB
:1011E400234B1B6803F00703AB420AD9204A136858
:1011F40023F007032B431360136803F00703AB4288
:1012040033D1236813F0040F06D01A4A536823F429
:10121400E063E1680B435360236813F0080F07D0C1
:10122400144A536823F46053216943EAC1035360A9
:10123400FFF71CFF0F4B5B6803F0F003F02292FAF8
:10124400A2F2B2FA82F2D3400B4AD35CD8400B4BE1
:1012540018600B4B1868FFF78BFB002070BD012052
:1012640070470120FAE70120F8E70120F6E700BF04
:101274000020024000100240182700087C160020BD
:1012840078160020F0B583B00446036813F4803F59
:1012940048D0A14BDB6913F0805F40F022819E4B64
:1012A400DA6942F08052DA61DB6903F0805301931A
:1012B400019B0125994B1B6813F4807F00F0138177
:1012C400954B1B6A13F4407322D0626802F4407297
:1012D4009A421DD09048016A21F440764FF480333D
:1012E40093FAA3F2B2FA82F28D4F3A4492004FF08D
:1012F400010CC2F800C093FAA3F3B3FA83F33B449E
:101304009B0000221A60066211F0010F40F0008178
:10131400814A136A23F4407361680B431362002DFE
:1013240040F02381236813F0010F06D07A4A136B2F
:1013340023F00303A1680B431363236813F0020F24
:1013440006D0754A136B23F44033E1680B431363EF
:10135400236813F0040F06D06F4A136B23F4402361
:1013640021690B431363236813F0200F06D06A4AE4
:10137400136B23F01003E1690B431363236813F425
:10138400003F06D0644A536823F48003616D0B4325
:101394005360236813F0400F06D05F4A136B23F0A9
:1013A4002003216A0B431363236813F4802F06D0B0
:1013B400594A136B23F04003616A0B431363236898
:1013C40013F0080F06D0544A136B23F440136169D9
:1013D4000B431363236813F0100F06D04E4A136BAC
:1013E40023F44003A1690B431363236813F4007FC0
:1013F40006D0494A536823F40003216B0B4353601E
:10140400236813F0800F06D0434AD36A23F4F87399
:10141400A16A0B43D362236813F4807F06D03E4A4B
:10142400D36A23F47853E16A0B43D362236813F439
:10143400805F06D0384A136B23F48073616B0B43CF
:101444001363236813F4005F06D0334A136B23F449
:101454000073216C0B431363236813F4801F06D0BD
:101464002D4A136B23F08073A16B0B431363236822
:1014740013F4001F06D0284A136B23F00073E16BAA
:101484000B431363236813F4800F06D0224A136BB3
:1014940023F48063616C0B431363236813F4000F1C
:1014A40006D01D4A136B23F40063A16C0B43136332
:1014B400236813F0807F06D0174A136B23F400537C
:1014C400E16C0B431363236813F0007F54D0124A7A
:1014D400136B23F40043216D0B431363002003B00B
:1014E400F0BD0025E6E60D4A136843F480731360EB
:1014F400FFF782FA0646094B1B6813F4807F7FF4DA
:10150400DFAEFFF779FA801B6428F4D90320E6E7FD
:10151400FFF772FA06461BE000100240007000401C
:1015240000819010154B196A022393FAA3F3B3FABE
:1015340083F303F01F03012202FA03F30B427FF447
:10154400E7AEFFF759FA801B41F28833984211D86D
:10155400022393FAA3F293FAA3F3002BE2D102231A
:1015640093FAA3F3054B596ADEE7D36923F080535A
:10157400D361D7E60320B2E70020B0E700100240B1
:10158400F0B482B000235BE086685F000325BD40B1
:1015940026EA0506CD68BD4035438560466826EADF
:1015A40004064D68C5F300149C403443446055E080
:1015B400DD08083550F8257003F00704A6000F2451
:1015C400B44027EA04070C69B4403C4340F8254082
:1015D40058E0062400E00024B4403C430235524E57
:1015E40046F82540514CA568D44304EA05064F68E3
:1015F40017F4801F01D042EA05064C4DAE60ED6839
:1016040004EA05064F6817F4001F01D042EA0506F4
:10161400464DEE606D6804EA05064F6817F4003F16
:1016240001D042EA0506414D6E602D682C404E689B
:1016340016F4803F01D042EA05043C4A14600133A9
:101644000A6832FA03F46BD001249C402240F6D09D
:101654004D6805F00305013D012D95D94C6804F052
:101664000304032C09D0C5685E000324B44025EAB2
:1016740004058C68B4402C43C4604C6804F0030433
:10168400022C95D005685E000324B44025EA0405C5
:101694004C6804F00304B4402C4304604C6814F414
:1016A400403FCCD0224CA56945F00105A561A46951
:1016B40004F001040194019C9D08AE1C1A4C54F8DA
:1016C400267003F00304A6000F24B44027EA04079D
:1016D400B0F1904F3FF47FAF164CA04216D004F502
:1016E4008064A04214D004F58064A04212D004F5B2
:1016F4008064A04210D004F58064A0420ED004F5AA
:101704008064A0423FF465AF072465E7012463E7E2
:10171400022461E703245FE704245DE705245BE713
:1017240002B0F0BC704700BF00000140000401405B
:1017340000100240000400480AB1816170478162D0
:101744007047436901EA030221EA030141EA0241C5
:101754008161704770B4066CC56B0124B4406C6041
:10176400046863604368102B05D0036899600368BC
:10177400DA6070BC704703689A600368D960F8E760
:1017840002680C4B9A420AD80B4B13440B4AA2FB37
:1017940003231B099B000364094BC3637047094B74
:1017A4001344064AA2FB03231B099B000364064B54
:1017B400C363704707040240F8FFFDBFCDCCCCCC17
:1017C40000000240F8FBFDBF0004024020B310B546
:1017D4000446022380F8213001680A6822F47F520B
:1017E40022F03002436880680343E06803432069C1
:1017F400034360690343A0690343E069034313435C
:101804000B602046FFF7BCFF0020A063012384F88F
:10181400213084F8200010BD0120704738B590F8BD
:101824002040012C32D0012480F8204090F821403F
:10183400012C04D0002380F82030022038BD044657
:10184400022084F821000020A0632568286820F085
:10185400010028602046FFF77DFFE36A5BB1226840
:10186400136843F00E0313602268136843F0010306
:1018740013600020E2E72268136843F00A03136050
:101884002268136823F004031360EDE70220D5E710
:1018940008B590F82130022B03D004238363012080
:1018A40008BD0268136823F00E031360026813680E
:1018B40023F001031360036CC16B012202FA03F3EA
:1018C4004B6080F82120002380F82030436B13B153
:1018D40098470020E4E70020E2E738B5C36B1A68B4
:1018E40004682568016C04238B40134213D015F05F
:1018F400040F10D0236813F0200F03D1236823F0C2
:1019040004032360016CC26B04238B405360C36ADD
:1019140003B1984738BD02238B4013421AD015F007
:10192400020F17D0236813F0200F06D1236823F089
:101934000A032360012380F82130016CC26B022367
:101944008B405360002380F82030836A002BE1D061
:101954009847DFE7082303FA01F11142DAD015F0C2
:10196400080FD7D0236823F00E032360026CC16BE9
:10197400012303FA02F24A60836380F821300023D2
:1019840080F82030036B002BC4D09847C2E70000D6
:10199400074AD36823F4E0631B041B0C000200F421
:1019A400E060184340F0BF6040F40030D0607047FE
:1019B40000ED00E030B4174BDB68C3F30223C3F13E
:1019C4000704042C28BF04241D1D062D01D9033B44
:1019D40000E000234FF0FF3505FA04F421EA040186
:1019E400994005FA03F322EA03031943002809DBAB
:1019F4000901C9B200F1604000F5614080F80013AC
:101A040030BC704700F00F000901C9B2024B1954F1
:101A1400F6E700BF00ED00E014ED00E0002807DB6E
:101A240000F01F02400901239340024A42F820308B
:101A3400704700BF00E100E00138B0F1807F0AD2B6
:101A4400064B5860064AF02182F823100020986063
:101A540007221A6070470120704700BF10E000E0C1
:101A640000ED00E02DE9F04383B004460F4616462E
:101A74001D46FEF7C1FF0A9B181A00EB0508FEF786
:101A8400BBFF81462A4B1B68C3F3CB3308FB03F32C
:101A9400019323689B6837EA03030CBF01230023E7
:101AA400B34240D0B5F1FF3FF3D0FEF7A5FFA0EB62
:101AB400090040450AD2B8F1000F07D0019A02B1DB
:101AC4004246019B013B01939046E2E7226853683A
:101AD40023F0E00353606368B3F5827F0BD0A36AFD
:101AE400B3F5005F14D0012384F85D30002384F83B
:101AF4005C30032018E0A368B3F5004F02D0B3F5BF
:101B0400806FECD12268136823F040031360E6E78A
:101B14002268136823F4005313602268136843F4A3
:101B240000531360DFE7002003B0BDE8F08300BF7B
:101B34007C1600202DE9F04782B006460C46154677
:101B44001F4600238DF80330FEF756FF0A9B181A30
:101B540000EB0708FEF750FF8246D6F80090314BA1
:101B64001B6803EB8303C3EBC3031B0D08FB03F3E5
:101B7400019302E0B7F1FF3F11D133689B68234022
:101B8400AB424AD0B4F5C06FF4D1002DF2D199F82C
:101B94000C30DBB28DF803309DF80330EAE7FEF732
:101BA4002BFFA0EB0A0040450AD2B8F1000F07D082
:101BB400019A02B14246019B013B01939046DCE746
:101BC4003268536823F0E00353607368B3F5827F8F
:101BD4000BD0B36AB3F5005F14D0012386F85D30EF
:101BE400002386F85C30032018E0B368B3F5004F97
:101BF40002D0B3F5806FECD13268136823F0400350
:101C04001360E6E73268136823F400531360326804
:101C1400136843F400531360DFE7002002B0BDE80B
:101C2400F08700BF7C16002070B582B004460D46D4
:101C3400164600920B4600224FF4C051FFF77AFF7C
:101C4400B8B900962B46002280212046FFF70AFFF0
:101C5400B8B900962B4600224FF4C0612046FFF726
:101C640069FF034650B1236E43F020032366032328
:101C740004E0236E43F0200323660323184602B0D6
:101C840070BD236E43F0200323660323F6E7002888
:101C94006FD010B50446436A33B94368B3F5827F05
:101CA40005D00023C36102E00023036143610023E4
:101CB400A36294F85D30002B52D0022384F85D3087
:101CC4002268136823F040031360E368B3F5E06F00
:101CD4004CD90022B3F5706F04D0B3F5E06F01D096
:101CE4000023A362636803F48273A16801F40441CE
:101CF4000B43216901F002010B43616901F0010109
:101D04000B43A16901F400710B43E16901F038014F
:101D14000B43216A01F080010B43A16A01F40051D5
:101D240020680B430360638B03F00403616A01F0D2
:101D340010010B43616B01F008010B43E16801F4EE
:101D440070610B43216813434B602268D36923F409
:101D54000063D36100202066012384F85D3010BD48
:101D640084F85C302046FEF76FFDA6E74FF48052FE
:101D7400B0E701207047000038B590F85C30012BC3
:101D840000F086800446012380F85C3090F85D50B2
:101D9400EDB29D4276D1002975D0002A73D0032379
:101DA40080F85D300023036681638287C287036401
:101DB4000365C364A0F84430A0F846308368B3F5E3
:101DC400004F38D0636D334ADA62636D324A9A62E7
:101DD400636D324A1A63636D00225A632268536842
:101DE40023F480435360E368B3F5E06F04D8636D74
:101DF4005B69B3F5806F29D02268E38F0C32A16B45
:101E0400606DFFF70BFD0146002836D123681A6880
:101E140012F0400F03D11A6842F040021A6022689F
:101E2400536843F0200353602268536843F002036D
:101E340053600D4627E00268136823F040031360E3
:101E44000268136843F480431360BBE7E38F13F025
:101E5400010F08D12268536823F480435360E38F51
:101E64005B08E387C8E72268536843F48043536000
:101E7400E38F5B080133E387BEE7236E43F010036F
:101E8400236600E00225002384F85C30284638BD30
:101E94000225FBE7A91E0008D71E0008B51E00088E
:101EA4007047704708B5406AFFF7FBFF08BD7047ED
:101EB40008B5406A0268536823F003035360036E55
:101EC40043F010030366012380F85D30FFF7EFFF52
:101ED40008BD30B583B00546446AFEF78DFD2B6816
:101EE4001B6813F0200F23D12268536823F02003CA
:101EF40053602268536823F002035360024664214E
:101F04002046FFF791FE18B1236E43F020032366A9
:101F1400A36833B901932368DA6801929B6801933B
:101F2400019B0023E387012384F85D30236E23B9EA
:101F34002046FFF7B5FF03B030BD2046FFF7B7FFDB
:101F4400F9E7000030B585B004460268506893682C
:101F5400C3F3801129B913F0010F02D010F0400F20
:101F640067D113F0020F02D010F0800F65D1C3F3D4
:101F740040151DB911B913F4807F61D010F0200F02
:101F84005ED079B194F85D10C9B203295AD0216E9C
:101F940041F00401216600210091D168009191680B
:101FA4000091009965B1216E41F001012166002183
:101FB400029191680291116821F040011160029A26
:101FC40013F4807F09D0236E43F0080323660023B3
:101FD400039323689B680393039B236E002B2FD0EA
:101FE4002268536823F0E0035360012384F85D30D2
:101FF40010F0030F2ED02268536823F003035360BC
:10200400A36D4BB1154A5A63A06DFFF741FC18B19B
:10201400236E43F040032366636D8BB10F4A5A630A
:10202400606DFFF735FC58B1236E43F0400323661F
:1020340006E0E36C2046984702E0236D204698476B
:1020440005B030BD00230193D368019393680193D5
:10205400019BF5E72046FFF72AFFF1E7652000081A
:1020640008B5406A0023A0F84630C387FFF71FFF76
:1020740008BD10B4036A046A24F00104046284698C
:1020840024F0F00444EA021223F00A030B438261B1
:1020940003625DF8044B704710B4036A23F0100325
:1020A40003628469036A24F4704444EA023223F02C
:1020B400A00343EA0113826103625DF8044B704795
:1020C400836823F07003194341F00701816070476E
:1020D40090F83D30DBB2012B31D1022380F83D3042
:1020E40003681A4A93421CD0B3F1804F19D0A2F569
:1020F4009432934215D002F58062934211D002F5D6
:10210400963293420DD002F54062934209D002F513
:102114008052934205D01A6842F001021A600020EE
:10212400704799680A4A0A40062A0AD0B2F5803FE5
:1021340009D01A6842F001021A6000207047012099
:102144007047002070470020704700BF002C0140FA
:102154000700010090F83D30DBB2012B36D1022399
:1021640080F83D300268D36843F00103D36003680C
:10217400194A93421CD0B3F1804F19D0A2F594327E
:10218400934215D002F58062934211D002F5963243
:1021940093420DD002F54062934209D002F5805279
:1021A400934205D01A6842F001021A600020704779
:1021B40099680A4A0A40062A0AD0B2F5803F09D033
:1021C4001A6842F001021A6000207047012070472B
:1021D4000020704700207047002C014007000100D8
:1021E400704770477047704710B5044603681A6912
:1021F40012F0020F11D0DA6812F0020F0DD06FF056
:1022040002021A610123037703689B6913F0030F29
:1022140079D0FFF7E6FF0023237723681A6912F0C9
:10222400040F12D0DA6812F0040F0ED06FF004021B
:102234001A610223237723689B6913F4407F68D0D3
:102244002046FFF7CEFF0023237723681A6912F094
:10225400080F12D0DA6812F0080F0ED06FF00802DF
:102264001A61042323772368DB6913F0030F57D023
:102274002046FFF7B6FF0023237723681A6912F07C
:10228400100F12D0DA6812F0100F0ED06FF0100297
:102294001A61082323772368DB6913F4407F46D04F
:1022A4002046FFF79EFF0023237723681A6912F064
:1022B400010F03D0DA6812F0010F3FD123681A69C5
:1022C40012F0800F03D0DA6812F0800F3DD123683A
:1022D4001A6912F4807F03D0DA6812F0800F3BD1C0
:1022E40023681A6912F0400F03D0DA6812F0400F25
:1022F40039D123681A6912F0200F03D0DA6812F07A
:10230400200F37D110BDFFF76BFF2046FFF76AFFA0
:1023140081E72046FFF764FF2046FFF763FF92E75B
:102324002046FFF75DFF2046FFF75CFFA3E720464A
:10233400FFF756FF2046FFF755FFB4E76FF00102A1
:102344001A612046FEF7A2F8B8E76FF080021A611E
:10235400204600F08CF9BAE76FF480721A612046C7
:1023640000F086F9BCE76FF040021A612046FFF7DF
:102374003AFFBEE76FF020021A61204600F076F9BA
:10238400C0E700000368324A904212D0B0F1804F97
:102394000FD0A2F5943290420BD002F580629042A5
:1023A40007D002F59632904203D002F5E0529042F3
:1023B40003D123F070034A681343254A90421ED088
:1023C400B0F1804F1BD0A2F59432904217D002F5A1
:1023D4008062904213D002F5963290420FD002F5FB
:1023E400406290420BD002F58062904207D002F521
:1023F4008062904203D002F50062904203D123F43C
:102404004073CA68134323F080034A69134303608B
:102414008B68C3620B6883620D4B984213D003F53B
:10242400006398420FD003F5406398420BD003F544
:102434008063984207D003F58063984203D003F584
:102444000063984201D10B69036301234361704720
:10245400002C014060B310B5044690F83D3013B32E
:10246400022384F83D30214651F8040BFFF78AFF1C
:10247400012384F8483084F83E3084F83F3084F8EF
:10248400403084F8413084F8423084F8433084F892
:10249400443084F8453084F8463084F8473084F872
:1024A4003D30002010BD80F83C30FEF731FAD7E70C
:1024B4000120704710B4846824F47F4442EA032363
:1024C4000B43234383605DF8044B704790F83C3022
:1024D400012B77D010B50446012380F83C30022349
:1024E40080F83D3002689068374B034093600B6876
:1024F400402B54D011D9702B39D023D8502B43D032
:10250400602B1DD1CA6849682068FFF7C5FD6021AA
:102514002068FFF7D5FD00200BE0102B4AD005D929
:10252400202B47D0302B45D0012002E0002B41D096
:102534000120012384F83D30002384F83C3010BD91
:102544000120F6E7B3F5805F3AD0B3F5005F0CD114
:10255400CB684A6889682068FFF7ACFF22689368F3
:1025640043F4804393600020E3E70120E1E7CB6874
:102574004A6889682068FFF79DFF2268936843F0E2
:10258400770393600020D4E7CA6849682068FFF79E
:1025940070FD50212068FFF793FD0020C9E7CA6849
:1025A40049682068FFF765FD40212068FFF788FD32
:1025B4000020BEE719462068FFF782FD0020B8E737
:1025C4000020B6E7022070478800FEFF90F83C30F8
:1025D400012B46D030B4012380F83C30022380F82C
:1025E4003D300268536895681F4CA24207D004F539
:1025F4000064A24203D004F5E054A24203D123F4C0
:1026040070034C68234323F070030C682343536026
:102614000368154A934216D0B3F1804F13D0A2F544
:10262400943293420FD002F5806293420BD002F5AC
:102634009632934207D002F54062934203D002F5EA
:102644008052934204D125F080058A6815439D6029
:10265400012380F83D30002380F83C30184630BC1C
:1026640070470220704700BF002C0140704770473C
:1026740070470000034AD2F8883043F47003C2F86C
:102684008830704700ED00E0DFF834D0FFF7F2FF48
:102694000C480D490D4A002302E0D458C4500433B9
:1026A400C4188C42F9D30A4A0A4C002301E013608F
:1026B4000432A242FBD3FDF7AFFDFEF76DF8FEE74F
:1026C40000000120000000208016002030270008B0
:1026D40080160020E4170020FEE70000F8B500BFD4
:1026E400F8BC08BC9E467047F8B500BFF8BC08BCEF
:0426F4009E46704747
:1026F80002030405060708090A0B0C0D0E0F10103B
:102708000102030405060708090A0B0C0D0E0F1039
:102718000000000000000000010203040607080989
:04272800FD010008A7
:04272C00D5010008CB
:102730000000000000000000000000000000000099
:1027400000000000000000004222224924AAAAAA98
:10275000AAAAAAAAAAAAAAA94A490000000025086A
:1027600000880008000000000000000000000000D9
:1027700020000000000000920125429252AAAAAA5D
:10278000AAAAAA49249529040000000010440020A8
:102790000810040400000000000080080000910000
:1027A000000000021048892104A151555555555586
:1027B000522AA2A4AA040000000040010200045012
:1027C00008040000000000040008010050000000A0
:1027D0000009201025400545515555555555515274
:1027E000A12824820000000000048100154010048C
:1027F0000000088800040404028010000000002289
:102800002010488014855155554222AAA15091505C
:102810002A840000000008048402248120040000AF
:102820002888401404440500210000000000901195
:1028300028002815515555444515412211204908B5
:102840000000000042010001550540040082129082
:10285000889448844A104200000000082449480037
:10286000A01551552888252201025100851000002D
:10287000000000800002480A80080204528849547F
:1028800051045440450000000022024A50054055C2
:102890004554A90045120908510114100000000018
:1028A000081000055015002080025528A0A24504FC
:1028B00024414400000000204249200480554A2A57
:1028C000A908820A109051111401000000000108AB
:1028D0000009212A821124445229514A2504440125
:1028E0005400000000080125401400288489292193
:1028F00044242110A110A800000000004090001501
:102900004155445222424A12894A441444029200D8
:10291000000000040494801202110891148089249C
:10292000889282115021000000001090002488A895
:10293000A4A24A422A5492222451440508000000CD
:1029400000400249004204081110949125488889EA
:1029500008215044000000000490025510A2A28AF1
:1029600045224490244522528805110000000010A1
:102970000250004A104850909411020290908445F1
:1029800050440000000001200495014A85052502FD
:10299000845048444A292004800000000044092053
:1029A00040542128A848A8210402A90482155115E1
:1029B0000000000000400A120108021292121411D5
:1029C000201452548004200000000012094084AA00
:1029D00052A944494880800442888055510900002A
:1029E0000000004012200084442924212224900960
:1029F000252A820444000000004909008AAA2229ED
:102A000044928008000420904228A1100000000099
:102A10000020542001148492481521545104A69496
:102A2000841445000000001204010AAA41292492DE
:102A3000400801042151212942100000000040916A
:102A400048A00094921240094228108A248A021158
:102A500044000000000400020AAA2244A4952410A5
:102A60008A04144A50A8A41100000000104928400C
:102A70000149111240408824504224851209440023
:102A80000000000100022AAA124A492A2A229105BE
:102A90000A912244A01000000000442548800488C8
:102AA00091248080145410490A14210A85000000E2
:102AB000001000022AA85224924A55412A4504A037
:102AC000814A405000000000014928800204892406
:102AD00080802A5514524A54902A04000000002491
:102AE000040225515124922A554108420924022505
:102AF0000151000000000040A8100A2449248080F1
:102B000094568942495140AA04000000004912022B
:102B1000855089244924554A92221102041510A097
:102B20000000000000044850052492924202224A0C
:102B300080842911488A150000000012488205503F
:102B400092204910A95AAA94108044444080000061
:102B50000000400028A00A488A924004AB554280F9
:102B600012012294540000000004A50215511252D3
:102B70004924AAF5ED54248090942202000000001C
:102B800010005140044489248015BF5BA9401042C5
:102B90002289500000000042290815529252124921
:102BA00057DBFEEA2A440848500A0000000008806B
:102BB000454088490949002D7ED7BB900081128588
:102BC00041000000002015102A25245224A2BFDB5A
:102BD000FDED65082444282800000000024045015E
:102BE0001091249240557F777BAA410029428500AD
:102BF000000000480910AA4A449249096EADDFDE80
:102C0000B48009042850000000000120440421126F
:102C10004924A0BBD77AEB55084052850A00000032
:102C200000240A11514A4924920156E9DF7DEA81C4
:102C3000042850A00000000000A1442424929249DE
:102C400044EFB56BAEB52011050A15000000004831
:102C50000412894848492481BAD55D62AD44405286
:102C6000514000000000029140442292949202D709
:102C70007ABD9955100029242A000000002004156F
:102C800029144922494B6A856EA555404504928016
:102C9000000000000A5120824292492501BA52DA0E
:102CA0005AAA91005248550000000040044A54942A
:102CB00044949486D10ABD5FEA4010492280000006
:102CC000000012A1010122912249136EE9EC655521
:102CD000124224942A00000000000854AA144A4A10
:102CE000A485F5AEBA9554A0009242810000000080
:102CF0004A450210A221291246BEABED50520820CF
:102D000049285400000000009054A5154A44A50B22
:102D1000EBDAB4FC295084A4928900000000280555
:102D20000208A02492488ABEFFDAAA848000924951
:102D3000200000000002A054A2155255254BF7AA0E
:102D4000F56D52522449244A0000000048150849F4
:102D5000490924922ABEFF5AB5894002A4929000E4
:102D60000000000240529224A492494BEFD5EADAC7
:102D7000B55082124845000000002815004949124C
:102D8000492AAABB6EBABEDB44154AA51000000052
:102D9000000140552424A4A4A42BEFABECB76D5044
:102DA000012848A500000000481508894912129220
:102DB000B6BD56B55DF6822AA525100000000002BA
:102DC0008052449249544975D6ADF57F5AA00912F4
:102DD000924A00000000282A849224924AA4B6BA9B
:102DE000B55295ED4924A849210000000002802237
:102DF0002891252112DAED2AA85F550015255248A1
:102E000000000000482A94854A4894AA77557C52CD
:102E1000ABBAA448922485000000000100212821BB
:102E2000125545756AAF401D6A0125499228000078
:102E3000000028550A454A494428B7B4F59557A9D2
:102E4000502A544945000000000200A09091252A14
:102E5000A55AD35F605554849122A4280000000035
:102E600048AA152A249291124B55EBDD55A910AAB8
:102E7000951282000000000200A08492484AA92D09
:102E8000EA2A652AA4444952495400000000285502
:102E90000A52492B2894A6B5112AAAA922A489541A
:102EA0002100000000010044892490A54295B69FAE
:102EB000A2AAA2149554894A00000000485529246A
:102EC000924A922A56DBAB6815494AA44A5220001E
:102ED000000000020042124924A9554B6DD5B68569
:102EE000A4292AA5494A0000000028AA10A4249277
:102EF000452125B6B4481352854491249100000021
:102F00000002014A4949552894955BDFA55694AAC9
:102F1000525492440000000048A821222422954ADD
:102F2000AAED6ABAADAA212A92A9290000000002DE
:102F3000054A49499442524557DACAAB5115524A9B
:102F4000448400000000505001122449292932FA1B
:102F5000FF552EAA5495292A51000000000505545A
:102F6000494AA4A5454A9755B4AAA48A514A91242E
:102F7000000000002048092421125494A56DFEDBB6
:102F80005D50294A514A92000000000911524294B2
:102F9000A5092214B75BED569555294A292400004E
:102FA0000000404404944A48A49552AAFF555AA0F0
:102FB0004955294491000000001511512291252AFC
:102FC00052A955ADFB554A948945324A000000008C
:102FD000004408484A929148456DFB56AAA42554DE
:102FE000A94920000000005211529290484A252B16
:102FF000AA5FB55511124A2494950000000004847C
:1030000008244AA52552935DAAD5154A0925524A96
:10301000480000000020514549221291094FEB550C
:1030200054AAA005524AA125000000000904282244
:1030300094A8AA542BADAAAAA5564495249490000E
:103040000000004221028842451142AFB6D5549596
:10305000490248924A4A000000001088A925292800
:10306000A52A5F6AAAA256A402A555252100000040
:10307000000424124884924A493FB6EA15AAAB10CC
:103080002A495094000000004102A0925249249223
:10309000BD6B5AD55AAE0109248A420000000014C3
:1030A000500A21149292487FBD6D556B5D000292CB
:1030B000529400000000010AA10A42484920F76B1F
:1030C00055B6ADBE104049284900000000502014FC
:1030D000A49492A482FF3DAAD5B57C42082545223E
:1030E00000000000048A821122491001FDB6DD5A59
:1030F000D6FE0001042890000000002100514A146F
:10310000924213EF7DAB6B59FE012010924A0000F2
:10311000000008550820A1240047FF2F75AD57FC7B
:10312000240440092100000000420045150A0088DF
:1031300007BF7BAD5557FE000002424A0000000069
:10314000084910A0A0A2010FFB5EF6AAABFC112259
:10315000080810000000002104450A1400001F7E2A
:10316000BBAAD5BFF64000408085000000000421C6
:1031700010414008245DEEEFFD6ED7FC04110210F3
:1031800000000000004088452A0240803FFF5ED7D3
:10319000B57FFC0080100248000000001222108061
:1031A0001002013FBD7BFDDFBFFC9008408801009D
:1031B000000000008884208010086BF76FBF75DF67
:1031C000FC0221042020000000004A022288048022
:1031D00000B77FBEF7DF7FDC0000000104000000C5
:1031E0000000509040200090DBFEFBFDFDFD7C4880
:1031F000842244000000000029040A02002402EF97
:10320000DBBFDF777FDC0010000020000000000043
:1032100042A1080900007DFFEFFBFFF574120111C8
:103220000084000000004A100840800090FFEF7EFC
:10323000EFDBDBDC404004120000000000008A42AB
:10324000000022026F7FFBFEFFEEF8010840000144
:103250000000000024202804248000FFFEDFBBF7CC
:1032600017FC10010040240000000001050240008E
:1032700000483FDBFFFFDFBFFC80001104000000BF
:103280000000545048010008007FEAB6DF7E2DF8A8
:1032900004480000800000000000048008110102C2
:1032A0003F6AFFF7FD3FF01001040004000000003A
:1032B00012902A200020101FED5DDEF53FF1008402
:1032C00020241000000000400500008400408FD63C
:1032D000B7FFFA7FC0001000004000000000095056
:1032E00054020004020FDBFEF7AD3F002400810012
:1032F00000000000002005004010900823AEB7BE7B
:10330000D44C048080041100000000000520500807
:1033100000008003BFFBFBB4684000120000040003
:1033200000000048090200420200817FBD6ED528DE
:103330001009002040200000000001444821002026
:103340002410ADFFFEAC110240008104800000009B
:10335000002411000000000002BFFADB74480000E6
:1033600048000001000000000084208012090109CB
:10337000FFFFFAD828911202041004000000005246
:1033800020800880402422FFFD6DB1020000000073
:10339000008000000000000A040000000003FFFDA0
:1033A000F778580840901082000000000012A0A09A
:1033B000200912108BDFDDABF03541080240080810
:1033C0000000000040040082400040077EFDDEE275
:1033D0005520000802200000000000092102000022
:1033E000000227FFFD77F01AC822400000200000ED
:1033F0000000000848000492080DFFFBDFC01162C6
:103400000000000081000000004942000910004057
:1034100097FFFEFFE480104022091000000000002A
:10342000001080000000001FF7EFFEC004040480BD
:1034300040020000000000248400400124882FFF87
:103440007DFFC04080200400400800000000001103
:1034500012024800011FBFFFF78908110010020087
:103460002000000000248000080000207DFFFBFFFA
:10347000A00040048000080000000000002440007C
:103480000112042FFFFFFF00220440011000800002
:1034900000000022010080440040BFFBFBFF44808D
:1034A0000000240120010000000008900408002111
:1034B000007FEFFFDF000121120000000400000088
:1034C00000200400010804097F7FDBFE10100400C7
:1034D000404402200000000002481020008000FB51
:1034E000FFFFFE82420001040010000000000008FF
:1034F000004080200044EFFFFFFE0000484800002D
:1035000080000000000040900004822401BFFFF70B
:10351000F410080000110201000000000004020283
:1035200000000089FFF7FEFC824101024000041206
:103530000000000020900010088202FFDFDFDC00A6
:1035400000242000081000000000000400200040BB
:103550001003FF7FBBF8241000040480000000006B
:1035600000001090808200004BFDFF6FF900824048
:10357000102000404000000000400004080904033F
:1035800077FFFFF000080240800100040000000007
:103590000480000020200BFFFFBFF224200800025F
:1035A0000402000000000010080040800127FFFF17
:1035B000FFB00080800408400800000000000121E6
:1035C000210202100FFFFFFFE08202011020000025
:1035D00020000000004400040800400FDFBFBEE2EE
:1035E0001008100080002002000000000080000091
:1035F0001004977DFFFFC80020004000808000007D
:103600000000001200000042001FFFFF7FC0090001
:103610004404040201100000000000048044004043
:103620004FFFFFFFC0800100804008000000000045
:10363000004810110000091FFFFEFF921044000116
:1036400000000400000000000200000112203FF70B
:10365000FFBDC0020012100900102200000000107F
:1036600040001000003F7FFDFF8040004000000050
:10367000000000000000000044404084BFFFFEFF47
:1036800009082400848010408000000000440200EB
:103690000208003BFFFDFF80010004101000000045
:1036A000000000000008000001105FFDEEFF042094
:1036B00001200002000408000000001080011040FA
:1036C000013FEFFDBE2000240080800100000000CB
:1036D00000000000100104207FFFFCFF01088004AF
:1036E0000410201041000000004400400400847FCA
:1036F0007FF6FE04200040100000000000000000E3
:10370000001100901000BFFFBDFE20000900400224
:1037100000410400000000104002000000FDFFFF17
:10372000FC0082400900900400000000000000003E
:10373000000042487FFBFDFE440000000200000440
:10374000000000000040000001000177EFFEFC00D7
:1037500010084000000010200000000001020824B2
:103760000800FFFFFDF41082410420082040020001
:10377000000000000820000124FFBFFFFC820000C1
:1037800000844000000000000000000000800000F5
:10379000FEFFFAF8000008100001000080000000A1
:1037A00000100000009001B7FFFFFC101240400025
:1037B0000401020800000000010000080248FFFFA9
:1037C000FDF0810001021120001000000000000047
:1037D00011042000016F7FFBDA04000800400000A4
:1037E000000000000000000010011000FBD7FFF8EF
:1037F000101240000000040001000000000800005A
:10380000000249DEFD5FF040000024048400212016
:1038100000000000008400800000FFFFBFD900000E
:10382000048040000000000000000000000008903C
:1038300002FFEF5AF00049100000100004040000DD
:103840000000000040000111EFBFAF540100000272
:10385000084080100000000000082004000400BDA3
:10386000FFFFF044000010200001001000000000E5
:10387000000100211002F7FFB5B100112240010044
:10388000000040000000000000000000495EAAFFA8
:103890007000000000800400000000000000000034
:1038A00000000000F7FFEDD40040000000004021C0
:1038B0000000000000022008022202BADFFFF042EE
:1038C000040804084001000000000000080220086D
:1038D00000216FF6F77000008080200200000200D7
:1038E000000000000000400081BEBFFBD1002000AE
:1038F00000000800080000000000000000000804AC
:10390000F7F7DF7004820201010000208800000048
:10391000000000000020015DDF7BE40000201000BB
:103920000000800000000000002000000110F77F70
:10393000FF700008000000002000000000000011DF
:103940000100000002BFEDF5D0102000000820802B
:103950000000000000000000000080016AFFFFF08E
:10396000020088402000000240000000000000101B
:103970004008917FB557B00000000100000000042E
:1039800000000000000000000002B7FFFBE04084E0
:1039900001000002000800000000000008400200D2
:1039A00000FDB757F00810200000080220000000BA
:1039B00000000820000022455FFFFF400000800853
:1039C000002000002100000000008000000000F640
:1039D000DDDBE100800420000000000000000000AA
:1039E0000000000000053FF7FFC01200000040008B
:1039F00000000000000000000000000820D77FFF4A
:103A00004000090080010000800000000000080064
:103A1000884220825DEFFBC880001000000000009B
:103A2000000000000000000000000157FEDFC000A1
:103A300040000200000004880000000000080000B0
:103A40000004BB77FF4012000210100002100000BB
:103A50000000000080000000024DDF7BC440090828
:103A60000000000000000000000002000000448888
:103A7000B6FDFFC000002000400000400200000032
:103A8000000800800000015B57DF600080004201F9
:103A9000002200200000000000020101000256DFA9
:103AA000FBC2081000000010800080000000000031
:103AB0000800000440BDB77FE0400100080000009E
:103AC0000400000000000000080000092FEDEEC017
:103AD0000080020010000010000000000000000044
:103AE000001000AB7BFBF2240410008100020000F8
:103AF000000000001080000040825FDEAFE0801018
:103B00000020000000000200000000000020020071
:103B1000086DFBFF7002000000001110400800005B
:103B20000000000880080001376FBBD24800400247
:103B3000080000008000000000000000000220AF2C
:103B4000FECDF800200100208000040000000000ED
:103B50000440010000045AB7AFB0000104000000A7
:103B6000210000000000000000000210012FFEDB19
:103B7000F9110000080004800000000000000002AD
:103B800000000088AAB7CDB4000800000010002093
:103B900010000000000000080802022BDDF7F8000A
:103BA00020000001000401000000000011102002AC
:103BB0000010AD77B568488040008800000401001F
:103BC00000000000000040200225AEEFD8000004F5
:103BD00040000020000000000000000000048008F9
:103BE00096FBAB7800010004004400800000000058
:103BF000000001000001012AAF5FEC840400000115
:103C0000000000100000000004200104000095FDE9
:103C1000B6B8008000001000820000000000000024
:103C200000080000084ABABFF4100000004000007D
:103C300008400000000000002002044087EA5BFC0E
:103C40004010020000100800000000000000840086
:103C50000810002AE88FB500400812010200000099
:103C60000000000010000020000217541EFC02009B
:103C700000000400200000000000000000400000E0
:103C800000AAB40BEE000000002000004402000077
:103C9000000000010100001041578DBC00004000F1
:103CA0008020010040000000000110000000822C74
:103CB000B575761001001000020000000000000041
:103CC00004000000200092AFF69041040002008042
:103CD000200000000000000000040000005516DA7B
:103CE000AD00100080040000000000000000000093
:103CF000102002092D492550000002001000000488
:103D00000800000000000440000000B6A44AA4001F
:103D1000000808000202000000000000102000015E
:103D2000002255A9154A0440000080080000000048
:103D30000000000080000400015B68AA228000806F
:103D400020000010000000000000000000800408B7
:103D5000ADB6555400040000004000000000000013
:103D600000000000001042A56BBD421000120108C7
:103D7000000010000000000002011000000135BD2D
:103D8000D6BB4020000400000040000000000008F6
:103D9000040108000A56D77DD50001004000022129
:103DA00000200000000001001000000000127A0056
:040000050800268D3C
:00000001FF
