:020000040800F2
:10000000000001201D4A00087D2C0008812C0008FA
:10001000852C0008892C00088D2C000800000000A9
:10002000000000000000000000000000912C00080B
:10003000952C000800000000992C00089D2C000859
:100040006D4A00086D4A00086D4A00086D4A0008B4
:100050006D4A00086D4A00086D4A00086D4A0008A4
:10006000A12C0008A92C0008B12C00086D4A00083A
:100070006D4A0008B92C00086D4A00086D4A000856
:100080006D4A00086D4A00086D4A00086D4A000874
:100090006D4A00086D4A00086D4A0008C52C00082A
:1000A0006D4A0008DD2C00086D4A00086D4A000802
:1000B0006D4A00086D4A00086D4A00086D4A000844
:1000C0006D4A00086D4A00086D4A0008E92C0008D6
:1000D0006D4A00086D4A00086D4A00086D4A000824
:1000E000F52C00086D4A00086D4A00086D4A0008AA
:1000F0006D4A00086D4A00086D4A00086D4A000804
:100100006D4A000800000000000000006D4A000871
:100110006D4A00086D4A00086D4A00086D4A0008E3
:100120006D4A00086D4A00086D4A00086D4A0008D3
:100130006D4A00086D4A0008000000000000000041
:100140006D4A00086D4A00086D4A00080000000072
:10015000000000000000000000000000000000009F
:100160006D4A00086D4A00086D4A00086D4A000893
:100170006D4A00086D4A00086D4A00086D4A000883
:100180006D4A00086D4A00080000000000000000F1
:040190006D4A0008AC
:1001A0000348044B834202D0034B03B11847704706
:1001B000D8000020D80000200000000005480649B3
:1001C000091A891001EBD171491002D0034B03B118
:1001D00018477047D8000020D80000200000000019
:1001E00010B5064C237843B9FFF7DAFF044B13B17F
:1001F0000448AFF300800123237010BDD800002015
:1002000000000000704A000808B5044B1BB1044907
:100210000448AFF30080BDE80840CFE700000000CD
:10022000DC000020704A000870B50D4E0D4D761BA5
:10023000B61006D00024013455F8043B9847A64276
:10024000F9D1094E094D761B04F012FCB61006D008
:100250000024013455F8043B9847A642F9D170BDFB
:10026000844D0008844D0008884D0008844D000826
:10027000F0B4860746D0541E002A3CD0CAB20346CA
:1002800002E014F1FF3436D303F8012B9D07F8D1B7
:10029000032C29D9CDB245EA05250F2C45EA0545A1
:1002A00033D9A4F11006360903F1200707EB06172E
:1002B00003F1100242E9045542E902551032BA42F4
:1002C000F8D1721C14F00C0F03EB021204F00F06AD
:1002D00013D0331F23F003030433134442F8045BA9
:1002E0009342FBD106F003042CB1C9B21C4403F8BD
:1002F000011B9C42FBD1F0BC704734461346002CD6
:10030000F3D1F8E714460346C2E71A462646E0E76B
:1003100038B5124B1C68A26B05461AB10023C2E91E
:10032000045338BD182000F0B3F80246A06378B13A
:10033000012000210A4B1360C2E904010B23094884
:10034000094993810023C2E90101C2E9045338BD80
:10035000064B0748422100F055F800BF000000207E
:100360000E33CDAB34126DE6ECDE0500BC4C00085C
:10037000D44C000838B51A4B1C68A26B92B11469B2
:1003800018495369184801FB04F100FB0313A4FB4F
:100390000045611C1D4445F1000323F00040C2E903
:1003A000041338BD182000F073F80246A06388B12A
:1003B00001200021C2E904010A480C4C0C4B0D49F4
:1003C0000D4D146053600B24034695609481C2E97F
:1003D000041338BD094B0A484E2100F013F800BF42
:1003E000000000202DF451582D7F954C0E33CDABDD
:1003F00034126DE62E7F954CECDE0500BC4C0008F7
:10040000D44C000800B50A4C2668054685B01C4649
:10041000F06852B1074B0091CDE9013206492B46F5
:10042000224600F021F800F083FD044B1A46F2E763
:1004300000000020084D0008184D0008144D000869
:1004400008B513460022FFF7DDFF00BF0CB400B56E
:1004500083B004AB53F8042B019300F027F903B0E9
:100460005DF804EB02B070470EB410B583B005AB75
:10047000064C53F8042B01930146206800F016F94E
:1004800003B0BDE8104003B0704700BF000000207B
:10049000024B0146186800F061B800BF0000002060
:1004A000024B0146186800F003B800BF00000020AE
:1004B00000293CD038B551F8043C0C1F002BB8BFC4
:1004C000E418054601F0BEFA234B1A682AB1A2428D
:1004D0000DD921686018824223D0626028461C60D2
:1004E000BDE8384001F0B0BAA34203D81A465368B9
:1004F000002BF9D111685018A04219D024D82168D6
:100500006018834206D0636054602846BDE83840D6
:1005100001F09ABAD3E9000301446360216054609A
:10052000F3E7D2E90002014462602160D6E7704738
:1005300020680144501883421160E6D1D3E90003DA
:10054000014453601160E0E70C232B602846BDE8AE
:10055000384001F079BA00BFF4000020F8B5CD1C96
:1005600025F0030508350C2D38BF0C25002D064657
:1005700033DBA94231D82A4F01F064FA3A6852B10C
:1005800013685B1B04D43FE023685B1B29D522461C
:100590005468002CF8D1796800293BD029463046B0
:1005A00000F0D4FB431C28D0C41C24F00304A04258
:1005B00005D0211A304600F0C9FB01301DD025605E
:1005C000304601F041FA04F10B0020F00700231D32
:1005D000C21A01D01B1AA350F8BD0C2232600020B1
:1005E000F8BD0B2B05D8A242636811D05360E7E732
:1005F000144623601C442560E2E70C233046336038
:1006000001F022FA0020F8BD0B2BF1D853681446F4
:100610003B60D5E7304600F099FB7860BEE700BF4D
:10062000F40000209368013B002B936011DA10B4B2
:100630009469A34209DB0A2907D01368581C10608B
:10064000197008465DF8044B70475DF8044B00F0E4
:100650008FBB1368581C106019700846704700BFA4
:100660009BB1F8B513440F4606465D1E541E01E0CB
:10067000AC4208D03A4614F8011F3046FFF7D2FFCB
:10068000431CF5D1F8BD0020F8BD0020704700BF25
:10069000936810B5144613B95360184610BD00F0A6
:1006A0002FFE0023C4E9013310BD00BF2DE9F04F38
:1006B0009FB08B4690461C46039018B18369002B6F
:1006C00000F0B780A24B9B4500F0B980A14B9B4541
:1006D00000F0C780A04B9B4504BF039BD3F80CB030
:1006E000BBF80C30180740F1B280DBF81030002B5B
:1006F00000F0AD8030238DF8323098F8003005944A
:10070000002120220B918DF83120944E0127002BDF
:1007100000F08780252B00F01581454603E0252B4E
:1007200000F0A38025466B786C1C002BF7D1B4EB4E
:10073000080A76D04246534659460398FFF790FF81
:1007400001306ED00B9B6A7853440B93002A68D01B
:1007500000234FF0FF3201340693CDE908338DF8C2
:100760005B301C93079205E0069A07FA03F31343E4
:100770002C4606932546052215F8011B304601F04C
:100780000FF8AA46831B0028EED1069BD90644BF6A
:1007900020228DF85B2021781A0744BF2B228DF888
:1007A0005B202A2966D1059A116804320029059236
:1007B000C0F29D8009916178A51C2E2973D0684CE8
:1007C0000322204600F0ECFF002800F08680001B8A
:1007D000069B402404FA00F00343069305F1010848
:1007E000297860488DF83010062200F0D9FF0028E3
:1007F00000F083805C4B002B72D005AB00935A460F
:100800005A4B039806A9AFF300808146B9F1FF3F28
:1008100007D00B9B4B440B9398F80030002B7FF4D0
:1008200079AFBBF80C305B0618D40B981FB0BDE84D
:10083000F08F00F045FD464B9B457FF447AF039B8F
:10084000D3F804B0BBF80C3018073FF54EAF59464B
:10085000039800F0EDFA00283FF44CAF4FF0FF3062
:10086000E4E7039BD3F808B03AE7B4EB080A3FF497
:100870006FAF5FE7A1F13002092A88BFA2469CD87A
:10088000099B01E02C460135297803EB830302EB39
:100890004303A1F13002092AAA46F3D92E2904F113
:1008A000020509938BD19AF801102A292FD1059BB3
:1008B0009AF802101A6807920433002A05930AF185
:1008C00003050AF1020338DB254C032220469A4631
:1008D00000F066FF00287FF47AAFA84655467FE710
:1008E000059B073323F007030833059391E749423B
:1008F00043F00203099106935DE705AB00935A4666
:100900001A4B039806A900F0D5F881467EE7A1F1BD
:1009100030020023092A079301D915E0554669786A
:1009200003EB830302EB4303A1F13002092A05F133
:10093000010AF3D90235079341E74FF0FF329A4697
:1009400007923CE7444603E7AA46013537E700BF74
:10095000CC4A0008AC4A00088C4A0008484D000800
:10096000504D0008544D00080000000061060008CA
:1009700010B4044C13460A46014620685DF8044B47
:10098000FFF794BE000000202DE9F0470C46914689
:100990000A698968DDF820808A42B8BF0A46C9F82A
:1009A000002094F8431006461F4611B10132C9F8E1
:1009B0000020236899065CD5D9F800200232C9F8D6
:1009C0000020236813F0060F19461DD1E1688A1A2A
:1009D000002AD8BF194617DD04F1190A002505E0E1
:1009E000E368D9F800209B1AAB420CDD0123524684
:1009F00039463046C047013005F10105F0D14FF0CE
:100A0000FF30BDE8F087216894F84330003318BF09
:100A100001238A060AD5E1185A1C302081F84300C8
:100A2000224494F8451082F84310023304F1430243
:100A300039463046C0470130E1D02368A2682169B9
:100A400003F00603042B1DD08A4226DD4FF0000977
:100A5000521A91441A34002501E04D451DDA012354
:100A6000224639463046C047013005F10105F4D130
:100A7000C5E713F0060F13D094F84330003318BFC6
:100A80000123D3E7D9F80000E3688A42A3EB00030F
:100A900023EAE379DCDC002BDCDC0020BDE8F08716
:100AA000E168D9F800208A1A002AD8BF194693DCD9
:100AB000AAE700BF2DE9F0430C46097E85B06E29F8
:100AC000064617460C98984604F1430E6DD039D966
:100AD000732900F0F68044D9752900F00481782943
:100AE00040F0118178232268DFF858C284F845303D
:100AF0000168150651F8043B016040F1A180D1075F
:100B000044BF42F020022260002B00F093801022AC
:100B1000002184F843106068A0600028C0F2C880FB
:100B2000216821F004012160002B40F0A3800028FF
:100B300040F0C0807546082A00F0AC80AEEB05039B
:100B4000236141E0632900F0E5801AD8002938D0FC
:100B5000582940F0D88084F845102268DFF8E8C1B1
:100B6000C6E76F2900F0BF80702940F0CC80226872
:100B7000DFF8D0C142F020027823226084F84530AB
:100B8000B6E7642902D0692940F0BD802268036875
:100B9000110603F1040557D5196805600B460029B5
:100BA00059DBDFF8A4C10A22B5E70368226861694E
:100BB0001D1D056015061B6802D4500600F1BD809E
:100BC0001960002375462361CDF800803B4603AAD7
:100BD00021463046FFF7D8FE013020D02A4623694F
:100BE00039463046C047013019D022680398E3687F
:100BF000920719D51A1A002A16DD04F119090025E1
:100C000004E0E36803981A1AAA420DDD01234A465C
:100C100039463046C047013005F10105F1D14FF0AA
:100C2000FF3005B0BDE8F0839842B8BF184605B064
:100C3000BDE8F083226822F020022260102267E7DC
:100C4000500648BF9BB25AE75106A5D5B3F900300C
:100C500005601946A3E76168A1602D200029C3F152
:100C6000000384F8430002DB22F004022260DFF874
:100C7000D8C00A22754600E00B46B3FBF2F102FB36
:100C8000113093421CF8000005F8010DF4D2082A37
:100C90007FF454AF2368DB077FF550AF62682369A8
:100CA0009A423FF74BAF302305F8013C013D45E741
:100CB000002BDFD19CF8003084F8423004F142056B
:100CC00039E703686268191D01601D680021284624
:100CD00000F066FD002832D0401B606020610023D8
:100CE00084F8433070E72268036812F0800F03F144
:100CF00004051AD01B6805606F290CBF08220A2260
:100D0000DFF844C004E7012384F84210236104F1B2
:100D10004205E4E703681A68191D0123016004F124
:100D2000420584F842202361D9E712F0400F0DBF3D
:100D30001B6805601B880560DEE7198041E7606875
:100D4000CCE700BF704D00085C4D000838B5074C7B
:100D5000002305460846236001F05EF8431C00D0DE
:100D600038BD2368002BFBD02B6038BD1019002044
:100D7000F8B50D461446064608B1836943B3254BC2
:100D80009C422AD0244B9C4229D0244B9C4208BF31
:100D9000F468A389A269A2601A0722D5236903B364
:100DA00022686169D31AEDB299422F4629DD0133D9
:100DB000A168501C0139A1602060157062699A42D7
:100DC00016D0A389DB0701D50A2D11D03846F8BD0E
:100DD00000F076FA0F4B9C42D4D17468D9E7B4681E
:100DE000D7E72146304600F023F838B92369D7E722
:100DF0002146304600F03AF90028E7D04FF0FF379F
:100E0000E4E72146304600F031F90028F6D12268A7
:100E10000123CDE7CC4A0008AC4A00088C4A000800
:100E2000024B0A4601461868FFF7A2BF00000020E7
:100E30003B4B70B51D6806460C460DB1AB69DBB186
:100E4000384B9C421ED0384B9C424AD0374B9C4278
:100E500008BFEC68B4F90C2093B2190718D52069C3
:100E600008B313F001022CD0636900225B42A36136
:100E7000A26060B3002070BD284600F021FA294B23
:100E80009C42E0D16C68B4F90C2093B21907E6D407
:100E9000DD063CD5580726D4206942F00803A3811B
:100EA0009BB20028DDD103F42072B2F5007FD8D0C8
:100EB0003046214600F026FCA389206913F0010288
:100EC000D2D1990758BF6269A2600028D2D1B4F983
:100ED0000C301A06CFD543F04003A3814FF0FF300A
:100EE00070BDAC68B6E7616B51B104F1440399423F
:100EF00004D03046FFF7DCFAB4F90C20002363631A
:100F000000232069636022F024022060C5E742F0DC
:100F10004002092333604FF0FF30A28170BD00BF53
:100F200000000020CC4A0008AC4A00088C4A0008A7
:100F300008B5062000F036FE012000F083FF00BF58
:100F40008B891A072DE9F0410C46804641D44A6846
:100F5000002A59DDE66A002E53D00022D8F800504E
:100F6000216AC8F8002013F4805251D10123404671
:100F7000B047431C5FD0A389E66A216A5F0705D5A5
:100F80006268636B801A0BB1236CC01A024600239F
:100F90004046B047461C45D1D8F80030B4F90C2083
:100FA000002B55D01D2B01D0162B5AD123690022BE
:100FB000C4E90032616BC8F8005011B304F1440376
:100FC000994202D04046FFF773FA00206063BDE803
:100FD000F0810E69AEB10D680E6099070CBF6369B0
:100FE0000023AD1BA3600AE02B463246A76A216AA4
:100FF0004046B8470028A5EB000506440ADD002D51
:10100000F2DC0020BDE8F0810A6C002AA2DCF8E7DF
:10101000606DB3E7A38943F04003A3814FF0FF3035
:10102000BDE8F0812269A389226000226260DA04AF
:10103000C0D56065BEE7D8F80030002B9BD01D2BD3
:101040000CD0162B0AD0A38943F04003A381D9E723
:101050002169C4E90013D304ACD5EAE7C8F800500D
:10106000CFE742F04002A281CCE700BF0B6923B377
:1010700010B5044682B008B18369BBB1104B9942E8
:1010800012D0104B994216D00F4B994208BFE1681D
:10109000B1F90C302BB1204602B0BDE81040FFF78B
:1010A0004FBF002002B010BD6168F1E7019100F070
:1010B00007F90199E2E7A168EAE70020704700BF5D
:1010C000CC4A0008AC4A00088C4A000820B1054B05
:1010D00001461868FFF7CABF034B0449186800F0BF
:1010E000B9BA00BF00000020884A00086D1000084F
:1010F00000207047014900F0ADBA00BF6D10000834
:101100000020704770B54A1E682505FB02F50E46A3
:1011100005F17401FFF722FA044640B100210C30BA
:10112000666005F168022160A060FFF7A1F8204623
:1011300070BD00BF1E4B70B51D68AB69064643B35A
:101140004835D5E90134013B05D51EE0013B5A1C69
:1011500004F1680419D0B4F90C20002AF6D1002556
:10116000144B6566C4E90055A560C4E90455A56142
:101170002946E360082204F15C00FFF779F8C4E92E
:101180000D55C4E91255204670BD2C682CB125467A
:10119000D7E7284600F010F8D2E704213046FFF7E1
:1011A000B1FF044628600028F1D10C233360EAE740
:1011B000884A00080100FFFF2DE9F84F334B3449FE
:1011C0001A68816290424FF00003C0E91233036550
:1011D00004BF012383610546FFF7ACFF6860284622
:1011E000FFF7A8FFA8602846FFF7A4FF6E68E86035
:1011F00000240423F3607466C6E90044B460C6E9C1
:101200000444B461214606F15C000822FFF730F87F
:10121000DFF888B0AF68DFF888A0DFF88890DFF8E3
:1012200088801C4BC6F83080C6E9086BC6E90AA95D
:101230002146FB6008227C66C7E90044BC60C7E920
:101240000444BC6107F15C00FFF712F8EE68124B32
:10125000C7F83080C7E9087BC7E90AA92146F360CF
:101260007466C6E90044B460C6E90444B46106F19A
:101270005C000822FEF7FCFF0123C6E9086BC6E903
:101280000AA9C6F83080AB61BDE8F88F884A00082B
:10129000F51000080900010012000200151C0008EA
:1012A0003D1C00087D1C00089D1C0008024B0349E2
:1012B000186800F0CFB900BF884A00086D10000818
:1012C000836903B978E77047704700BF704700BF74
:1012D000704700BF704700BF024B0349186800F019
:1012E00093B900BF00000020F1100008024B034931
:1012F000186800F089B900BF000000200111000843
:101300009368002B00F002812DE9F04FB1F90C3009
:101310009BB20C46190783B08246904635D52269A8
:101320009AB313F00202D8F800603DD00027D4F839
:1013300028B0D4F820C0DFF8CC923D464D452B466E
:101340003A4628BF4B4661465046D5B1D84700289B
:1013500040F3D280D8F808301B1A07442D1AC8F879
:101360000830002B00F0B780D4F820C0D4F828B0A3
:101370004D452B463A4628BF4B4661465046002D08
:10138000E4D1D6E900750836D8E721465046FFF784
:101390004FFD002840F03081B4F90C30D8F80060DF
:1013A0009BB213F00202C1D113F0010940F0B080EA
:1013B000A76820684D46002D54D09A0540F1BC80A6
:1013C000AF42BB4600F2E78013F4906F2FD0D4E910
:1013D000041707EB4707A0EB010B07EBD777681C57
:1013E0007F105844B8423A4684BF07463A465B05E8
:1013F00040F1E98011465046FFF7B0F8002800F0B0
:10140000F5805A462169019000F01AFAA289019BE1
:1014100022F4906242F08002A281A7EB0B0203EB60
:101420000B00676123612060A2602F46AB465A46DD
:10143000494600F09FFAA2682368D21B5B442F46FE
:10144000A26023600025D8F80830DB1BB944C8F837
:101450000830002B3FD0B4F90C30A76820689BB24D
:10146000002DAAD1D6E900950836A4E70BF10803B0
:1014700053E902679B460833002FF9D03A460A2108
:10148000304600F08DF9002853D00130A0EB06095A
:101490004B46D4E904122068BB4228BF3B46884231
:1014A00003D9A5681544AB4219DC9A427DDC13468A
:1014B000A56A216A32465046A847051E1CDDB9EBD5
:1014C00005096BD00120D8F808305B1B2E447F1B28
:1014D000C8F8083013BB002003B0BDE8F08F3146D8
:1014E0002A4600F047FA23682B44236021465046E1
:1014F000FFF7BCFD0028E2D0B4F90C3043F0400304
:101500004FF0FF30A38103B0BDE8F08F002070479B
:1015100033469146104617464E469B46002FA5D0AF
:101520000028B5D13A460A21304600F039F90028A2
:10153000ABD17B1C9946ACE72369834215D3616923
:10154000A94212D82E4BA76A9D4294BF2B466FF03A
:1015500000434A4693FBF1F3504601FB03F3216A33
:10156000B847071EC8DDED1B6DE7AF4228BF2F4609
:101570003A46494600F0FEF9A3682268DB1B3A446C
:10158000A3602260002BEED121465046FFF76EFD8E
:101590000028E8D0B0E72F46AB4648E72146504642
:1015A000FFF764FD00288ED0A6E71A463146019366
:1015B00000F0E0F9019BA1682268C91A1A44A160F1
:1015C00022601D467BE7504600F040FA03460028A3
:1015D0007FF423AF21695046FEF76AFFB4F90C305F
:1015E0000C2223F08003CAF8002087E70C23CAF8F6
:1015F0000030B4F90C3081E74FF0FF306CE700BFEA
:10160000FEFFFF7F00FCFF7F2DE9F04110F148074E
:101610001BD088460026D7E90154013D0FD4A38989
:10162000012B05F1FF3506D9B4F90E300133204600
:1016300001D0C04706436B1C04F16804EFD13F683A
:10164000002FE8D13046BDE8F0813E463046BDE887
:10165000F08100BF2DE9F84310F148071FD08846FC
:1016600006464FF00009D7E90154013D11D4A38982
:10167000012B05F1FF3508D9B4F90E3001332146AD
:10168000304602D0C04749EA00096B1C04F16804E7
:10169000EDD13F68002FE6D14846BDE8F883B94652
:1016A0004846BDE8F88300BF70B50C46B1F90E108E
:1016B000002996B016461D4613DB6A4600F01AFB59
:1016C00000280EDB019A02F47042A2F50052B2FA31
:1016D00082F252094FF4806300202A60336016B012
:1016E00070BDA38900221B062A6004D54023002078
:1016F000336016B070BD4FF480630020336016B0C5
:1017000070BD00BF8A8992070B4606D501F14702DA
:1017100001211A60C3E90421704770B582B001ABA2
:101720006A460C460646FFF7BFFF0099054630465D
:10173000FEF714FFB4F90C3070B11649B162019A8A
:101740000099206043F08003A381C4E904018AB9B1
:101750002B43A38102B070BD9A05FBD423F0030391
:1017600004F1470243F002030121A3812260C4E98E
:101770000421EFE73046B4F90E1000F0CFFA10B9AB
:10178000B4F90C30E4E7A38923F0030343F0010329
:101790001BB2DDE7F51000080000000000000000AB
:1017A00001F0FF01102A2BDB10F0070F08D010F812
:1017B000013B013A8B422DD010F0070F42B3F6D116
:1017C000F0B441EA012141EA014122F007047FF02F
:1017D00000070023F0E80256083C85EA010586EA86
:1017E000010685FA47F5A3FA87F586FA47F6A5FAC2
:1017F00087F68EB9EED1F0BC01F0FF0102F00702CE
:1018000032B110F8013B013A83EA010313B1F8D178
:101810000020704701387047002D06BF3546033859
:10182000073815F0010F07D1013015F4807F02BF92
:10183000013015F4C03F0130F0BC0138704700BFE3
:10184000844641EA000313F003036DD1403A41D3CB
:1018500051F8043B40F8043B51F8043B40F8043B8A
:1018600051F8043B40F8043B51F8043B40F8043B7A
:1018700051F8043B40F8043B51F8043B40F8043B6A
:1018800051F8043B40F8043B51F8043B40F8043B5A
:1018900051F8043B40F8043B51F8043B40F8043B4A
:1018A00051F8043B40F8043B51F8043B40F8043B3A
:1018B00051F8043B40F8043B51F8043B40F8043B2A
:1018C00051F8043B40F8043B51F8043B40F8043B1A
:1018D000403ABDD2303211D351F8043B40F8043BBA
:1018E00051F8043B40F8043B51F8043B40F8043BFA
:1018F00051F8043B40F8043B103AEDD20C3205D3CA
:1019000051F8043B40F8043B043AF9D2043208D0C1
:10191000D2071CBF11F8013B00F8013B01D30B8833
:1019200003806046704700BF082A13D38B078DD011
:1019300010F003038AD0C3F10403D21ADB071CBFE3
:1019400011F8013B00F8013B80D331F8023B20F84D
:10195000023B7BE7043AD9D3013A11F8013B00F886
:10196000013BF9D20B7803704B7843708B7883700E
:10197000604670478842F0B40DD98B1883420AD96B
:10198000841832B1224613F8014D02F8014D9942F4
:10199000F9D1F0BC70470F2A0ED80346541E002A16
:1019A000F7D001340C44013B11F8012B03F8012F4F
:1019B000A142F9D1F0BC704740EA01039B073BD13B
:1019C000A2F110073F0901F1200606EB071601F10D
:1019D000100300F1100453F8105C44F8105C53F845
:1019E0000C5C44F80C5C53F8085C44F8085C53F851
:1019F000045C44F8045C1033B34204F11004EAD1EF
:101A00007B1C1B0112F00C0F194402F00F0503445C
:101A100015D0043DAD0803EB850C1C1F0E4656F88F
:101A2000047B44F8047F6445F9D10135AD002B44B3
:101A3000294402F00302B1E7541E0346B1E72A46E7
:101A4000ACE700BF704700BF704700BF09B3F8B5EF
:101A50001446CAB106460D4600F088F9A04202D3EA
:101A60002F463846F8BD21463046FEF777FD07463B
:101A70000028F6D022462946FFF7E2FE30462946E6
:101A8000FEF716FD3846F8BD2746FEF711FD38462D
:101A9000F8BD1146FEF762BD10B580210446FEF781
:101AA0005DFD606440B1031F00227C3043F8042FC9
:101AB0008342FBD1002010BD4FF0FF3010BD00BFAE
:101AC000436C0BB100207047E6E700BF1F2970B5DB
:101AD000054608D8436C16460C464BB153F8240013
:101AE00043F8246070BD162202604FF0FF3070BDD5
:101AF000FFF7D2FF08B96B6CF0E74FF0FF3070BD15
:101B00001F2938B521D8426C05460C466AB152F8F7
:101B1000213053B1012B16D0591C10D0002520467E
:101B200042F824509847284638BD284600F070F8FF
:101B3000224601462846BDE8384000F055B8162335
:101B40000360012038BD002038BD162303604FF02C
:101B5000FF3038BD1F2921D838B5436C05460C46E7
:101B600083B153F8242003EB84034AB1511C10D0F5
:101B7000012A0CD0002520461D609047284638BD1C
:101B8000012038BDFFF788FF28B96B6CE9E7032017
:101B900038BD022038BD4FF0FF3038BD4FF0FF3068
:101BA000704700BF024B01461868FFF7A9BF00BF8E
:101BB00000000020024B0A4601461868FFF786BF66
:101BC00000000020034B1868436C0BB100207047E5
:101BD00062E700BF00000020024B01461868FFF7D3
:101BE000B9BF00BF0000002038B50B46074C0546C2
:101BF000114618460023236000F0F6F8431C00D07D
:101C000038BD2368002BFBD02B6038BD1019002095
:101C100000F0DAB810B50C46B1F90E1000F0AEF8CD
:101C2000002803DB636D0344636510BDA38923F4BF
:101C30008053A38110BD00BF002070472DE9F04103
:101C40001646B1F90C201F46D3050C460546B1F9DE
:101C50000E1009D422F48052A2813B463246284617
:101C6000BDE8F04100F01EB80022022300F068F841
:101C7000B4F90C20B4F90E10ECE700BF10B50C4617
:101C8000B1F90E1000F05CF8A389421C0EBF23F4DA
:101C9000805343F480536065A38110BDB1F90E10E9
:101CA00000F016B870B50D46084C114606461A46A7
:101CB00028460023236000F0BDF8431C00D070BD0F
:101CC0002368002BFBD0336070BD00BF10190020CB
:101CD00038B5074C002305460846236000F064F839
:101CE000431C00D038BD2368002BFBD02B6038BDCF
:101CF0001019002038B50B46074C0546114618460A
:101D00000023236000F058F8431C00D038BD23683E
:101D1000002BFBD02B6038BD1019002038B5074CC4
:101D2000002305460846236000F056F8431C00D007
:101D300038BD2368002BFBD02B6038BD1019002064
:101D400070B50D46084C114606461A462846002333
:101D5000236000F051F8431C00D070BD2368002BB5
:101D6000FBD0336070BD00BF1019002051F8043C57
:101D7000181F002BBCBF0B58C018704770B50D461C
:101D8000084C114606461A4628460023236000F0F8
:101D90003BF8431C00D070BD2368002BFBD03360A0
:101DA00070BD00BF10190020024B58221A604FF07E
:101DB000FF30704710190020024B58221A604FF074
:101DC000FF30704710190020024B58221A604FF064
:101DD000FF30704710190020024B58221A60002073
:101DE000704700BF10190020024B58221A604FF0B4
:101DF000FF30704710190020024B58221A604FF034
:101E0000FF30704710190020024B58221A604FF023
:101E1000FF30704710190020044A05491368002B51
:101E200008BF0B461844106018467047FC0000209D
:101E300018190020024B58221A604FF0FF307047EB
:101E400010190020FEE700BF2DE9F04F1FFA81F8BE
:101E500008F1FF3683B0B6B201F1010AB245019133
:101E600059DB1FFA80FB0BF1FF391FFA89F9471C78
:101E70000024B94523DC92F800E04B461FFA8EFCA3
:101E80000EFB06FE0DE055682B4413F80E301B01C7
:101E900003F0F003002B08BF0134E4B28BB2BB4265
:101EA0000DDC9C4503F10101F8D95578B542F5D90F
:101EB000B045E8D15B45E6D18BB2BB42F1DD0136DE
:101EC000B6B2B245D5DA019981B15378013B994256
:101ED0000CD080B11378013B98420CD0A4F10800DB
:101EE000B0FA80F0400903B0BDE8F08F58B1137824
:101EF000013B984207D0A4F10500B0FA80F04009F8
:101F000003B0BDE8F08FA4F10300B0FA80F04009FF
:101F100003B0BDE8F08F019900240029E6D0D4E792
:101F20002DE9F04F4C1E83B024B201F1010EA645FD
:101F3000019037DB00F1FF3C0FFA8CFC461C0027B8
:101F4000664523DB6346E2465FFA84F8002C03F122
:101F5000010517DB002B15DB92F80090D145DBB2B1
:101F600010DD92F801B0A3450CDDA14216D05068F7
:101F700008FB090919F803301B01DBB2302B08BF3D
:101F80000137FFB22BB2B3429A46DFDD013424B2EF
:101F90007445D5DD384603B0BDE8F08F0198504553
:101FA000E5D1EFE70027384603B0BDE8F08F00BF6A
:101FB00070B41C785E6804FB0104355D2D01355555
:101FC0001C785E6804FB0104355D2D0935551D78CC
:101FD0005C6805FB0101635C03EB0212625470BC98
:101FE000704700BFF0B514461378526803FB012315
:101FF00083B01A5C130113F0FF030E46054619D196
:1020000012090A2A11D8DFE802F0064B4845423F80
:102010003C3936103300A368234A01931023009201
:1020200031011A46280100F09FFA237BAB4211D000
:1020300003B0F0BD302BA2680CBF1C4F1C4F0192A7
:1020400010231A4600010901009700F08DFA237B46
:10205000AB42EDD1637BB342EAD1A368154A019349
:1020600010230092310128011A4600F0E7FADFE759
:10207000A368114AD1E7A368104ACEE7A368104AC3
:10208000CBE7A3680F4AC8E7A3680F4AC5E7A36870
:102090000E4AC2E7A3680E4ABFE7A3680D4ABCE731
:1020A000A3680D4AB9E700BF6C4C00084C4B000810
:1020B0008C4B0008CC4B0008EC4A00080C4B000885
:1020C000EC4B00080C4C00082C4B00086C4B000833
:1020D0002C4C00084C4C0008AC4B0008F8B50378B9
:1020E0004278184913FB02F4A1FB0451651A01EB75
:1020F00055015E088908550806734573C18154B1BE
:102100000021012543685D5442780378013113FBB7
:1021100002F48C42F6DC9AB1002705463E465BB1DC
:10212000002420462A463146FFF75CFF01342B7815
:10213000E0B28342F6D86A780137FEB2B242EED8F6
:10214000F8BD00BF2549922438B5144600280B4637
:10215000127B617B07D025781ADB1044C0B2A842FD
:1021600028BF00202073002B07D0607817DB0B44BA
:10217000DBB2834228BF0023637310462246FFF779
:1021800031FF2246617B207BBDE83840FFF72ABF44
:10219000002AE2D1013D002B2573EED0E5E70029AE
:1021A000E5D101386073E8E702464FF0FF310020C7
:1021B000FFF7CABF024601210020FFF7C5BF00BFDD
:1021C000024600214FF0FF30FFF7BEBF024600215C
:1021D0000120FFF7B9BF00BF10B4417B027B037839
:1021E000446801FB0323E25C110111F0FF010CD0F4
:1021F00030290CBF023A0232D2B2E2545DF8044BED
:10220000417B0246007BFFF7EDBE5DF8044B704753
:1022100070B41378556803FB0103EC5C260116F0DB
:10222000F00F01D170BC7047013CEC5470BCFFF75B
:10223000D9BE00BF1378834268D92DE9F04F547896
:102240008C4283B0154688465DD9546803FB014330
:1022500007461C5C2301DBB2302B54D0002B52D03C
:1022600024090A2C53D0138A01331382FFF7D0FFBD
:102270002A786B78E889298A13FB02F31B1A9942A2
:1022800054D06B6802FB0832D35D1C0946D108F1BB
:10229000FF3636B208F10103B34234DB07F1FF3AEF
:1022A00007F1010901970FFA8AFA1F46D14526DB8B
:1022B000544653465FFA86FB0097002E19DB002C2C
:1022C00017DB95F800C09C455FFA84FE11DD6A7843
:1022D000B24259462A4670460BDDB0451AD06B68AB
:1022E0000CFB0B3313F80E301B090A2B01D0FFF740
:1022F000A1FF013424B24C452346DEDD009F0136A8
:1023000036B2BE42D2DD03B0BDE8F08F7047022383
:102310009374F8E7019F9F42E1D1EAE72A464146DC
:102320003846FFF7FDFDA042EDD1B0E70123AB74C5
:10233000E9E700BF2DE9F04F038A85B08346039398
:10234000002B7ED09BF80C809BF80030434575D95C
:102350009BF80D709BF80120BA426FD9DBF804207E
:1023600007FB032313F808402301DBB2302B65D0B1
:102370005A4639464046FFF767FD00285ED12409DA
:102380000A2C00F0E080BBF810300133ABF81030BD
:1023900039464046FFF73CFF9BF800209BF8013090
:1023A000BBF80E00BBF8101013FB02F31B1A994286
:1023B00000F0D680DBF8043002FB073212F8083058
:1023C0001C0940F0C4807D1E7B1C2DB2AB420193E2
:1023D00034DB08F1FF3A0FFA8AFA08F10106564594
:1023E00027DB544653465FFA85F9002D1CDB002C91
:1023F0001ADB9BF800C09C455FFA84FE14DD9BF855
:102400000120AA4249465A4670460DDDAF4200F00F
:102410009680DBF804300CFB093313F80E301B09EF
:102420000A2B01D0FFF706FF013424B2B442234641
:10243000DBDD0135019B2DB29D42D0DD05B0BDE84D
:10244000F08F0C20FDF764FFFDF794FF9BF800A0D0
:1024500090FBFAF303FB1A0AFDF78CFF9BF801804F
:102460009BF8002090FBF8F1DBF8043001FB180822
:102470005FFA88F85FFA8AFA08FB023313F80A3029
:102480001B090A2B51D09BF80C30534503D19BF804
:102490000D30434549D0039C01345B460A22414636
:1024A0005046A4B208F1FF3503942DB2FFF780FD2A
:1024B00008F101039D4238DC0AF1FF390AF10106F7
:1024C000CDF808A00FFA89F99A46B14529DCEFB298
:1024D0004C464A460197002D1EDB002C1CDB9BF866
:1024E00000C094455FFA84FE16DD9BF80130019927
:1024F000AB4270465B460FDDA8451CD0DBF80420DC
:10250000019F0CFB072212F80E2012090A2A02F181
:10251000010201D0FFF74CFD013424B2B44222463F
:10252000D9DD01352DB25545CFDDBBF80E30039A0C
:10253000934289D206E7029F9742DFD1ECE79845A4
:102540007FF467AF70E702238BF8123076E75A46C4
:1025500039464046FFF7E4FCA0427FF46FAF32E714
:1025600001238BF8123069E72DE9F04F87B0DDF8D1
:1025700044E00390BEF8044004911044A04202934A
:1025800059DA1D46BEF806302944994253DA12F052
:10259000070318BF012303EBD2030593002D4AD094
:1025A0004FF0000B4FF0010A002A3DD0049B059824
:1025B000109CCDF804B003EB0B0C002100FB0B408A
:1025C000039B1FFA8CFC0E468346BEF80470D808A5
:1025D000FC08CD430CFB0400013103F0070403F1B8
:1025E00001089F424FEAD60905F007058EB20AFAA4
:1025F00004F41FFA88F313D9BEF8067067450FD9A3
:102600001BF80980DEF8007048FA05F517F900801C
:1026100045F3000588EA05052C4088EA04043C548B
:10262000B242D2D8DDF804B0029B0BF1010B1FFAC5
:102630008BFB5B45B8D807B0BDE8F08F2DE9F04FB4
:1026400083B08518DDF834800091B8F80440A542C5
:102650004EDA0E463446B8F806101C448C4247DA6F
:1026600012F0070118BF012101EBD2010191002BEB
:102670003ED04FF0000A4FF0010B9AB300990C9E28
:1026800001EB0A0E0199002425461FFA8EFE01FB7C
:102690000A69E908E74319F8016007F007073E41B6
:1026A00041190134F607A5B289B219D5B8F804C0AA
:1026B000CE084FEADC070EFB07678C4501F00706E2
:1026C0000BFA06F60CD9B8F80610714508D9D8F8F7
:1026D00000C01CF9071026EA01064E400CF80760FE
:1026E000AA42D6D80AF1010A1FFA8AFA5345C4D879
:1026F00003B0BDE8F08F00BF70B50C4D00232A4633
:10270000D188814202F1100203D00133062BF7D1A8
:1027100070BD1C012E190123B38000F0E5FB285188
:1027200096F90800BDE8704001F07CBB6400002011
:1027300038B50268384B9A4200D038BD374C384D16
:10274000002202214FF0904001F00CFA228840F262
:1027500039139A422A681ED000235362536A032B0E
:10276000FCD9012202214FF0904001F0FBF92A68C8
:1027700000235362536A062BFCD92388A3F1280255
:1027800091B2F92935D940F2391293420CBF002396
:102790000133238038BD00235362536A1B2BFCD9BD
:1027A000012202214FF0904001F0DCF92A68002359
:1027B0005362536A032BFCD9002202214FF0904050
:1027C00001F0D0F92A6800235362536A1B2BFCD90D
:1027D000012202214FF0904001F0C4F92A68002341
:1027E0005362536A022BFCD90E4B1B6800215962BD
:1027F000B2E702EB42030C490C48C2EBC30211449E
:10280000172201F0ABFC08B92388BCE780210848F7
:1028100001F0AEF9F8E700BF002C0140CA17002014
:10282000CC17002018180020540100206418002044
:102830000004004808B572B6084C4FF4FA7000F076
:1028400059FB0121204601F093F94FF4FA7000F092
:1028500051FB0121204601F08BF9EEE7000400480E
:1028600030B52022A7B000210DEB0200FDF700FDDE
:1028700000231946582210A8CDE90133CDE90333CE
:102880000593FDF7F5FC012302244FF4A0214FF43A
:1028900080320693099306A84FF4E0130791CDE91F
:1028A0000C420E9300F038FBC0B903464FF480622F
:1028B00001A821460F2503930593029401950492E4
:1028C00000F046FE034648B9054A1D9310A81F9321
:1028D000109200F003FF08B927B030BDFFF7AAFF40
:1028E000001020002DE9F047002498B000F0DEFA37
:1028F000FFF7B6FFCDE91344CDE91544BE4D17945B
:102900006B6943F400136B616B6903F4001302936A
:10291000029B6B6943F400236B616B6903F4002332
:102920000393039B6B6943F480036B616B6903F44E
:1029300080030493049B6B6943F400336B616B6900
:1029400003F400330593059B6B6943F480236B61AB
:102950006B6903F480230693069B6B6943F4801331
:102960006B616B6903F480130793079B6B6943F4F6
:1029700000036B616B6903F4000308932246022194
:102980004FF09040089B01F0EDF8224644F281019F
:102990009A4801F0E7F822464021994801F0E2F810
:1029A00001264FF48819142313A996481596CDE9EA
:1029B000133900F0E7FF4FF4005313A99248139323
:1029C00003274FF0020ACDE9149400F0DBFF13A9AE
:1029D0004FF090401697CDE91464CDF84CA000F06C
:1029E000D1FF44F2810313A9844813934FF00708E1
:1029F000CDE91464169400F0C5FF4FF4407313A999
:102A000082481393CDE91547CDF850A0CDF85C80EE
:102A100000F0B8FF402313A9794813938027CDE92C
:102A20001464169400F0AEFF13A975481397CDE90E
:102A3000144400F0A7FFE82313A974481393CDE9C9
:102A4000149600F09FFF22462146082001F0A6F9C7
:102A5000082001F0D9F922462146092001F09EF90B
:102A6000092001F0D1F9224621460A2001F096F909
:102A70000A2001F0C9F922462146172001F08EF9FB
:102A8000172001F0C1F922462146282001F086F9DD
:102A9000282001F0B9F96B6933436B616B693340EE
:102AA0002246214601930D20019B01F077F90D206C
:102AB00001F0AAF9564BDFF880E11F624FF4827CE7
:102AC0004FF400474FF4E0654FF4007118221846A8
:102AD000C3E90444C3E90944C3F82C80C3E90C44A6
:102AE000C3E900ECC3E90275C3E9061201F0B0FACC
:102AF000002840F0C080474C47490C900346CDE980
:102B00001300CDE91500C4E9020640F6FF02C4E94E
:102B10000400A061204621606260CDE90D3301F020
:102B2000E5FE002840F0A7804FF4805613A9204608
:102B3000139601F00BFD0346002840F09C800CA981
:102B40002046CDE90C330E9301F002FF0346002826
:102B500040F09180314D324A0F9047210990A86092
:102B60002861A8612A6028464FF6FF726960EA6012
:102B7000CDE910331293CDE90A3301F0B7FE0028F6
:102B800079D10FA928460F9601F0E0FC03460028F2
:102B900071D109A9284609930B9301F0D9FE064685
:102BA000002868D1284601F05BFC204601F090FC2B
:102BB0001C4A1D4BCDF84E6040F6091113A8CDF804
:102BC0005660CDF85A60ADF85E60ADF84C10CDE9B6
:102BD0001423FFF783FA154D154FDFF86080154C6D
:102BE00000262379002B42D063794BBBE36813A8FE
:102BF00098470123637123E000100240000400485D
:102C0000001800480010004800080048000C004868
:102C10006418002018180020002C0140CC17002058
:102C20000004004000010020C4000020C400002077
:102C300000040140640000200030014000E100E099
:102C400000F052F92368C01A962810D994F90800A8
:102C5000E3887B61002807DB4309603300F01F0134
:102C600001228A4048F8232001F0CEF82671103462
:102C7000AC42B6D1B3E7FFF7DDFD00BFFEE700BF12
:102C8000FEE700BFFEE700BFFEE700BFFEE700BFB4
:102C9000704700BF704700BF704700BF00F018B911
:102CA000042000F06FBF00BF082000F06BBF00BF22
:102CB000102000F067BF00BF014801F013B800BF4B
:102CC000C818002008B5202000F05CFF402000F06C
:102CD00059FF8020BDE8084000F054BF014801F0D2
:102CE000F1BC00BF18180020014801F011BB00BF63
:102CF000641800204FF4005000F044BF0A4B9A695A
:102D000042F001029A619A6982B002F001020092D7
:102D1000009ADA6942F08052DA61DB6903F080538D
:102D20000193019B02B07047001002402DE9F0476B
:102D300002682F4B88B000249A42CDE90344CDE9C4
:102D40000544079402D008B0BDE8F08703F560435E
:102D500002279A69274E42F480529A619A6902F4D6
:102D600080520192019A5A6942F400325A615B69B9
:102D7000049703F4003302934FF0030A20234FF02B
:102D8000050903A905464FF09040029A03934FF0BE
:102D90008008CDE906A900F0F5FD4FF0904003A9A9
:102DA000CDE90477CDE906A9CDF80C8000F0EAFD65
:102DB000114AC6F80C8010233046B460C6E90444BA
:102DC000C6E90644C6E9002300F0E8FE60B9002227
:102DD00011466E652320756200F0E0FF232001F0AC
:102DE00013F808B0BDE8F087FFF724FDEFE700BF58
:102DF00000300140C81800203000024000B50368D0
:102E0000154A934283B012D0144A934202D003B0C1
:102E10005DF804FB124BDA6942F00202DA61DB6909
:102E200003F002030193019B03B05DF804FB0C4B1C
:102E30009A6942F400629A619B69002203F400637C
:102E4000009311461920009B00F0A8FF192003B041
:102E50005DF804EB00F0D8BF002C014000040040F6
:102E60000010024038B50E4A0E4B12781B6805461A
:102E70004FF47A70B0FBF2F0B3FBF0F000F0E6FF35
:102E800008B90F2D01D9012038BD04460246294654
:102E90004FF0FF3000F082FF034B20461D6038BD2D
:102EA000CC000020D4000020D0000020074A08B544
:102EB000136843F010031360032000F05DFF00204F
:102EC000FFF7D0FFFFF71AFF002008BD00200240E7
:102ED000034A044B11681B780B441360704700BF12
:102EE0000C190020CC000020014B1868704700BF6F
:102EF0000C19002038B50446FFF7F6FF631C0546A1
:102F000002D0044B1B781C44FFF7EEFF401BA0428D
:102F1000FAD338BDCC000020002800F07F822DE9D4
:102F2000F0430368DF0783B004463DD5C1494A68D2
:102F300002F00C02042A00F05F814A6802F00C02E1
:102F4000082A00F052816368B3F5803F00F06B817E
:102F5000002B00F09A81B3F5A02F00F0BC82B54B96
:102F60001A6822F480321A601A6822F480221A60E9
:102F7000FFF7BAFF4FF400380746AE4E012505E0D3
:102F8000FFF7B2FFC01B642800F27B8198FAA8F318
:102F9000326898FAA8F3B3FA83F303F01F0305FA33
:102FA00003F31342ECD023689E0742D5A14A51682F
:102FB00011F00C0F00F0CF80516801F00C010829CE
:102FC00000F0C280E268002A00F0B881012292FA83
:102FD000A2F3B3FA83F303F1845303F584139B0044
:102FE00016461A60FFF780FF4FF002080746914D22
:102FF00005E0FFF779FFC01B022800F2428198FA32
:10300000A8F32A6898FAA8F3B3FA83F303F01F032E
:1030100006FA03F31342ECD02968F82292FAA2F2DE
:103020002369B2FA82F221F0F80193400B432B603E
:1030300023681D0721D458074ED57E4BDA69D1008D
:1030400040F1C7804FF000087B4D2B68DA0540F156
:103050000881A368012B00F09781002B00F03881D4
:10306000052B744B1A6A00F0D18122F001021A621A
:103070001A6A22F004021A628BE16269002A00F0E7
:103080008180012292FAA2F16C4B6A4EB1FA81F171
:103090000B449B0015461A60FFF726FF4FF002080D
:1030A000074605E0FFF720FFC01B022800F2E98079
:1030B00098FAA8F398FAA8F398FAA8F3726A98FA1B
:1030C000A8F3B3FA83F303F01F0305FA03F31342E3
:1030D000E8D023685807B0D4A06988B3554D6B6811
:1030E00003F00C03082B00F0798102284FF0807365
:1030F00000F0968193FAA3F3B3FA83F303F18453B8
:1031000003F584139B0000221A60FFF7EDFE2C46A6
:1031100007464FF00075012605E0FFF7E5FEC01BEE
:10312000022800F2AE8095FAA5F3226895FAA5F37D
:10313000B3FA83F303F01F0306FA03F31342ECD14F
:10314000002003B0BDE8F083526802F4C032B2F54B
:10315000004F7FF437AF022292FAA2F13549086896
:1031600092FAA2F2B2FA82F202F01F02012101FAEF
:1031700002F2024264D0E2688A4261D0012003B0C8
:10318000BDE8F083012595FAA5F12C4B294EB1FA43
:1031900081F10B449B004FF002081A60FFF7A4FE78
:1031A000074604E0FFF7A0FEC01B022869D898FA82
:1031B000A8F398FAA8F398FAA8F3726A98FAA8F311
:1031C000B3FA83F303F01F0305FA03F31342E9D1C3
:1031D0007FE7DA6942F08052DA61DB6903F08053FD
:1031E0000193019B4FF001082EE74A6802F4C032B8
:1031F000B2F5803F7FF4A7AE4FF4003292FAA2F10D
:103200000C49086892FAA2F2B2FA82F202F01F02A6
:10321000012101FA02F202423FF4C6AE6268002ABE
:103220007FF4C2AEAAE7034A136843F48033136005
:103230009EE600BF00100240007000402081901008
:10324000AB4DF821286891FAA1F12269B1FA81F118
:1032500020F0F8008A4002432A601D077FF5EBAE9C
:103260000BE72B6843F480732B60FFF73DFE0646A7
:103270002B68DB053FF5EDAEFFF736FE801B6428BB
:10328000F6D9032003B0BDE8F083994D2B6823F4F1
:1032900080332B602B6823F480232B60FFF724FE00
:1032A0004FF400380746012604E0FFF71DFEC01B5F
:1032B0006428E6D898FAA8F32A6898FAA8F3B3FA2B
:1032C00083F303F01F0306FA03F31342EDD16AE61A
:1032D000874D2B6A23F001032B622B6A23F0040332
:1032E0002B62FFF701FE4FF002090746012613E0AB
:1032F00099FAA9F36A6A99FAA9F3B3FA83F303F086
:103300001F0306FA03F313420ED0FFF7EDFD41F25F
:103310008833C01B9842B4D899FAA9F399FAA9F353
:10332000002BE5D02A6AE6E7B8F1000F3FF4D4AEEF
:103330006F4AD36923F08053D361CDE6012595FA16
:10334000A5F3B3FA83F303F1845303F584139B00CD
:103350004FF002081A60FFF7C7FD654E074604E00C
:10336000FFF7C2FDC01B02288BD898FAA8F3326879
:1033700098FAA8F3B3FA83F303F01F0305FA03F3F3
:103380001342EDD1236854E6594A136A43F001030E
:103390001362FFF7A9FD4FF002090746544E0125BD
:1033A00014E099FAA9F3726A99FAA9F3B3FA83F3CC
:1033B00003F01F0305FA03F31342B5D1FFF794FDA1
:1033C00041F28833C01B98423FF65BAF99FAA9F3EC
:1033D00099FAA9F3002BE4D0326AE5E701283FF41B
:1033E000B0AE6A68E169EB6A02F4C03088427FF4EB
:1033F000C5AE216A02F470128A427FF4BFAE606AE1
:1034000003F00F03181A18BF01209AE642F00402D5
:103410001A621A6A42F001021A62BAE70120704782
:1034200093FAA3F3B3FA83F303F1845303F58413FC
:103430009B0000221A60FFF757FD4FF00078074607
:10344000012605E0FFF750FDC01B02283FF619AF2B
:1034500098FAA8F32A6898FAA8F3B3FA83F303F06A
:103460001F0306FA03F31342ECD1EB6A626A23F0FE
:103470000F031343EB62D4E907136A680B4322F48A
:10348000761213436B604FF0807393FAA3F3B3FA91
:1034900083F303F1845303F584139B004FF000740E
:1034A0001E60FFF721FD124E0746012505E0FFF7DC
:1034B0001BFDC01B02283FF6E4AE94FAA4F3326869
:1034C00094FAA4F3B3FA83F303F01F0305FA03F3AA
:1034D0001342ECD034E603F18043A3F53C331A6881
:1034E00042F480221A601A6842F480321A603FE582
:1034F00000100240124A536803F00C01082901D061
:103500001048704730B44FF4701090FAA0F00F21BB
:10351000B0FA80F0D26A91FAA1F103F47013C340BB
:1035200009480A4DC05C074CB1FA81F102F00F0363
:10353000CB40EB5CB4FBF3F330BC00FB03F0704713
:103540000010024000127A008C4C00089C4C0008CD
:1035500078B15D4A136803F007038B420BD21368FE
:1035600023F007030B431360136803F007038B4238
:1035700001D00120704703682DE9F0419C0706D572
:10358000524C8568626822F0F0022A4362600C4661
:10359000D90780462ED54168012900F08180022993
:1035A0006CD0022292FAA2F3484B186892FAA2F267
:1035B000B2FA82F202F01F02012303FA02F202427F
:1035C00028D0424D6B6823F003030B436B60FFF779
:1035D0008BFC41F28836074604E0FFF785FCC01BF0
:1035E000B0426ED86B68D8F8042003F00C03B3EB3C
:1035F000820FF2D1344A136803F00703A3420CD9B7
:10360000136823F0070323431360136803F00703D1
:10361000A34202D00120BDE8F081D8F800305A075B
:1036200007D52A49D8F80C004A6822F4E062024320
:103630004A601B0708D5254AD8F81010536823F4B0
:10364000605343EAC1035360FFF754FF1F4B014629
:10365000F0225B6892FAA2F2B2FA82F203F0F0036F
:10366000D3401B4A1B48D35C1B4A006821FA03F372
:103670001360FFF7F7FB0020BDE8F0814FF0007307
:1036800093FAA3F2114A106893FAA3F3B3FA83F3FF
:1036900003F01F03012202FA03F3034291D1B9E7B9
:1036A0004FF4003292FAA2F3084B1B6892FAA2F28E
:1036B000B2FA82F202F01F0201FA02F21A4280D13B
:1036C000A8E70320A7E700BF002002400010024047
:1036D000AC4C0008D0000020D40000202DE9F043BD
:1036E00004460068C60383B03CD5A34BDA69D50015
:1036F00040F1F180A14D2B68D8054FF0000640F154
:10370000FA809D4D61682A6A12F4407220D001F45B
:10371000407393421CD0296A4FF4803321F44070E7
:1037200093FAA3F2964FB2FA82F23A4492004FF023
:10373000010CC2F800C093FAA3F3B3FA83F33B443D
:103740009B0000221A60CA07286200F1F0806168BD
:10375000894A136A23F440730B4313622068002ED6
:1037600040F0DD80C30706D5834AA168136B23F0C0
:1037700003030B431363870706D57F4AE168136B86
:1037800023F440330B431363460706D57A4A216975
:10379000136B23F440230B431363850606D5764A47
:1037A000E169136B23F010030B431363810306D508
:1037B000714A616D536823F480030B4353604206E2
:1037C00006D56D4A216A136B23F020030B43136364
:1037D000430306D5684A616A136B23F040030B4329
:1037E0001363070706D5644A6169136B23F440131A
:1037F0000B431363C60606D55F4AA169136B23F416
:1038000040030B431363850506D55B4A216B536860
:1038100023F400030B435360010606D5564AA16A00
:10382000D36A23F4F8730B43D362C20506D5524A18
:10383000E16AD36A23F478530B43D362C30406D5F9
:103840004D4A616B136B23F480730B43136387043E
:1038500006D5494A216C136B23F400730B431363A1
:10386000C60206D5444AA16B136B23F080730B4349
:103870001363850206D5404AE16B136B23F0007396
:103880000B431363410206D53B4A616C136B23F46F
:1038900080630B431363020206D5374AA16C136B96
:1038A00023F400630B431363C30106D5324AE16C72
:1038B000136B23F400530B43136310F0007007D015
:1038C0002D4A216D136B23F400430B431363002037
:1038D00003B0BDE8F083DA69284D42F08052DA6126
:1038E000DB6903F080530193019B2B68D8054FF0EF
:1038F00001063FF506AF2B6843F480732B60FFF79A
:10390000F3FA07462B68D9053FF5FBAEFFF7ECFA53
:10391000C01B6428F6D9032003B0BDE8F083D36947
:1039200023F08053D361C3077FF525AF1CE76746BB
:10393000FFF7DAFA4FF00209804615E099FAA9F389
:103940006A6A99FAA9F3B3FA83F303F01F0307FA3B
:1039500003F313427FF4FBAEFFF7C6FA41F288335C
:10396000A0EB08009842D6D899FAA9F399FAA9F3DE
:10397000002BE3D02A6AE4E7001002400070004008
:10398000008190102DE9F04F0D6885B0002D00F0FA
:103990008380DFF8CCB100234FF0010A88460AFA91
:1039A00003FC1CEA050973D0D8F804405E0004F05B
:1039B00003020321571EB140C943012F00916ED964
:1039C000032A7FD107680099B24039400A4314F4B2
:1039D000403F02605CD05B498A6942F001028A6123
:1039E0008A6923F0030606F1804602F0010206F51B
:1039F0008036039203F00301039AB76889000F220F
:103A00008A40B0F1904F27EA02021AD04E4FB842D6
:103A100000F085804D4FB84200F085804C4FB84291
:103A200078D04C4FB84200F083804B4FB84200F042
:103A300084804A4FB8420CBF0627072707FA01F1D6
:103A40000A43B260DBF808206FEA0906E10254BFBE
:103A5000324049EA0202CBF80820DBF80C10A2023F
:103A600054BF314049EA0101CBF80C10DBF80410D7
:103A7000A70354BF314049EA0101CBF80410DBF839
:103A80000020E10354BF324049EA0202CBF8002093
:103A9000013335FA03F282D105B0BDE8F08F8768B3
:103AA00007EA010ED8F80C70B74047EA0E078760A6
:103AB000D0F804E0C4F300172EEA0C0C9F4047EA4C
:103AC0000C074760C768009907EA010CD8F808702E
:103AD000B74047EA0C07022AC7607FF473AF4FEA8A
:103AE000D30E00EB8E0E03F0070CDEF820100191D0
:103AF0004FEA8C0C0F2101FA0CF7019921EA070714
:103B0000D8F81010019701FA0CF701990F43CEF87D
:103B1000207057E7032707FA01F10A4391E70AFAF1
:103B200001F10A438DE7022707FA01F10A4388E70A
:103B3000042707FA01F10A4383E7052707FA01F191
:103B40000A437EE7001002400004004800080048D5
:103B5000000C0048001000480014004800180048FD
:103B6000000401400AB1816170478162704700BF63
:103B7000436901EA030221EA030141EA024181614A
:103B8000704700BF044A5169014200D1704708B52F
:103B90005061FEF7B1FD08BD00040140002833D09C
:103BA00030B4D0E90135D0E9034102462B43234329
:103BB000D2E9054500680B4323430168D4692B43D0
:103BC000234321F47F51114C21F030010B43A042DB
:103BD0004FF0020182F82110036010D90C4B0D49FF
:103BE0000D4CD4630344A1FB03131B099B00136416
:103BF0004FF4807300201384906330BC7047074BF0
:103C00000449A4F20744ECE701207047070402408E
:103C1000F8FBFDBFCDCCCCCC00040240F8FFFDBFCB
:103C2000F0B590F82040012C38D090F821500124B4
:103C3000A54280F8204004D0002380F820300220E4
:103C4000F0BD04680026D0E90FC786632668BD4032
:103C500026F0010647684FF0020E80F821E026604A
:103C6000CCF804506360C36A102F0BBFA260A16040
:103C7000E160E2604BB1236843F00E0323602368E8
:103C800043F0010323600020F0BD236843F00A03E2
:103C90002360236823F004032360F0E70220F0BDD3
:103CA00090F82120022A03D0042282630120704769
:103CB00001680A6822F00E0270B5066CC56B0A60D6
:103CC0000C68426B24F001040C600121B1404FF4F8
:103CD00080746960048412B19047002070BD104662
:103CE00070BD00BF70B4D0E90F5204232968046886
:103CF00093400B4226680ED016F0040F0BD02268BA
:103D0000920603D4226822F004022260C26A6B6029
:103D1000CAB170BC1047022393400B4215D016F075
:103D2000020F12D02268920606D42268012122F0E6
:103D30000A02226080F82110826A6B60002380F8FA
:103D40002030002AE5D170BC7047082393400B4215
:103D5000F9D03307F7D52368016B23F00E032360F6
:103D6000012303FA02F24FF480746A6083630484CF
:103D70000029E8D070BC0847074AD36800024FF614
:103D8000FF0100F4E0600B40184340F0BF6040F4D6
:103D90000030D060704700BF00ED00E0184B30B439
:103DA000DC68C4F30224C4F10705042D04F1040304
:103DB00028BF0425062B18D9033C4FF0FF33A3403E
:103DC00022EA03024FF0FF33AB4021EA0303A34092
:103DD00013431B010028DBB20ADB00F1604000F551
:103DE000614080F8003330BC704700221446E9E798
:103DF000044A00F00F000244137630BC704700BF45
:103E000000ED00E0FCEC00E0002807DB00F01F0103
:103E100001234009024A8B4042F82030704700BF1E
:103E200000E100E000280DDB4309203301220649B0
:103E300000F01F0002FA00F041F82300BFF34F8F9B
:103E4000BFF36F8F704700BF00E100E00138B0F1B1
:103E5000807F0ED2084B10B4084C5860F02084F8D4
:103E600023000022072110469A6019605DF8044B78
:103E700070470120704700BF10E000E000ED00E057
:103E8000F0B583B00C4615460646FFF72DF82544DD
:103E90002D1AFFF729F8244B1B68C3F3CB3305FB1E
:103EA00003F307460193336801E0621C05D198686B
:103EB00010F08000F9D103B0F0BDFFF715F8C01B7A
:103EC000A84208D2019A019B002A03F1FF3308BFE0
:103ED00000250193E7E7D6E900315A68B1F5827F02
:103EE00022F0E0025A6013D0B26AB2F5005F07D147
:103EF0001A6822F400521A601A6842F400521A60DA
:103F00000122002386F85D2086F85C300320D2E78A
:103F1000B268B2F5004F02D0B2F5806FE4D11A68F2
:103F200022F040021A60DFE7D40000202DE9F043C0
:103F300083B04FF0000C1F46154606460C468DF820
:103F400003C0FEF7D1FF2F443F1AFEF7CDFF2F4BE2
:103F5000D6F800801B6803EB8303C3EBC3031B0D80
:103F600007FB03F301938146434601E06A1C0ED12F
:103F7000986820401DD0B4F5C06FF7D198F80C2098
:103F8000D2B28DF803209DF803206A1CF0D0FEF712
:103F9000ABFFA0EB0900B8420ED2019B019A002BA7
:103FA00002F1FF3233680192986808BF0027204071
:103FB000E1D103B0BDE8F083D6E900315A68B1F52C
:103FC000827F22F0E0025A6013D0B26AB2F5005F3D
:103FD00007D11A6822F400521A601A6842F400529B
:103FE0001A600122002386F85D2086F85C300320E9
:103FF000DFE7B268B2F5004F02D0B2F5806FE4D1CE
:104000001A6822F040021A60DFE700BFD4000020E7
:1040100070B513460D4616460A464FF4C051044685
:10402000FFF784FF70B9324629462046FFF728FF84
:1040300040B933462A464FF4C0612046FFF776FF69
:1040400000B970BD236E43F020032366032070BDCA
:1040500000287ED0D0F824C02DE9F041BCF1000F3B
:104060005DD00023C0E9043390F85D30002204469F
:1040700003F0FF018262002B5ED02168E268022318
:1040800084F85D300B68B2F5E06F23F040030B60FD
:104090004CD9B2F5706F5ED1A36A002703F40050CB
:1040A000D4E901362569D4F818E006F4044603F48F
:1040B0008273334305F002052B43656902F470688F
:1040C00005F00105626B2B43D4E9076502F0080295
:1040D00042EA08024FEA1E480EF4007E08F0040887
:1040E00043EA0E0306F0380642EA0802334305F0BD
:1040F00080050CF0100C42EA0C0C2B4303434CEAF5
:1041000007070B604F60CB69002223F40063012591
:10411000CB611046226684F85D50BDE8F0814368AB
:10412000B3F5827FA0D0C0F81CC09DE70BD04FF440
:1041300080570020A062B3E780F85C10FEF7F6FD20
:10414000D4F824C099E7A36A4FF4805703F40050D1
:10415000A6E7012070470027EBE700BFF8B590F80D
:104160005C30012B61D090F85D500123EDB29D428F
:10417000044680F85C3005D00225002384F85C30CA
:104180002846F8BD0029F8D0002AF6D08068A2871A
:10419000032384F85D30B0F5004F4FF00003236631
:1041A000A163E2872364C4E91333A4F84430A4F87C
:1041B0004630226830D0606D274F5368E668C7628A
:1041C000264F8762264F076323F480430027B6F506
:1041D000E06F4763536003D84369B3F5806F27D01E
:1041E000E38F0C32FFF71CFD88B923681A6852066A
:1041F00003D41A6842F040021A605A6842F0200262
:104200005A605A6842F002025A600025B5E7236EF0
:1042100043F010032366B0E7136823F040031360F4
:10422000136843F480431360C5E702252846F8BDB0
:10423000E38F13F0010F536806D123F480435360DA
:10424000E38F5B08E387CBE743F480435360E38F5E
:104250005B080133E387C3E76D420008A142000811
:104260007D420008704700BF704700BF08B5406A34
:10427000FFF7FAFF08BD00BF704700BF08B5436AEB
:1042800019684A6822F003024A601A6E012142F05E
:1042900010021A66184683F85D10FFF7EDFF08BD9F
:1042A00030B5054683B0446AFEF71EFE2B681B68D6
:1042B0009B061ED42368596821F020015960596873
:1042C00021F002010246596020466421FFF7A0FE5A
:1042D000A0B9A36833B922680193D36801939368A6
:1042E0000193019B01230022E28784F85D30236E55
:1042F0004BB92046FFF7B6FF03B030BD236E43F045
:1043000020032366E5E72046FFF7B6FF03B030BD84
:1043100030B5026855689368C3F3801485B00146D0
:104320002CB913F0010F02D015F0400F7BD1980784
:1043300001D5280671D4C3F3401000284BD0A8063D
:1043400047D5002C79D091F85D0003286DD0086E18
:10435000002440F0040008660094D0680090906843
:1043600000900098C3F30023086E002440F0010081
:104370000866029490680290106820F04000106077
:104380000298002B3FD10B6E1BB353680C4623F0F1
:10439000E0030121AD07536084F85D1050D05368ED
:1043A000A06D23F00303536040B1274B4363FFF735
:1043B00077FC18B1236E43F040032366606D40B173
:1043C000214B4363FFF76CFC18B1236E43F04003AD
:1043D000236605B030BD94B1AC06FAD591F85D40C6
:1043E000032C22D00C6E44F004040C660090D068BC
:1043F000009090680090C3F300230098C1E7DC05AB
:10440000E7D5AB06E5D50B6E002043F008030B663D
:10441000039093680393039BB5E70B6D084605B0C3
:10442000BDE830401847C36CF9E700230193D36817
:10443000019393680193019BCBE7C3F3002393E7B8
:104440002046FFF719FFC4E74D44000808B5436A4A
:104450000022A3F846201846DA87FFF70DFF08BDB3
:1044600090F83D30012B23D10368174A0221934273
:1044700080F83D101ED0B3F1804F1BD0A2F59432CE
:10448000934217D002F58062934213D002F5963220
:1044900093420FD002F5406293420BD002F5805256
:1044A000934207D01A6842F001021A600020704758
:1044B000012070479968054A0A40062A02D0B2F5E1
:1044C000803FEFD100207047002C01400700010021
:1044D00090F83D30012B26D103681949022280F85B
:1044E0003D20DA688B4242F00102DA601DD0B3F160
:1044F000804F1AD0134A934217D002F5806293423C
:1045000013D002F5963293420FD002F540629342E7
:104510000BD002F58052934207D01A6842F0010294
:104520001A6000207047012070479968064A0A40C7
:10453000062A02D0B2F5803FEFD10020704700BFBD
:10454000002C0140000400400700010090F83C30BE
:10455000012B00F0818070B40223046880F83D30A4
:1045600002460B68A068524D402B05EA00054FF04B
:10457000010082F83C00A56070D03FD9702B00F09C
:10458000868024D8502B4ED0602B18D1206A4D68DD
:10459000CE6820F010002062A169236A21F47041E6
:1045A00023F0A00343EA051341EA0631A161236227
:1045B000A36823F0700343F06703A3600020012188
:1045C000002382F83D1082F83C3070BC7047B3F590
:1045D000805F26D0B3F5005FF1D1D1E90153C868FF
:1045E000A1682B4343EA002321F47F410B43A360DE
:1045F000A36843F48043A3600020E0E7102B04D0BD
:104600000CD9202B01D0302BD9D1A16821F0700119
:104610000B4343F00703A3600020D0E7002BF4D046
:10462000CDE70020CBE7256A266A4868C96826F0EE
:1046300001062662A36925F00A0523F0F00328434A
:1046400043EA0113A3612062A36823F0700343F0DF
:104650005703A3600020B2E702207047256A266A4C
:104660004868C96826F001062662A36925F00A0594
:1046700023F0F003284343EA0113A3612062A368F7
:1046800023F0700343F04703A360002097E7D1E9CC
:104690000153C868A1682B4343EA002321F47F41FA
:1046A0000B43A360A36843F07703A360002086E771
:1046B0008800FEFF704700BF704700BF704700BF13
:1046C000704700BF03681A69910710B5044602D508
:1046D000DA68920768D41A69520702D5DA68500777
:1046E0004FD41A69110702D5DA68120737D41A694C
:1046F000D00602D5DA68D1061ED41A69D20702D5CF
:10470000DA68D00769D41A69110602D5DA68120688
:104710006BD41A69D00502D5DA6811066DD41A690E
:10472000520602D5DA6850066FD41A69910602D58E
:10473000DA68920649D410BD6FF010021A61DB6985
:10474000082213F4407F227720466FD1FFF7B2FF93
:104750002046FFF7B3FF002223682277CDE76FF0F2
:1047600008021A61DB6904229B07227720465AD18E
:10477000FFF7A0FF2046FFF7A1FF00222368227762
:10478000B5E76FF004021A619B69022213F4407FBF
:104790002277204644D1FFF78DFF2046FFF78EFF9A
:1047A0000022236822779CE76FF002021A619B695E
:1047B00001229907027730D1FFF77CFF2046FFF7EF
:1047C0007DFF00222368227785E76FF020022046D4
:1047D0001A61BDE8104000F011B96FF001021A61D2
:1047E0002046FDF7A5FF23688DE76FF080021A6170
:1047F000204600F005F923688BE76FF480721A6198
:10480000204600F0FFF8236889E76FF040021A6144
:104810002046FFF755FF236887E7FFF74DFFD0E7F6
:10482000FFF74AFFBCE7FFF747FFA6E7FFF744FFA4
:1048300091E700BFF0B42B4E03684D698C680A689D
:10484000B04235D0B0F1804F20D0A6F59436B042BA
:104850001CD006F58066B04218D006F59636B042F8
:1048600026D006F5E056B04236D01F4EB0420BD0EF
:1048700006F58066B04207D006F58066B04203D0E8
:1048800006F50066B04209D1CE6816E04E68C968E8
:1048900023F07003334323F440730B4323F080036E
:1048A0002B4303600123C4628262F0BC4361704702
:1048B0004F68CE6823F070033B4323F440733343C7
:1048C00023F080032B430360C46282620B6903639D
:1048D00001234361F0BC70474E6823F070033343FB
:1048E000C3E700BF002C01400040014070B390F8C6
:1048F0003D3010B503F0FF02044613B321460223F6
:1049000051F8040B84F83D30FFF794FF012384F83D
:104910004830002084F83E3084F83F3084F840303E
:1049200084F8413084F8423084F8433084F84430CD
:1049300084F8453084F8463084F8473084F83D30B8
:1049400010BD80F83C20FEF759FAD7E701207047E8
:1049500090F83C30012B4BD0F0B40368254C0E6826
:10496000022280F83D200125A3425A6880F83C507D
:104970009D6834D004F50064A3422BD004F5E054C4
:10498000A34227D022F070023243B3F1804F5A6025
:1049900012D0194A93420FD002F5806293420BD095
:1049A00002F59632934207D002F54062934203D05B
:1049B00002F58052934204D18A6825F080051543A0
:1049C0009D600023012280F83D2080F83C30F0BC3F
:1049D000184670474C6822F470022243D2E74F68B1
:1049E00022F470043C4324F0700434435C60E3E739
:1049F00002207047002C014000040040704700BFB7
:104A0000704700BF704700BF034AD2F8883043F4B4
:104A10007003C2F88830704700ED00E0DFF834D052
:104A2000FFF7F2FF0C480D490D4A002302E0D4586D
:104A3000C4500433C4188C42F9D30A4A0A4C0023E8
:104A400001E013600432A242FBD3FBF7EDFBFDF75C
:104A500049FFFEE70000012000000020D8000020F0
:104A60008C4D0008D800002014190020FEE700003B
:104A7000F8B500BFF8BC08BC9E467047F8B500BF4B
:084A8000F8BC08BC9E4670471B
:104A880004000020000000000000000000000000FA
:104A9800000000000000000000000000000000000E
:104AA80000000000000000000000000000000000FE
:104AB80000000000000000000000000000000000EE
:104AC80000000000000000000000000000000000DE
:104AD80000000000000000000000000000000000CE
:104AE8000000000000000000018019981BD80FF09A
:104AF8000FF03FFC3FFC0FF00FF01BD81998018016
:104B080000000000000003C007E004200420066045
:104B180007E003C003C006600C300C300FF007E05C
:104B280000000000000007F007F00600060006007D
:104B380007C003E00070003000300C700FE007C0C1
:104B48000000000000000180038007800F801F80A4
:104B58000F80078003800180018001800FF00FF033
:104B6800000000000000006000E001E00360066053
:104B78000E600FF00FF000600060006000600060E1
:104B880000000000FFFFFFFFC927D24BE493C927AD
:104B9800D24BE493C927D24BE493C927D24BE49371
:104BA800FFFFFFFF00000000038007800F800D80DB
:104BB8000980018001800180018001800FF00FF0E1
:104BC80000000000FFFFF00FF00FF00F80018001E0
:104BD800800180018001800180018001F00FF00FC9
:104BE800F00FFFFF00000FF80FF8003800700060AA
:104BF80000C000C001800180030003000600060019
:104C080000000000000007C00FE01C60180018003A
:104C18001FC01FE01C60183018300C600FC00780E0
:104C280000000000000003C007E00E700C700CE0EC
:104C380001C001C0007000300C300C700FE003C0E0
:104C480000000000000003E007F00E700C300C308C
:104C58000070006000E001C003800F000FF00FF04B
:104C6800000000000000000000000000000000003C
:104C7800000000000000000000000000000000002C
:104C88000000000002030405060708090A0B0C0DC2
:104C98000E0F10100102030405060708090A0B0C81
:104CA8000D0E0F10000000000000000001020304B8
:104CB800060708095245454E54206D616C6C6F63B8
:104CC8002073756363656564656400002E2E2F2E5E
:104CD8002E2F2E2E2F2E2E2F2E2E2F2E2E2F2E2EE7
:104CE8002F2E2E2F6E65776C69622F6C6962632F89
:104CF8007374646C69622F72616E642E63000000C5
:104D08002C2066756E6374696F6E3A20000000008F
:104D1800617373657274696F6E2022257322206631
:104D280061696C65643A2066696C65202225732286
:104D38002C206C696E65202564257325730A000094
:104D4800232D302B20000000686C4C0065666745F9
:104D5800464700003031323334353637383941422E
:104D6800434445460000000030313233343536378D
:0C4D780038396162636465660000000069
:044D84000902000818
:044D8800E10100083D
:104D8C000400002000000000CC4A0008AC4A0008D7
:104D9C008C4A000800000000000000000000000029
:104DAC0000000000000000000000000000000000F7
:104DBC0000000000000000000000000000000000E7
:104DCC0000000000000000000000000000000000D7
:104DDC0000000000000000000000000000000000C7
:104DEC000000000000000000000080001700000020
:104DFC00B521000800000000000040001700000072
:104E0C00A92100080000000000002000170000008D
:104E1C00C12100080000000000000800090000008B
:104E2C00CD21000800000000000010000A00000066
:104E3C00D921000800000000000004000800000058
:104E4C003523000854010020B800FA0001000000CE
:084E5C001000000000127A00B2
:0400000508004A1D88
:00000001FF
