:020000040800F2
:1000000000000120792C00083D0D00083F0D00087C
:10001000410D0008430D0008450D000800000000D8
:10002000000000000000000000000000470D000874
:10003000490D0008000000004B0D00084D0D0008A0
:10004000C92C0008C92C0008C92C0008C92C0008BC
:10005000C92C0008C92C0008C92C0008C92C0008AC
:10006000550D00085F0D0008690D0008C92C000837
:10007000C92C0008750D0008C92C0008C92C0008FF
:10008000C92C0008C92C0008C92C0008C92C00087C
:10009000C92C0008C92C0008C92C0008850D0008CF
:1000A000C92C00089D0D0008C92C0008C92C0008A7
:1000B000C92C0008C92C0008C92C0008C92C00084C
:1000C000C92C0008C92C0008C92C0008AD0D000877
:1000D000C92C0008C92C0008C92C0008C92C00082C
:1000E000BD0D0008C92C0008C92C0008C92C000847
:1000F000C92C0008C92C0008C92C0008C92C00080C
:10010000C92C00080000000000000000C92C0008F5
:10011000C92C0008C92C0008C92C0008C92C0008EB
:10012000C92C0008C92C0008C92C0008C92C0008DB
:10013000C92C0008C92C00080000000000000000C5
:10014000C92C0008C92C0008C92C000800000000B8
:10015000000000000000000000000000000000009F
:10016000C92C0008C92C0008C92C0008C92C00089B
:10017000C92C0008C92C0008C92C0008C92C00088B
:10018000C92C0008C92C0008000000000000000075
:04019000C92C00086E
:100194000348044B834202D0034B03B11847704712
:1001A4007400002074000020000000000548064987
:1001B400091A891001EBD171491002D0034B03B124
:1001C40018477047740000207400002000000000ED
:1001D40010B5064C237843B9FFF7DAFF044B13B18B
:1001E4000448AFF300800123237010BD7400002085
:1001F40000000000CC2C000808B5044B1BB10449D6
:100204000448AFF30080BDE80840CFE700000000D9
:1002140078000020CC2C000870B50D4E0D4D761BD7
:10022400B61006D00024013455F8043B9847A64282
:10023400F9D1094E094D761B02F046FDB61006D0E1
:100244000024013455F8043B9847A642F9D170BD07
:10025400B42E0008B42E0008B82E0008B42E0008EE
:10026400F0B4860746D0541E002A3CD0CAB20346D6
:1002740002E014F1FF3436D303F8012B9D07F8D1C3
:10028400032C29D9CDB245EA05250F2C45EA0545AD
:1002940033D9A4F11006360903F1200707EB06173A
:1002A40003F1100242E9045542E902551032BA4200
:1002B400F8D1721C14F00C0F03EB021204F00F06B9
:1002C40013D0331F23F003030433134442F8045BB5
:1002D4009342FBD106F003042CB1C9B21C4403F8C9
:1002E400011B9C42FBD1F0BC704734461346002CE2
:1002F400F3D1F8E714460346C2E71A462646E0E778
:1003040010B45468137803FB0101605C00095DF8C4
:10031400044B704710B45468137803FB0101605C0C
:10032400B0FA80F040095DF8044B704710B454688B
:10033400137803FB0101605C032814BF0020012033
:100344005DF8044B7047000070B582B005460E4658
:100354001446FFF7DFFF00287DD0224631462846A9
:10036400FFF7CEFF0138092800F28580DFE800F0AE
:1003740005101B26313C47525D68A36801934D4B21
:10038400009310231A463101280100F065F972E048
:10039400A3680193484B009310231A4631012801A6
:1003A40000F05AF967E0A3680193444B00931023CB
:1003B4001A463101280100F04FF95CE0A36801936B
:1003C4003F4B009310231A463101280100F044F9F1
:1003D40051E0A36801933B4B009310231A4631016B
:1003E400280100F039F946E0A3680193364B0093E5
:1003F40010231A463101280100F02EF93BE0A368CE
:100404000193324B009310231A463101280100F066
:1004140023F930E0A36801932D4B009310231A466F
:100424003101280100F018F925E0A3680193294B54
:10043400009310231A463101280100F00DF91AE047
:10044400A3680193244B009310231A463101280119
:1004540000F002F90FE0224631462846FFF766FF16
:1004640070B1A36801931D4B009310231A46310108
:10047400280100F0F1F8237BAB420CD002B070BD30
:10048400A3680193164B009310231A4631012801E7
:1004940000F0E2F8EFE7637BB342EFD1A368019386
:1004A400104B009310231A463101280100F00EF975
:1004B400E4E700BFA42D0008442E0008242E000801
:1004C400642D0008242D0008042E0008E42D0008E3
:1004D400042D0008642E0008E42C0008442D0008B4
:1004E400842D0008C42D000870B5054603785B0808
:1004F400037343785B084373002229786B7803FB0A
:1005040001F3934204DD6B68012199540A44F4E732
:10051400002601E00136F6B26B78B3420BD9002411
:100524002B78A342F6D92A4631462046FFF70CFF22
:100534000134E4B2F4E770BD38B50B461446157BBC
:10054400517B50B1024600281CDB2A44D2B22273EC
:100554002078824201D3002222734BB1002B17DB97
:100564000B44DBB263736278934201D30023637359
:1005740022462846FFF7E8FE2246617B207BFFF7F0
:10058400E3FE38BD002DE0D12278013A2273E4E77E
:100594000029E5D16378013B6373E9E708B50246B6
:1005A4004FF0FF310020FFF7C7FF08BD08B5024632
:1005B40001210020FFF7C0FF08BD08B50246002155
:1005C4004FF0FF30FFF7B8FF08BD08B50246002121
:1005D4000120FFF7B1FF08BD70B50446067B457BDB
:1005E400024629463046FFF795FE88B92246294639
:1005F4003046FFF79BFE60B16268237803FB056514
:10060400535D023B53552246617B207BFFF79CFEE2
:1006140070BD6268237803FB0565535D023353554F
:10062400F1E730B49C88844214D9DD888D4211D915
:100634001D68E408C30804FB01316B5652425A405A
:1006440052B200F00700012404FA00F0024052B252
:100654005A406A5430BC70472DE9F84FDDF828A0A1
:1006640085180B9CA488A5422EDACC180B9DED8826
:10067400AC4229DA9B4616468846074612F007091B
:1006840018BF4FF0010909EBD209002501E001353B
:10069400ADB25D4518D20024B442F8D2E30809FB98
:1006A40005331AF80320E34303F007031A4105EB6B
:1006B4000801E0190B9B02F0010289B280B2FFF736
:1006C400B0FF0134A4B2E7E7BDE8F88F2DE9F84F95
:1006D400DDF8288085180B9CA488A54230DACC1854
:1006E4000B9DED88AC422BDA9B4616468A46814622
:1006F40012F0070718BF012707EBD20700251BE0FC
:1007040005EB0A0104EB09000B9B89B280B2FFF7E9
:1007140088FF0134A4B2B4420CD2E30807FB0533CA
:1007240018F80320E34303F007031A4112F001020F
:10073400EFD1E5E70135ADB25D4501D20024EAE72A
:10074400BDE8F88F2DE9F0478CB000240794089495
:1007540009940A940B946A4B5A6942F400125A6140
:100764005A6902F400120092009A5A6942F4002273
:100774005A615A6902F400220192019A5A6942F4B8
:1007840080025A615A6902F480020292029A5A69FA
:1007940042F400325A615A6902F400320392039A15
:1007A4005A6942F480225A615A6902F480220492FE
:1007B400049A5A6942F480125A615A6902F4801206
:1007C4000592059A5A6942F400025A615B6903F47E
:1007D40000030693069B224602214FF0904001F04D
:1007E40081FADFF82CA1224644F28101504601F03F
:1007F40079FA444F22464021384601F073FA142313
:1008040007934FF4881608960125099507A93E48D1
:1008140001F08CF94FF4005307930896099407A943
:100824003A4801F083F94FF00209CDF81C9008957D
:1008340009944FF00308CDF8288007A94FF09040A1
:1008440001F074F944F281030793089509940A941A
:1008540007A9504601F06AF94FF440730793CDF8A5
:1008640020900994CDF8288007230B93DFF8A48007
:1008740007A9404601F05AF94023079308950994C3
:100884000A9407A9384601F051F980230793089484
:10089400099407A9384601F049F9E8230793089613
:1008A400099507A9404601F041F92246214608204E
:1008B40001F064FB082001F095FB22462146092043
:1008C40001F05CFB092001F08DFB224621460A2041
:1008D40001F054FB0A2001F085FB22462146172033
:1008E40001F04CFB172001F07DFB22462146282015
:1008F40001F044FB282001F075FB0CB0BDE8F08743
:100904000010024000180048001000480008004889
:1009140000040048000C004800B583B00A4B5A6933
:1009240042F001025A615B6903F001030193019BE8
:10093400002211460D2001F021FB0D2001F052FB95
:1009440003B05DF804FB00BF00100240034B1A68BB
:1009540000235362536A8342FCD370475C17002020
:100964000023052B18D80D4A02EB0312D2888242C9
:1009740002D00133DBB2F4E770B5084E1C0135191F
:1009840000236B7101232B7100F00CFB305195F99E
:10099400080001F035FB70BD704700BF0000002067
:1009A40008B50268314B9A4200D008BD00220221EA
:1009B4004FF0904001F096F92D4B1A8840F239130C
:1009C4009A4221D00420FFF7C1FF012202214FF0F7
:1009D400904001F087F90720FFF7B8FF244B1B88EC
:1009E400283B03EB4301C3EBC101224A11449BB2F0
:1009F400F92B2CD91E4B1B8840F23912934231D06B
:100A040001331B4A1380D0E71C20FFF79FFF01220C
:100A140002214FF0904001F065F90420FFF796FFA2
:100A2400002202214FF0904001F05CF91C20FFF7F6
:100A34008DFF012202214FF0904001F053F9032071
:100A4400FFF784FF0C4B1B6800225A62BAE7172297
:100A54000A4801F087FC0028CCD08021084801F026
:100A640046F9C7E7024B00221A809EE7002C01409A
:100A74005A170020E4000020A8170020F4170020D3
:100A84000004004808B572B64FF4FA7000F090FA0A
:100A9400064C0121204601F02AF94FF4FA7000F0C7
:100AA40087FA0121204601F022F9EDE7000400480D
:100AB40008B51148114B03604FF4827343604FF43F
:100AC400004383604FF4E063C36000230361436128
:100AD4004FF4007282611822C26180220262436272
:100AE40083620722C2620363436301F0C6FB00B959
:100AF40008BDFFF7C7FF00BFF41700200030014016
:100B040000B589B0002304930593069307930193DA
:100B1400029303931448154A026040F6FF024260B0
:100B240083600122C26003614361836101F088FF35
:100B340098B94FF48053049304A90B4801F0BCFF07
:100B440068B9002301930293039301A9064802F0B4
:100B540033F830B909B05DF804FBFFF793FFFFF7F2
:100B640091FFFFF78FFF00BFA8170020002C014062
:100B740000B589B00023049305930693079301936A
:100B8400029303931348144A02604722426083602D
:100B94004FF6FF72C2600361836101F051FF90B9A7
:100BA4004FF48053049304A90A4801F085FF60B907
:100BB40000230193039301A9064801F0FDFF30B916
:100BC40009B05DF804FBFFF75DFFFFF75BFFFFF77C
:100BD40059FF00BF5C1700200004004000B5A7B017
:100BE400202200211EA8FFF73BFB0021179118913A
:100BF40019911A911B91582201A8FFF731FB012387
:100C04001C934FF4A0221D921F93022322934FF4AE
:100C1400803323934FF4E01324931CA800F0DCF9F1
:100C2400C8B90F23179302211891002319934FF485
:100C340080621A921B9317A800F026FD68B9094B2D
:100C4400019300230E93109301A800F0F1FD30B935
:100C540027B05DF804FBFFF715FFFFF713FFFFF75D
:100C640011FF00BF00102000F0B585B000F07CF942
:100C7400FFF7B4FFFFF766FDFFF74EFEFFF718FF1F
:100C8400FFF73EFFFFF774FF244801F017FD2448E7
:100C940001F056FD0023CDF80230CDF80A30ADF84E
:100CA4000E3009238DF800308DF801301D4B01936F
:100CB4001D4B02936846FFF717FC002407E097F9E1
:100CC400080001F08FF900233B710134E4B2052CD4
:100CD400F3D82501154E77193B79002BF5D07B7994
:100CE40023B9FB686846984701237B7100F05AF9E1
:100CF4007359C01A9628E8D9FA880D4B5A6197F9A6
:100D04000830002BDBDB03F01F015B0901228A4062
:100D14006033084941F82320D1E700BF5C17002065
:100D2400A817002090000020600000200000002090
:100D34000004014000E100E0FEE7FEE7FEE7FEE715
:100D4400FEE770477047704708B500F01FF908BD0B
:100D540008B5042000F0D4FF08BD08B5082000F051
:100D6400CFFF08BD08B5102000F0CAFF08BD000081
:100D740008B5024801F095F808BD00BF58180020D6
:100D840008B5202000F0BCFF402000F0B9FF80200F
:100D940000F0B6FF08BD000008B5024801F01AFDD6
:100DA40008BD00BFA817002008B5024801F0C0FB29
:100DB40008BD00BFF417002008B54FF4005000F040
:100DC4009FFF08BD82B00A4B9A6942F001029A6102
:100DD4009A6902F001020092009ADA6942F08052A4
:100DE400DA61DB6903F080530193019B02B0704721
:100DF400001002402DE9F04188B0002303930493CE
:100E04000593069307930268294B9A4202D008B0CF
:100E1400BDE8F081044603F560439A6942F48052C8
:100E24009A619A6902F480520192019A5A6942F4D1
:100E340000325A615B6903F400330293029B20235E
:100E44000393022504954FF00308CDF81880052775
:100E5400079703A94FF0904000F068FE80260396A0
:100E640004950595CDF81880079703A94FF0904095
:100E740000F05CFE0F48104B036010234360002316
:100E84008360C660036143618361C36100F082FFD4
:100E940058B9084B63655C6200221146232001F0B7
:100EA4006DF8232001F09EF8B1E7FFF7EBFDF0E7C2
:100EB40000300140581800203000024000B583B0D3
:100EC4000368134A934205D0124A934215D003B0E3
:100ED4005DF804FB104B9A6942F400629A619B69C5
:100EE40003F400630093009B00221146192001F0D3
:100EF40045F8192001F076F8E9E7074BDA6942F082
:100F04000202DA61DB6903F002030193019BDEE76D
:100F1400002C0140000400400010024010B50446BB
:100F24000E4B18784FF47A73B3FBF0F30C4A106845
:100F3400B0FBF3F001F076F868B90F2C01D9012069
:100F44000AE0002221464FF0FF3001F017F8054B6C
:100F54001C60002000E0012010BD00BF68000020DC
:100F6400700000206C00002008B5074A136843F0A5
:100F740010031360032000F0EFFF0020FFF7CEFF03
:100F8400FFF720FF002008BD00200240034A11683B
:100F9400034B1B780B441360704700BF9C18002060
:100FA40068000020014B1868704700BF9C1800209F
:100FB40038B50446FFF7F6FF0546B4F1FF3F02D00B
:100FC400044B1B781C44FFF7EDFF401BA042FAD3EF
:100FD40038BD00BF68000020002800F0038370B50E
:100FE40082B00446036813F0010F3DD0C74B5B6821
:100FF40003F00C03042B20D0C44B5B6803F00C03F8
:10100400082B13D06368B3F5803F6AD0002B40F0FF
:101014008D8003F1804303F504331A6822F480328F
:101024001A601A6822F480221A605FE0B74B5B688A
:1010340003F4C033B3F5803FE4D14FF4003393FAA3
:10104400A3F3B24B19684FF4003393FAA3F3B3FA42
:1010540083F303F01F03012202FA03F30B4203D0CC
:101064006368002B00F0C082236813F0020F00F0C5
:10107400C080A64B5B6813F00C0F00F09780A34B65
:101084005B6803F00C03082B00F08880E368002BF6
:1010940000F0ED80012292FAA2F3B3FA83F303F194
:1010A400845303F584139B001A60FFF77BFF054606
:1010B400022393FAA3F3954B1968022393FAA3F33B
:1010C400B3FA83F303F01F03012202FA03F30B4282
:1010D40040F0BE80FFF766FF401B0228E8D90320DA
:1010E4008BE28A4A136843F4803313606368002BED
:1010F40036D0FFF757FF05464FF4003393FAA3F3B6
:10110400824B19684FF4003393FAA3F3B3FA83F3D1
:1011140003F01F03012202FA03F31942A4D1FFF7DB
:1011240041FF401B6428E7D9032066E2B3F5A02FF2
:1011340009D0764B1A6822F480321A601A6822F4B5
:1011440080221A60D2E703F18043A3F53C331A6886
:1011540042F480221A601A6842F480321A60C5E7A9
:10116400FFF720FF05464FF4003393FAA3F3674BD0
:1011740019684FF4003393FAA3F3B3FA83F303F03B
:101184001F03012202FA03F319423FF46DAFFFF784
:1011940009FF401B6428E6D903202EE25B4B5B6801
:1011A40003F4C033B3F5004F7FF470AF022393FA16
:1011B400A3F3564B1968022393FAA3F3B3FA83F308
:1011C40003F01F03012202FA03F3194203D0E36878
:1011D400934240F00B824D48036823F0F8032169E1
:1011E400F82292FAA2F2B2FA82F201FA02F213435C
:1011F4000360236813F0080F00F08C806369002BF0
:101204005CD0012191FAA1F2B2FA82F2404B13446C
:101214009B001960FFF7C6FE0546022393FAA3F26A
:1012240093FAA3F293FAA3F2384A516A93FAA3F316
:10123400B3FA83F303F01F03012202FA03F30B4210
:1012440068D1FFF7AFFE401B0228E6D90320D4E1A2
:101254002E48036823F0F8032169F82292FAA2F2D7
:10126400B2FA82F201FA02F213430360C1E70123E6
:1012740093FAA3F3B3FA83F303F1845303F58413CA
:101284009B0000221A60FFF78DFE0546022393FAA5
:10129400A3F31E4B1968022393FAA3F3B3FA83F35F
:1012A40003F01F03012202FA03F31942A1D0FFF74E
:1012B40079FE401B0228E9D903209EE1012292FA1B
:1012C400A2F2B2FA82F2124B13449B0000221A607B
:1012D400FFF768FE0546022393FAA3F293FAA3F2FA
:1012E40093FAA3F2094A516A93FAA3F3B3FA83F384
:1012F40003F01F03012202FA03F30B420AD0FFF7A3
:1013040051FE401B0228E6D9032076E1001002407A
:1013140020819010236813F0040F00F0A980BB4BC8
:10132400DB6913F0805F0BD1B84BDA6942F080526D
:10133400DA61DB6903F080530193019B012500E02E
:101344000025B34B1B6813F4807F10D0A368012BD6
:1013540021D063BB03F1804303F504331A6A22F0FE
:1013640001021A621A6A22F004021A6218E0A84AF8
:10137400136843F480731360FFF714FE0646A44B0E
:101384001B6813F4807FE1D1FFF70CFE801B6428F7
:10139400F5D9032031E19D4A136A43F00103136236
:1013A400A368002B3CD0FFF7FDFD06462EE0052B7D
:1013B40009D0964B1A6A22F001021A621A6A22F0C4
:1013C40004021A62ECE7914B1A6A42F004021A62B0
:1013D4001A6A42F001021A62E2E7022393FAA3F3C3
:1013E4008A4B596A022393FAA3F3B3FA83F303F003
:1013F4001F03012202FA03F3194238D1FFF7D2FD89
:10140400801B41F28833984200F2F280022393FA5F
:10141400A3F293FAA3F3002BDFD07C4B196AE1E724
:10142400FFF7C0FD064618E0022393FAA3F3774BB7
:10143400596A022393FAA3F3B3FA83F303F01F0365
:10144400012202FA03F3194211D0FFF7ABFD801B0E
:1014540041F28833984200F2CD80022393FAA3F23A
:1014640093FAA3F3002BDFD0684B196AE1E7B5BB0D
:10147400A369002B00F0C080644A526802F00C0299
:10148400082A00F09980022B2FD04FF0807393FA32
:10149400A3F3B3FA83F303F1845303F584139B009A
:1014A40000221A60FFF77EFD04464FF0007393FAA2
:1014B400A3F3564B19684FF0007393FAA3F3B3FAEE
:1014C40083F303F01F03012202FA03F3194271D0DC
:1014D400FFF768FD001B0228E7D903208DE04B4A83
:1014E400D36923F08053D361C2E74FF0807393FA3A
:1014F400A3F3B3FA83F303F1845303F584139B003A
:1015040000221A60FFF74EFD05464FF0007393FA70
:10151400A3F33E4B19684FF0007393FAA3F3B3FAA5
:1015240083F303F01F03012202FA03F3194206D0E6
:10153400FFF738FD401B0228E7D903205DE0334A5A
:10154400D36A23F00F03616A0B43D362536823F415
:101554007613216AE06901430B4353604FF08073B3
:1015640093FAA3F3B3FA83F303F1845303F58413D7
:101574009B0001221A60FFF715FD04464FF000732B
:1015840093FAA3F3214B19684FF0007393FAA3F372
:10159400B3FA83F303F01F03012202FA03F319429F
:1015A40006D1FFF7FFFC001B0228E7D9032024E043
:1015B400002022E0002020E0012B20D0134A5368B1
:1015C400D06A03F4C031E26991421AD103F4701372
:1015D400226A934217D100F00F00636A984219D12E
:1015E40000200AE001207047012006E0012004E009
:1015F400032002E0032000E0002002B070BD0120BF
:10160400FBE70120F9E70120F7E700BF00100240E3
:10161400007000400120F0E7174B5B6803F00C02F8
:10162400082A01D01548704703F470114FF4701262
:1016340092FAA2F2B2FA82F221FA02F21049885C1A
:101644000D4AD26A02F00F020F2191FAA1F1B1FA08
:1016540081F1CA400B498A5C13F4803F05D0074BE3
:10166400B3FBF2F300FB03F07047044BB3FBF2F35C
:1016740000FB03F0704700BF0010024000127A0024
:10168400842E0008942E0008002800F0BE8070B557
:101694000446624B1B6803F007038B420BD25F4A7C
:1016A400136823F007030B431360136803F0070365
:1016B4008B4240F0AC80236813F0020F06D0584AE6
:1016C400536823F0F003A068034353600D46236876
:1016D40013F0010F5AD06368012B2DD0022B40D098
:1016E400022292FAA2F24E4A1068022292FAA2F25E
:1016F400B2FA82F202F01F02012101FA02F2104250
:1017040000F0878046494A6822F0030213434B6085
:10171400FFF748FC0646424B5B6803F00C03626823
:10172400B3EB820F32D0FFF73DFC801B41F28833CC
:101734009842F0D9032067E04FF4003292FAA2F203
:10174400374A10684FF4003292FAA2F2B2FA82F2E7
:1017540002F01F02012101FA02F20242D2D1012059
:1017640052E04FF0007292FAA2F22D4A10684FF044
:10177400007292FAA2F2B2FA82F202F01F0201217E
:1017840001FA02F21042BDD101203DE0234B1B6857
:1017940003F00703AB420AD9204A136823F0070376
:1017A4002B431360136803F00703AB4233D1236860
:1017B40013F0040F06D01A4A536823F4E063E16877
:1017C4000B435360236813F0080F07D0144A53687F
:1017D40023F46053216943EAC1035360FFF71CFFFC
:1017E4000F4B5B6803F0F003F02292FAA2F2B2FA14
:1017F40082F2D3400B4AD35CD8400B4B18600B4B9E
:101804001868FFF78BFB002070BD01207047012092
:10181400FAE70120F8E70120F6E700BF00200240C4
:1018240000100240A42E0008700000206C0000206C
:10183400F0B583B00446036813F4803F48D0A14B4D
:10184400DB6913F0805F40F022819E4BDA6942F03D
:101854008052DA61DB6903F080530193019B012517
:10186400994B1B6813F4807F00F01381954B1B6A1E
:1018740013F4407322D0626802F440729A421DD07D
:101884009048016A21F440764FF4803393FAA3F22E
:10189400B2FA82F28D4F3A4492004FF0010CC2F832
:1018A40000C093FAA3F3B3FA83F33B449B000022F2
:1018B4001A60066211F0010F40F00081814A136A38
:1018C40023F4407361680B431362002D40F02381BD
:1018D400236813F0010F06D07A4A136B23F0030335
:1018E400A1680B431363236813F0020F06D0754AF3
:1018F400136B23F44033E1680B431363236813F041
:10190400040F06D06F4A136B23F4402321690B4361
:101914001363236813F0200F06D06A4A136B23F075
:101924001003E1690B431363236813F4003F06D0EB
:10193400644A536823F48003616D0B435360236846
:1019440013F0400F06D05F4A136B23F02003216A83
:101954000B431363236813F4802F06D0594A136B87
:1019640023F04003616A0B431363236813F0080FE9
:1019740006D0544A136B23F4401361690B43136379
:10198400236813F0100F06D04E4A136B23F4400360
:10199400A1690B431363236813F4007F06D0494AFB
:1019A400536823F40003216B0B435360236813F043
:1019B400800F06D0434AD36A23F4F873A16A0B4319
:1019C400D362236813F4807F06D03E4AD36A23F49B
:1019D4007853E16A0B43D362236813F4805F06D023
:1019E400384A136B23F48073616B0B4313632368CE
:1019F40013F4005F06D0334A136B23F40073216C95
:101A04000B431363236813F4801F06D02D4A136B12
:101A140023F08073A16B0B431363236813F4001F3B
:101A240006D0284A136B23F00073E16B0B43136356
:101A3400236813F4800F06D0224A136B23F48063C7
:101A4400616C0B431363236813F4000F06D01D4A23
:101A5400136B23F40063A16C0B431363236813F02B
:101A6400807F06D0174A136B23F40053E16C0B43B9
:101A74001363236813F0007F54D0124A136B23F4CA
:101A84000043216D0B431363002003B0F0BD002518
:101A9400E6E60D4A136843F480731360FFF782FA95
:101AA4000646094B1B6813F4807F7FF4DFAEFFF713
:101AB40079FA801B6428F4D90320E6E7FFF772FA69
:101AC40006461BE0001002400070004000819010A8
:101AD400154B196A022393FAA3F3B3FA83F303F0C1
:101AE4001F03012202FA03F30B427FF4E7AEFFF770
:101AF40059FA801B41F28833984211D8022393FA91
:101B0400A3F293FAA3F3002BE2D1022393FAA3F3F3
:101B1400054B596ADEE7D36923F08053D361D7E6D6
:101B24000320B2E70020B0E700100240F0B482B016
:101B340000235BE086685F000325BD4026EA0506B6
:101B4400CD68BD4035438560466826EA04064D6885
:101B5400C5F300149C403443446055E0DD08083567
:101B640050F8257003F00704A6000F24B44027EAB8
:101B740004070C69B4403C4340F8254058E006246F
:101B840000E00024B4403C430235524E46F8254060
:101B9400514CA568D44304EA05064F6817F4801F26
:101BA40001D042EA05064C4DAE60ED6804EA050634
:101BB4004F6817F4001F01D042EA0506464DEE6057
:101BC4006D6804EA05064F6817F4003F01D042EA45
:101BD4000506414D6E602D682C404E6816F4803F1A
:101BE40001D042EA05043C4A146001330A6832FA1F
:101BF40003F46BD001249C402240F6D04D6805F0DC
:101C04000305013D012D95D94C6804F00304032C10
:101C140009D0C5685E000324B44025EA04058C6835
:101C2400B4402C43C4604C6804F00304022C95D0E7
:101C340005685E000324B44025EA04054C6804F0FA
:101C44000304B4402C4304604C6814F4403FCCD0EB
:101C5400224CA56945F00105A561A46904F00104BD
:101C64000194019C9D08AE1C1A4C54F8267003F094
:101C74000304A6000F24B44027EA0407B0F1904FF0
:101C84003FF47FAF164CA04216D004F58064A04206
:101C940014D004F58064A04212D004F58064A042FC
:101CA40010D004F58064A0420ED004F58064A042F4
:101CB4003FF465AF072465E7012463E7022461E785
:101CC40003245FE704245DE705245BE702B0F0BC6E
:101CD400704700BF000001400004014000100240B2
:101CE400000400480AB1816170478162704743690A
:101CF40001EA030221EA030141EA024181617047DA
:101D040008B5054B5B69034200D108BD024B58611D
:101D1400FEF726FEF9E700BF0004014070B4066C2C
:101D2400C56B0124B4406C60046863604368102B85
:101D340005D0036899600368DA6070BC7047036873
:101D44009A600368D960F8E702680C4B9A420AD893
:101D54000B4B13440B4AA2FB03231B099B00036494
:101D6400094BC3637047094B1344064AA2FB032380
:101D74001B099B000364064BC363704707040240BE
:101D8400F8FFFDBFCDCCCCCC00000240F8FBFDBF7A
:101D94000004024020B310B50446022380F8213029
:101DA40001680A6822F47F5222F030024368806896
:101DB4000343E06803432069034360690343A06964
:101DC4000343E069034313430B602046FFF7BCFF62
:101DD4000020A063012384F8213084F8200010BD82
:101DE4000120704738B590F82040012C32D00124EE
:101DF40080F8204090F82140012C04D0002380F882
:101E04002030022038BD0446022084F8210000203E
:101E1400A0632568286820F0010028602046FFF7A9
:101E24007DFFE36A5BB12268136843F00E0313601D
:101E34002268136843F0010313600020E2E722687C
:101E4400136843F00A0313602268136823F0040341
:101E54001360EDE70220D5E708B590F82130022B96
:101E640003D004238363012008BD0268136823F0B0
:101E74000E0313600268136823F001031360036CFC
:101E8400C16B012202FA03F34B6080F82120002386
:101E940080F82030436B13B198470020E4E700201A
:101EA400E2E738B5C36B1A6804682568016C04233B
:101EB4008B40134213D015F0040F10D0236813F095
:101EC400200F03D1236823F004032360016CC26B49
:101ED40004238B405360C36A03B1984738BD02237F
:101EE4008B4013421AD015F0020F17D0236813F059
:101EF400200F06D1236823F00A032360012380F80E
:101F04002130016CC26B02238B405360002380F8A4
:101F14002030836A002BE1D09847DFE7082303FAD7
:101F240001F11142DAD015F0080FD7D0236823F05D
:101F34000E032360026CC16B012303FA02F24A60B0
:101F4400836380F82130002380F82030036B002B5A
:101F5400C4D09847C2E70000074AD36823F4E0637B
:101F64001B041B0C000200F4E060184340F0BF6047
:101F740040F40030D060704700ED00E030B4174BFF
:101F8400DB68C3F30223C3F10704042C28BF042431
:101F94001D1D062D01D9033B00E000234FF0FF3542
:101FA40005FA04F421EA0401994005FA03F322EA4C
:101FB40003031943002809DB0901C9B200F1604099
:101FC40000F5614080F8001330BC704700F00F004A
:101FD4000901C9B2024B1954F6E700BF00ED00E055
:101FE40014ED00E0002807DB00F01F024009012384
:101FF4009340024A42F82030704700BF00E100E0FD
:1020040000280CDB00F01F0240090123934020301C
:10201400034A42F82030BFF34F8FBFF36F8F7047EE
:1020240000E100E00138B0F1807F0AD2064B58602D
:10203400064AF02182F823100020986007221A60D3
:1020440070470120704700BF10E000E000ED00E0A1
:102054002DE9F04383B004460F4616461D46FEF7AD
:10206400A1FF0A9B181A00EB0508FEF79BFF8146A7
:102074002A4B1B68C3F3CB3308FB03F30193236898
:102084009B6837EA03030CBF01230023B34240D00B
:10209400B5F1FF3FF3D0FEF785FFA0EB0900404503
:1020A4000AD2B8F1000F07D0019A02B14246019B4F
:1020B400013B01939046E2E72268536823F0E00372
:1020C40053606368B3F5827F0BD0A36AB3F5005FF6
:1020D40014D0012384F85D30002384F85C3003209D
:1020E40018E0A368B3F5004F02D0B3F5806FECD1CC
:1020F4002268136823F040031360E6E7226813683C
:1021040023F4005313602268136843F400531360EC
:10211400DFE7002003B0BDE8F08300BF70000020BB
:102124002DE9F04782B006460C4615461F460023AB
:102134008DF80330FEF736FF0A9B181A00EB0708E8
:10214400FEF730FF8246D6F80090314B1B6803EB54
:102154008303C3EBC3031B0D08FB03F3019302E0EA
:10216400B7F1FF3F11D133689B682340AB424AD09B
:10217400B4F5C06FF4D1002DF2D199F80C30DBB274
:102184008DF803309DF80330EAE7FEF70BFFA0EB70
:102194000A0040450AD2B8F1000F07D0019A02B1F3
:1021A4004246019B013B01939046DCE73268536849
:1021B40023F0E00353607368B3F5827F0BD0B36AF6
:1021C400B3F5005F14D0012386F85D30002386F850
:1021D4005C30032018E0B368B3F5004F02D0B3F5C8
:1021E400806FECD13268136823F040031360E6E794
:1021F4003268136823F4005313603268136843F49D
:1022040000531360DFE7002002B0BDE8F08700BF91
:102214007000002070B582B004460D461646009248
:102224000B4600224FF4C051FFF77AFFB8B900966D
:102234002B46002280212046FFF70AFFB8B90096FA
:102244002B4600224FF4C0612046FFF769FF034686
:1022540050B1236E43F020032366032304E0236E6E
:1022640043F0200323660323184602B070BD236E97
:1022740043F0200323660323F6E700286FD010B54C
:102284000446436A33B94368B3F5827F05D000231B
:10229400C36102E00023036143610023A36294F855
:1022A4005D30002B52D0022384F85D30226813681D
:1022B40023F040031360E368B3F5E06F4CD90022C8
:1022C400B3F5706F04D0B3F5E06F01D00023A362BF
:1022D400636803F48273A16801F404410B43216928
:1022E40001F002010B43616901F001010B43A16993
:1022F40001F400710B43E16901F038010B43216AD9
:1023040001F080010B43A16A01F4005120680B43E2
:102314000360638B03F00403616A01F010010B4353
:10232400616B01F008010B43E16801F470610B4338
:10233400216813434B602268D36923F40063D3619B
:1023440000202066012384F85D3010BD84F85C30E1
:102354002046FEF74FFDA6E74FF48052B0E7012078
:102364007047000038B590F85C30012B00F086808F
:102374000446012380F85C3090F85D50EDB29D4234
:1023840076D1002975D0002A73D0032380F85D30FC
:102394000023036681638287C28703640365C36481
:1023A400A0F84430A0F846308368B3F5004F38D025
:1023B400636D334ADA62636D324A9A62636D324AFC
:1023C4001A63636D00225A632268536823F48043BE
:1023D4005360E368B3F5E06F04D8636D5B69B3F5EC
:1023E400806F29D02268E38F0C32A16B606DFFF7F8
:1023F400F9FC0146002836D123681A6812F0400F10
:1024040003D11A6842F040021A602268536843F00C
:10241400200353602268536843F0020353600D465F
:1024240027E00268136823F040031360026813680E
:1024340043F480431360BBE7E38F13F0010F08D12B
:102444002268536823F480435360E38F5B08E38777
:10245400C8E72268536843F480435360E38F5B0802
:102464000133E387BEE7236E43F01003236600E0E5
:102474000225002384F85C30284638BD0225FBE79A
:1024840095240008C3240008A1240008704770475D
:1024940008B5406AFFF7FBFF08BD704708B5406AFE
:1024A4000268536823F003035360036E43F0100380
:1024B4000366012380F85D30FFF7EFFF08BD30B5F8
:1024C40083B00546446AFEF76DFD2B681B6813F064
:1024D400200F23D12268536823F02003536022681D
:1024E400536823F002035360024664212046FFF739
:1024F40091FE18B1236E43F020032366A36833B919
:1025040001932368DA6801929B680193019B00237D
:10251400E387012384F85D30236E23B92046FFF757
:10252400B5FF03B030BD2046FFF7B7FFF9E7000061
:1025340030B585B00446026850689368C3F38011CF
:1025440029B913F0010F02D010F0400F67D113F036
:10255400020F02D010F0800F65D1C3F340151DB9EE
:1025640011B913F4807F61D010F0200F5ED079B1DF
:1025740094F85D10C9B203295AD0216E41F00401C8
:10258400216600210091D168009191680091009921
:1025940065B1216E41F0010121660021029191682B
:1025A4000291116821F040011160029A13F4807FB6
:1025B40009D0236E43F008032366002303932368A2
:1025C4009B680393039B236E002B2FD022685368D0
:1025D40023F0E0035360012384F85D3010F0030F0F
:1025E4002ED02268536823F003035360A36D4BB1CC
:1025F400154A5A63A06DFFF72FFC18B1236E43F000
:1026040040032366636D8BB10F4A5A63606DFFF715
:1026140023FC58B1236E43F04003236606E0E36CC9
:102624002046984702E0236D2046984705B030BD08
:1026340000230193D368019393680193019BF5E709
:102644002046FFF72AFFF1E75126000808B5406A43
:102654000023A0F84630C387FFF71FFF08BD10B45E
:10266400036A046A24F001040462846924F0F00417
:1026740044EA021223F00A030B43826103625DF809
:10268400044B704710B4036A23F010030362846997
:10269400036A24F4704444EA023223F0A00343EAB8
:1026A4000113826103625DF8044B7047836823F071
:1026B4007003194341F007018160704790F83D3081
:1026C400DBB2012B31D1022380F83D3003681A4A72
:1026D40093421CD0B3F1804F19D0A2F594329342A7
:1026E40015D002F58062934211D002F596329342DE
:1026F4000DD002F54062934209D002F58052934214
:1027040005D01A6842F001021A60002070479968E7
:102714000A4A0A40062A0AD0B2F5803F09D01A684C
:1027240042F001021A600020704701207047002027
:1027340070470020704700BF002C014007000100D3
:1027440090F83D30DBB2012B36D1022380F83D30C6
:102754000268D36843F00103D3600368194A9342C3
:102764001CD0B3F1804F19D0A2F59432934215D006
:1027740002F58062934211D002F5963293420DD055
:1027840002F54062934209D002F58052934205D08B
:102794001A6842F001021A600020704799680A4AD8
:1027A4000A40062A0AD0B2F5803F09D01A6842F0DE
:1027B40001021A6000207047012070470020704712
:1027C40000207047002C014007000100704770474B
:1027D4007047704710B5044603681A6912F0020F77
:1027E40011D0DA6812F0020F0DD06FF002021A61F4
:1027F4000123037703689B6913F0030F79D0FFF774
:10280400E6FF0023237723681A6912F0040F12D01D
:10281400DA6812F0040F0ED06FF004021A6102237A
:10282400237723689B6913F4407F68D02046FFF721
:10283400CEFF0023237723681A6912F0080F12D001
:10284400DA6812F0080F0ED06FF008021A61042340
:1028540023772368DB6913F0030F57D02046FFF773
:10286400B6FF0023237723681A6912F0100F12D0E1
:10287400DA6812F0100F0ED06FF010021A610823FC
:1028840023772368DB6913F4407F46D02046FFF7A3
:102894009EFF0023237723681A6912F0010F03D0E7
:1028A400DA6812F0010F3FD123681A6912F0800F21
:1028B40003D0DA6812F0800F3DD123681A6912F44C
:1028C400807F03D0DA6812F0800F3BD123681A6945
:1028D40012F0400F03D0DA6812F0400F39D12368A8
:1028E4001A6912F0200F03D0DA6812F0200F37D1E2
:1028F40010BDFFF76BFF2046FFF76AFF81E7204614
:10290400FFF764FF2046FFF763FF92E72046FFF7D7
:102914005DFF2046FFF75CFFA3E72046FFF756FF65
:102924002046FFF755FFB4E76FF001021A61204615
:10293400FEF736F8B8E76FF080021A61204600F01F
:102944008CF9BAE76FF480721A61204600F086F9B8
:10295400BCE76FF040021A612046FFF73AFFBEE77A
:102964006FF020021A61204600F076F9C0E70000FB
:102974000368324A904212D0B0F1804F0FD0A2F5D2
:10298400943290420BD002F58062904207D002F557
:102994009632904203D002F5E052904203D123F0E4
:1029A40070034A681343254A90421ED0B0F1804F09
:1029B4001BD0A2F59432904217D002F58062904267
:1029C40013D002F5963290420FD002F54062904245
:1029D4000BD002F58062904207D002F580629042EB
:1029E40003D002F50062904203D123F44073CA6815
:1029F400134323F080034A69134303608B68C36263
:102A04000B6883620D4B984213D003F50063984220
:102A14000FD003F5406398420BD003F580639842CE
:102A240007D003F58063984203D003F5006398420E
:102A340001D10B690363012343617047002C0140FA
:102A440060B310B5044690F83D3013B3022384F804
:102A54003D30214651F8040BFFF78AFF012384F827
:102A6400483084F83E3084F83F3084F8403084F8AD
:102A7400413084F8423084F8433084F8443084F898
:102A8400453084F8463084F8473084F83D300020DF
:102A940010BD80F83C30FEF711FAD7E701207047EB
:102AA40010B4846824F47F4442EA03230B43234391
:102AB40083605DF8044B704790F83C30012B77D06D
:102AC40010B50446012380F83C30022380F83D30E1
:102AD40002689068374B034093600B68402B54D0D6
:102AE40011D9702B39D023D8502B43D0602B1DD152
:102AF400CA6849682068FFF7C5FD60212068FFF7B0
:102B0400D5FD00200BE0102B4AD005D9202B47D04F
:102B1400302B45D0012002E0002B41D001200123BD
:102B240084F83D30002384F83C3010BD0120F6E7E2
:102B3400B3F5805F3AD0B3F5005F0CD1CB684A6837
:102B440089682068FFF7ACFF2268936843F48043E8
:102B540093600020E3E70120E1E7CB684A688968D5
:102B64002068FFF79DFF2268936843F07703936022
:102B74000020D4E7CA6849682068FFF770FD502137
:102B84002068FFF793FD0020C9E7CA6849682068F8
:102B9400FFF765FD40212068FFF788FD0020BEE7B0
:102BA40019462068FFF782FD0020B8E70020B6E749
:102BB400022070478800FEFF90F83C30012B46D07D
:102BC40030B4012380F83C30022380F83D300268A1
:102BD400536895681F4CA24207D004F50064A242D2
:102BE40003D004F5E054A24203D123F470034C68EB
:102BF400234323F070030C68234353600368154A8E
:102C0400934216D0B3F1804F13D0A2F5943293427D
:102C14000FD002F5806293420BD002F596329342B4
:102C240007D002F54062934203D002F580529342EA
:102C340004D125F080058A6815439D60012380F83E
:102C44003D30002380F83C30184630BC70470220E9
:102C5400704700BF002C0140704770477047000068
:102C6400034AD2F8883043F47003C2F888307047BE
:102C740000ED00E0DFF834D0FFF7F2FF0C480D4917
:102C84000D4A002302E0D458C4500433C4188C42C3
:102C9400F9D30A4A0A4C002301E013600432A24229
:102CA400FBD3FDF7B9FAFDF7DFFFFEE700000120D3
:102CB4000000002074000020BC2E000874000020D6
:102CC400A0180020FEE70000F8B500BFF8BC08BC5F
:102CD4009E467047F8B500BFF8BC08BC9E467047D6
:102CE40000000000018019981BD80FF00FF03FFC82
:102CF4003FFC0FF00FF01BD8199801800000000072
:102D0400000003C007E004200420066007E003C0BD
:102D140003C006600C300C300FF007E00000000028
:102D2400000007F007F006000600060007C003E0F5
:102D34000070003000300C700FE007C0000000008D
:102D440000000180038007800F801F800F800780B0
:102D540003800180018001800FF00FF0000000006B
:102D64000000006000E001E0036006600E600FF008
:102D74000FF0006000600060006000600000000070
:102D8400FFFFFFFFC927D24BE493C927D24BE4933B
:102D9400C927D24BE493C927D24BE493FFFFFFFF2B
:102DA40000000000038007800F800D8009800180EF
:102DB40001800180018001800FF00FF0000000000D
:102DC400FFFFF08FF12FF24F849389259249A4934A
:102DD400C9259249A491C921F24FF48FF90FFFFF3D
:102DE40000000FF80FF800380070006000C000C049
:102DF40001800180030003000600060000000000BB
:102E0400000007C00FE01C60180018001FC01FE07E
:102E14001C60183018300C600FC0078000000000E0
:102E2400000003C007E00E700C700CE001C001C08C
:102E3400007000300C300C700FE003C00000000084
:102E4400000003E007F00E700C300C3000700060DE
:102E540000E001C003800F000FF00FF0000000003D
:102E6400000000000000000000000000000000005E
:102E7400000000000000000000000000000000004E
:102E840002030405060708090A0B0C0D0E0F1010A7
:102E94000102030405060708090A0B0C0D0E0F10A6
:102EA40000000000000000000102030406070809F6
:042EB400FD01000814
:042EB800D501000838
:102EBC00000000000000800017000000B1050008B1
:102ECC00000000000000400017000000A1050008F1
:102EDC00000000000000200017000000BF050008E3
:102EEC00000000000000080009000000CF050008E9
:102EFC0000000000000010000A000000DD050008C2
:102F0C0000000000000004000800000000000000A9
:102F1C00E4000020B800FA000100000010000000DE
:042F2C0000127A0015
:0400000508002C794A
:00000001FF
